:100000000C944F090C9477090C9477090C94770998
:100010000C9477090C9477090C9477090C94770960
:100020000C9477090C9477090C9477090C948F2819
:100030000C9477090C9477090C9477090C94770940
:100040000C94182B0C9477090C9477090C9477096D
:100050000C9477090C9477090C9477090C94770920
:100060000C9477090C94770905A84CCDB2D44EB9FD
:100070003836A9020C50B9918688083CA6AAAA2A4B
:10008000BE000000803F00007F1F030020203E00D4
:100090002F5E5674002A235D39050E3E715D06629F
:1000A000236E2C036F31773C032F5E7F7F04FFFFAD
:1000B000FFFFFFFFFFFFFFFFFFFFFFFFFFFF8FFFC0
:1000C000FFFF80007FFFE0000007E0FFFFFF8000F0
:1000D000000000000000007BDDE7EE0000FFFDFFF8
:1000E000C0001FFE0000077BDDE7EF007EFFF9FF89
:1000F0008FE7803E7FF3E77BDDE7EF7F7EFFFBFF4F
:100100001FE780307FF3E70001E7E07F7EFFFBFE23
:100110003FE7FF307FF3E77BDDE7FFFF7EFFFBFC80
:100120007FE7FF337FF3E77BDDE03FFF7CFFFBF8FA
:10013000E007FF337FF3E77BDDE780FF01FFFBF1A3
:10014000C7E7C0337FF3E70001E7BEFF7FFFFBE3B4
:100150008FE7DF336023E7FFFFE7BEFF7FFFFBE7AB
:100160001FE7DF336F83E70000E03EFF7E0FFBE613
:100170003FE7DF336F87E70000E7FEFF7C07FBE424
:100180000003DF336FBFE73F9E67FEFE7803E0E0CA
:10019000DBD81F336FBFE73F1F603EFCF003E0E199
:1001A000DBDBC0000000003E3F678001E043E4E786
:1001B000D99BFF03F800007C7F67BFFFC0C3E0E767
:1001C000D99BFFCFF9FFFFF8FF603FFF81C3E0E756
:1001D000DDBBFFCE01FFC001FF67FFFF03C3FBE7ED
:1001E000DDBBFC00F9FFC003FF67FFFE07C3FBE7B1
:1001F000C003F80FF9FFCFFFFF07FFFE0FC3FBE7B8
:10020000FCFFF0FFF8000FFFFFD300001FC3FBE768
:10021000FCFFF3FFF8000FFFFFD000003FC3FBE738
:10022000FCFFF3FFF9FFE7FFFFD078007FC3F8077B
:10023000FCFFF3FFF9FFF7FFFFDCF800FFC3FBE76C
:10024000FCFFF200000000000004F9FFFFC3E3E33D
:10025000FCFFF200000000000004F1FFFFC38FF379
:10026000FCFFF27FFFFEFCFFFFE4E3FFFFC3BFF1F3
:10027000FCFFF27FF000FCFFFFE487FFFFC3BFF845
:10028000FCFFF27FF7FF8CFFE0641FFFFFC39FFCC2
:100290007CFFF27FF7FFAC0000643FFFFFC3DFFE8F
:1002A000000002000701A4000664FFFFFFC3C000B6
:1002B000000000000001B7EFFE64F801FFC7FFFF78
:1002C000E7FFB07F7039B0000264F0007FC7FFFF26
:1002D000C7FFB6417F399FBFFA04E3FC7FC7FFFF2A
:1002E0008FFFB65D00381C3F8A04E7FE7FC7FFFF23
:1002F0001FFFB65D003801002264CFFE7FC7FFFEFE
:100300003FFFB65D3F3FFBEFBE64CFFE7F87FFFC44
:100310007FFFB2513E00FA2FBE64CC067F87FFF804
:10032000FFFFBA513E7EF8AFBE64CD567F87FFF126
:10033000FFFFBA513E7EFDAF8064CD567F0FFFE3D5
:10034000FFFFBA5F3E70018F8064C5563F0FFFC349
:10035000FFFFBA5F3E7000003FE4E5571E0FFFC38A
:10036000FFFF8A403E73FFFFFFE4E007840FFFC3F7
:10037000FFFFAA403E03FFE00004E1FFC01FFFC3F0
:10038000FFFFAA7FBE03FFE00004F0FFE01FFFC3F2
:10039000FFFFAA7FBFF007E7EEFCFC3FFC1FFFC397
:1003A000FFFFAA7FBFFFF7E7EE00FE0FFE1FFFC3B0
:1003B000FFFFA2603FFFF7E70EFCFF87FE0FFFC3C2
:1003C000FFFFBE6FFFFFF3E77E0CFFE1FF0FFFC3F0
:1003D000FFFFA06FE000FBE700AC01F1FF0FFFC3E0
:1003E000FFFF806FEFFEFBE77FA001F98387FFC36C
:1003F000FFFF8E6FEFE003E77FBDF8F9BB87FFC318
:10040000FFFF9E60000FFFE4001DFC7983C3FFC364
:10041000FFFF9E7FEFFFFFE5F7D9FC783BE1FFC3CD
:10042000FFFF9E7FEFFFFFE5F7DBFE7983E1FFC370
:10043000FFFF9E7FEFFFFFE5F7DBFE79BBE1FFC328
:10044000FFFF827FEFFFFFE4F01BFE7983C3FFC352
:10045000FFFFBA0000000006F7FBFE79BBC3FFC335
:10046000FFFFBA0000000006F7F9FE798387FFC39B
:10047000FFFFBBFFFFFFEFFE03FDFE79DF0FFFC3B2
:10048000FFFFB801FE00EFC6F8040079DE1FFFC2CF
:100490000000000000000000FFF00079DC3FFFC218
:1004A00000003FFC00FF0010FFFFFE781C3FFFC272
:1004B000FFE79FFFFFFF3F79FFFFFE79FC3FFFC291
:1004C000FFE7CFFFC0FF3C79FFFFFE79FC3FFFC293
:1004D000FFE7E3FF9EFF30F9FFFFFE79FC3FFFC21D
:1004E000FFE1F8003EFF37F9FFFFFE79FC3FFFC256
:1004F000FFE0FFFF9E000000007FFE79FC3FFFC28F
:10050000FFE43FFFC0000000007FFE79FC3FFFC218
:10051000FFC70FFFFCFF37F9DE7FFE79FC3FFFC20C
:10052000FFCF83FFFCFF3079DE7FFE71FC3FFFC20F
:10053000FFCFE07FFCFF3F79DE7FFC01FC3FFFC285
:1005400007CFF83FFCFF000000000007FC3FFFC39F
:10055000F7CFFF1FFCFF0000000000BFFE1FFFC31E
:10056000F000000000003F79FE7FFFBFFE1FFFC3C9
:10057000C000000000003F79FE7FFFBFFF0FFFC3F8
:1005800083D79EBCFCFF3C79027FFFBFFF0FFFC2F9
:1005900007D79EBCFCFF38F87807FFBFFF0FFF00AE
:1005A00027D79EBCFCFF3BF9FE63FFBFFF0FFE0099
:1005B000E7D79EBCFC003BF9FE71FFBFFF87FC4301
:1005C000E7D79EBC000000000078FF3FFF87F8C31C
:1005D000E7D79EBCFF5F0000007C7F7FFF87F1C3F1
:1005E000E7D79EBCFF5F9F7BB73E3F7FFF87E3C39C
:1005F000E7D79EBCFF5F9F7BB79F1F7FFF87C7C367
:10060000E7D79EBCFF5F9F7BB78F9F7FFF87CFC3DE
:10061000E7D79EBCFF5F9E7BB7C3DE3FFF87CFC39C
:10062000E7D79EBCFF5F9EFBB7F3DC1FFF87CFC3FE
:10063000E000000000001EFBB7F801DFFF87CFC31A
:10064000E0000000000000000001FFC00007C04300
:10065000FFFF1FFFFFFF9FFFFFFFFF000007CC43CF
:10066000FFFF3FFFFFFF81FFFFFFFC00000FCC43B8
:10067000FFFF3FFFFFFFE07FFFFFFC00001FCFC336
:10068000FFFE7FFFFFFFF83FFFFFF83FFFFFCFC3F5
:10069000FFFC7FFFFFFFFE3FFFFFF0FFFFFFCFC329
:1006A000FFFCFFFFFFFFFF1FFFFFE1FC0001CFC3C7
:1006B000FFF0FFFFFFFFFF9FFFFFE1E1FFDDC04312
:1006C000FFE1FFFFFFFE1F9FFFFFE1EFFFDDCC43D8
:1006D000FFE3FFFFFFFE0F9F03FFE1EFC01DCC43D1
:1006E000FFE7FFFFFFFECF9E03FFE1EF9FFDCFC3BC
:1006F000FF800000FFFE8F9E33FFE1E03FFDCFC390
:10070000FF0000000FFE800033FFC3EF8001CFC366
:10071000FE00000007FE9F8003FF83EFBCFBC7C302
:10072000FC00000007FE1F9F07FF07EFBCFBE3C3B1
:10073000F83CFFFF83FFFF9FFFFE07E03C1BF1C378
:10074000F07C7FFF81FFFF9FFFFC07FDFC0BF9C1E1
:10075000E0FE3FE1C0FFFF9FFFF821FDF8CBF9E08D
:10076000C1FF1FEDE07FFF9FFFF070FDE0C3F9F0D8
:1007700003FF83EDE01FFF9FFFC0F83D87CFF9F82F
:1007800007FFC0EDF003FF9FFE01CE0D0FCFF9FC78
:100790000FFFF80018007F9FFC03C7843F8FF9FE0E
:1007A0001F80FE6FDF0000000007D7E0BF1FF9FFCA
:1007B000FF3EFE6FDFE00000003F87E3BE3FF9FF32
:1007C000FC7EFE6000FC000001FE37E7BC7FF9FF05
:1007D000F9FEFE7FFEFE000003F873E73CFFF9FC24
:1007E00003C0000002FFFF9FFFE1FBE77CFFF9FD74
:1007F000FF8000007AFFFF9FF807FBE77CFFF87D92
:10080000FF9EFFFF7801FF9FFBFFFBE77CFFF31DCF
:10081000FF9EFFFF03FDFF9FF1FFF1C6787FF7C04A
:100820007F9EFFFFDFFC000004000406FB7FE7FF64
:10083000001EFFF0003C68000004000EFB7FEFFF8D
:10084000001E7F00FF80002FBFF1FBBEFB7FEFFE8D
:100850007BFF7F7E3FFC3F2F9FFBFBBEFB7FE7FEC6
:10086000F9FF007F9FFC002FDFFBFBBE037FF07CC6
:10087000FCFFFBFFC7FFFFE0D003FBBEFF7FFF01D4
:10088000FE0003FFF1FFFFEE07F80000FF7FFFFF10
:10089000FFFFFFFFFC00000FFFFFFFFE007FFFFFD9
:1008A000FFFFFFFFFFFFFFFFFFFFFFFFFFFF101036
:1008B00000000000000208051400002000500000A5
:1008C000000004000A00002000502000500000003A
:1008D00010100000500020285010002800000000D8
:1008E0000140008001400000001428081014280076
:1008F00000001010000010006D005408AA145408E5
:100900006C2010000010006C045410AA2854106CC5
:1009100000100000101000007FFE6B5657AA7FFEEB
:100920006B5657AA7FFE6B5657AA7FFE40024002C5
:1009300040027FFE0000101000007FFE60065FFA9C
:10094000500A520A504A500A500A562A560A500A69
:100950005FFA60067FFE0000101000200050382073
:1009600047FE5502448238F2210A12660A9606961C
:100970007666750A04F207FE0000101000003800C9
:100980007DFE7D027D0239FE7F0240024002400270
:100990007FFE0200253C523C200000004024000065
:1009A0000000000000000000000000000000000047
:1009B00000000000000007E00078000000000E7852
:1009C00000E0000000001C1800E000000000181DFE
:1009D0008FF000000000180D8EE000000000180DE0
:1009E0008EE000000000180D8EE000000000180DE1
:1009F0008EE000000000181D8EE7FE7060EC1C19F0
:100A0000CEE0607871CC0E79DEE060F8398C07E0DA
:100A1000FEE060D81B0C0000000060DC1F0C000131
:100A2000FF0061CC0E0C1FC72180618E0E0C000CE4
:100A3000688061FE1F0C003848C063863B8C01E073
:100A4000FA606307318C03F0EE20670371CC661007
:100A5000FA306603E0EC0E7031FF000000000C601D
:100A60002D5100000000089FFE4180000000390069
:100A7000002181C00000310000230000000031800F
:100A800000660000000030E0018400000000103F1C
:100A9000FF1B800000000C00003000000000E7E0B9
:100AA00007E000000000001FF871E00000000FC028
:100AB0000000380000000000000000000000EC0A08
:100AC000F50A000B0B0B170B230B42455354205315
:100AD000434F5245004E6577207265636F726473B1
:100AE00021000808007755143E2A3E3E436F6E747D
:100AF000696E75650033206D696E20706C617900D8
:100B000035206D696E20706C6179003130206D691F
:100B10006E20706C617900486967682073636F723A
:100B20006573004D61696E204D656E7500030307A6
:100B30000507050405050405030603020702020173
:100B4000020203020E090E0E0D0E0E0F0E07050710
:100B5000050307050F050705070607010205020043
:100B6000070202070002070200020702000706034D
:100B7000060707020205050201020204020005023F
:100B8000020500060705050705020302020602002A
:100B90000000000B0003000307050704070105021E
:100BA0000507070400030000070505070005000509
:100BB000020702000C000202020004000402010706
:100BC00005070507040107040507020302070407D8
:100BD00001070606010107070707030307000500D1
:100BE000000D000205000505050005020107030FC1
:100BF00009030603060707020205050707020707A0
:100C00000507030107050607020705070504040396
:100C1000070205070404070307070106070507077E
:100C2000030307050307030604070101070107047F
:100C3000070304030706070502050106010107046F
:100C40000007050102040507000201020808080068
:100C5000030006030607070202050507050207074A
:100C60000507030107050607020705070504040336
:100C7000070205070404070307070106070507071E
:100C8000030307050307030604070101070107041F
:100C9000070304030706070502050106010107040F
:100CA0000207050007000507020602030705070300
:100CB000053F213F1208120A100A0E1C0E0C1E0CD2
:100CC000141A14161F161E131E1E1B1E1E1F1E3F57
:100CD000213F3A2F3A173D173F213F181F02040AC0
:100CE000041F0E04040E1F0A1F0A0E0E1F04110E0D
:100CF0002E252E2F2A2E262929021F02081F08150D
:100D00000E04040E150E15151B151B040604040C09
:100D1000040000000017000300031F0A1F16371A03
:100D20001904130A153A000300000E11110E000AEF
:100D3000040A040E04003000040404001000180427
:100D4000031F111F121F101D151711151F07041F58
:100D500017151D1F151D01011F1F151F17151F003A
:100D60000A00003200040A110A0A0A110A040115D5
:100D7000020E11171E051E1F150A0E110A1F110E55
:100D80001F15111F05010E111D1F041F111F110832
:100D9000100F1F041B1F10101F061F1E040F0E1123
:100DA0000E1F09060E112E1F051A121509011F012B
:100DB0001F101F0F180F1F0C1F1B041B031C0319F0
:100DC0001513001F11030418111F00020102202037
:100DD000200001020C121E1F120C0C12120C121F0A
:100DE0000C1A14041E05242A1E1F021C141D102098
:100DF000201D1F0814111F101E041E1E021C0C12A1
:100E00000C3E0A040C123E1E040214160A020F12B3
:100E10000E101E0E100E1E081E120C1226281E3258
:100E20002A26041E21001F00211E040102013F2169
:100E30003F05077F4141417F3E5B4F5B3E3E6B4F2D
:100E40006B3E183C783C18183C7E3C181C577D576C
:100E50001C1C5E7F5E1C007E43437E007E73737E9F
:100E6000007E7F7F7E7F4141417F30483A060E06FB
:100E7000297929067F4141417F60703F02042A1C85
:100E8000361C2A7F3E1C080000081C3E7F14227F6F
:100E900022143C3C3C7EFF18423C817E3E637563DD
:100EA0003E3E616B633E3E636B6B3E04027F020419
:100EB00010207F201008082A1C08081C2A08081483
:100EC0003E554122637569756310181C1810040C97
:100ED0001C0C04000000000000005F000000070080
:100EE0000700147F147F14042A7F2A102313086438
:100EF0006236495620500008070300001C224100BA
:100F00000041221C002A1C3E1C2A08083E0808003A
:100F1000E060000008080808080060600000601039
:100F20000804033E5149453E00427F40006251495A
:100F300049462141494D331814127F102745454534
:100F4000393C4A4949304121110907364949493656
:100F5000064949291E0000240000008064000008A2
:100F60001422410014141414140041221408020124
:100F70005909063E415D594E7C1211127C7F494948
:100F800049363E414141227F4141221C7F49494926
:100F9000417F090909013E414151327F0808087F1C
:100FA00000417F41002041413F017F081422417FE1
:100FB000404040407F020C027F7F0204087F3E4198
:100FC00041413E7F090909063E416141BE7F091941
:100FD0002946264949493201017F01013F404040ED
:100FE0003F1F2040201F3F4038403F6314081463D8
:100FF00003047804036151494543007F41410003E4
:10100000040810600041417F000402010204808056
:10101000808080000307080020545478407F2844D3
:1010200044383844444428384444287F385454547D
:1010300018087E09090218A4A49C787F0804047883
:1010400000447D4000006080847D7F1010284400B3
:10105000417F40007C047804787C0804047838449C
:10106000444438FC1824241818242418FC7C080450
:1010700004080854545420043F4444203C40402079
:101080007C1C2040201C3C4020403C44281028442C
:101090004C9090907C4464544C44000836410000CD
:1010A000007F00000041360800180408100C7F4142
:1010B00041417F0A4E6F2053442063617264206F68
:1010C000720A6E6F204C4F414445522E4845580AD3
:1010D0000A153A45786974001D20466C6173686989
:1010E0006E670A20206C6F616465722E2E2E0A0ACC
:1010F000444F4E2754205455524E204F464621000F
:101100006D560A0A504C454153450A5455524E20DB
:101110004F4646004C4F5720424154544552590ABD
:1011200000177361766500166261636B0015747950
:101130007065000A0A0A153A6F6B617920163A65E4
:1011400064697400596F7520656E74657265640A10
:1011500000540A03E181867F3E186D830F0F0E0154
:1011600083866033186DC3198F1803C38E603318DC
:101170006DE330CF1803C39E603630CDE360CF30CF
:1011800006C79E7E3E30CDB360CF300CC6F66033CE
:1011900030D9B660CF33CFCCF66061B0DB1E60CF04
:1011A00030D86CE6C061B0DB1E618F19986CC6C088
:1011B00063B19B0E330F0FB078C6FF7E1F1B061E58
:1011C0000F1753440016137800161314001510203F
:1011D000001520100000000500893008023802497F
:1011E00078681400004500680100000500680138B7
:1011F0000100000500380168010000F6E8DBCFC3FC
:10120000B8AEA49B928A827B746E68625C57524E21
:101210004945413E3A3734312E2C29272523211FB9
:101220001D1C1A1917161514131211100F0E0D0C80
:101230000B0A090807063A123E120101F7030101E1
:10124000FF0300000000240027002A000000000027
:10125000250028002B0000000000230026002900A4
:10126000040404040404040402020202020203034C
:101270000303030301020408102040800102040854
:1012800010200102040810200000000700020100E5
:10129000000304060000000000000000380A1124CA
:1012A0001FBECFEFD8E0DEBFCDBF11E0A0E0B1E0C0
:1012B000E2EBFAE602C005900D92A833B107D9F728
:1012C00014E0A8E3B1E001C01D92A534B107E1F735
:1012D00012E1CEE9D2E104C02297FE010E946734F8
:1012E000CC39D107C9F70E94462D0C9457350C9480
:1012F000000083E08093D60180E090E0A0EAB1E4B2
:101300008093BE019093BF01A093C001B093C1012F
:101310008093C2019093C301A093C401B093C5010F
:1013200080E090E0A0E0B0E08093C6019093C70118
:10133000A093C801B093C9018093CA019093CB01D7
:10134000A093CC01B093CD018093CE019093CF01B7
:10135000A093D001B093D1018093D2019093D30197
:10136000A093D401B093D50108950F931F938C01DE
:10137000109250010E9479091092E1011092E2014D
:101380001092E3011092E4011092DC011092DB0153
:101390001092E50180EB94E09C01029FC001039F45
:1013A000900D129F900D11249093DE018093DD012A
:1013B0001F910F9108958091E501882349F0809154
:1013C000DB019091DC0101969093DC018093DB01BD
:1013D0008091DD019091DE0101979093DE01809371
:1013E000DD0108958330A1F0843028F4813051F07C
:1013F000823058F41AC0853089F0853060F086302C
:1014000099F40FC020ED38E012C022EF38E00FC091
:1014100024E139E00CC026E339E009C028E539E0D1
:1014200006C02AE739E003C008952EEA38E0C90172
:101430000895E62FF0E094E0EE0FFF1F9A95E1F794
:10144000282F269526952695E20FF11DE255FF4F90
:10145000E4912E2F30E090E0809590958770907009
:1014600002C0359527958A95E2F7822F81700895FD
:10147000109289011092880183E391E09093870193
:101480008093860108954F925F926F927F928F9220
:101490009F92AF92BF92CF92DF92EF92FF920F9303
:1014A0001F93CF93DF938091E8019091E9012FEF93
:1014B000813F920714F4662486C060E170E00E94C8
:1014C0001534662E80C08091E6019091E701EFEF20
:1014D000813F9E0714F4772405C060E170E00E940C
:1014E0001534762E240154E0440C551C5A95E1F72E
:1014F00050C0872D662D0E94190A882309F448C020
:10150000C0E0D0E0FE01EA57FF4F2491FE01E95709
:10151000FF4F0491FE01E857FF4F4491CE018757DA
:101520009F4FFC01C49030E010E0E42EFF24E21A4B
:10153000F30ADD24C01AD10A88E391E0B501A401C1
:101540000E94AD1D882329F0C657DF4FFE0184910C
:1015500005C02596C832D105A9F682E00E94F2099D
:101560009C0144E0AA0CBB1C4A95E1F78091E6017E
:101570009091E701A81AB90A8091E8019091E901D8
:10158000A201481B590B86E891E06A2D0E94331A8C
:101590007394A72CBB248091E6019091E701F7E0BA
:1015A0008C3A9F071CF060E870E008C08C5A9F4F8F
:1015B00060E170E00E9415346F5F7F4FA616B7069A
:1015C0000CF497CF6394862C99248091E801909134
:1015D000E90127E0803D92071CF060E870E007C059
:1015E000C09660E170E00E9415346F5F7F4F8616F1
:1015F00097060CF468CFDF91CF911F910F91FF9068
:10160000EF90DF90CF90BF90AF909F908F907F90A2
:101610006F905F904F9008950F931F9308E311E030
:10162000C8016CE979E00E94A325C8010E94FB1E55
:101630001F910F9108954F925F926F927F928F92B8
:101640009F92AF92BF92CF92DF92EF92FF920F9351
:101650001F93CF93DF936091BE017091BF01809182
:10166000C0019091C1010E94D0312B018091E6010F
:101670009091E701481A590A2091C2013091C301A3
:101680004091C4015091C5010091E8011091E90118
:10169000C20140968536910508F074C0CA01B901AF
:1016A0000E94D031EB01C01BD10B8FEFC03FD80798
:1016B0000CF468C0C133D1050CF064C086E891E039
:1016C000642D4C2F2091D6010E947E1986E891E06E
:1016D00060E00E940517E090D201F090D3010091E4
:1016E000D4011091D501C801B7010E9465315B0199
:1016F0006C01C801B7010E944F333B014C01B2019C
:10170000882777FD8095982F0E9403327B018C01FA
:10171000C601B50120E030E040E850E40E94EC3220
:101720009B01AC01C801B7010E94FD300E94D0317D
:101730005B016C01BE01882777FD8095982F0E9480
:1017400003327B018C01C401B30120E030E040E8AA
:1017500050E40E94EC329B01AC01C801B7010E9429
:10176000FD300E94D0317B018C0186E891E0642D30
:101770004C2F2A2D0E2D0E940D1786E891E061E076
:101780000E940517DF91CF911F910F91FF90EF906D
:10179000DF90CF90BF90AF909F908F907F906F9091
:1017A0005F904F9008952F923F924F925F926F9269
:1017B0007F928F929F92AF92BF92CF92DF92EF92E1
:1017C000FF920F931F93DF93CF930F92CDB7DEB7A6
:1017D00082E491E062E041E00E945C168823B1F06F
:1017E0006091D2017091D3018091D4019091D50183
:1017F00025E438ED40E25EE30E94FD306093D201C3
:101800007093D3018093D4019093D50182E491E049
:1018100060E041E00E945C168823B1F06091D20143
:101820007091D3018091D4019091D50125E438EDD8
:1018300040E25EE30E94FC306093D2017093D301DA
:101840008093D4019093D50182E491E064E041E07B
:101850000E945C168823B1F06091C6017091C701A7
:101860008091C8019091C9012AE037ED43EA5CE319
:101870000E94FD306093C6017093C7018093C80138
:101880009093C90182E491E065E041E00E945C161A
:10189000882309F442C06091C6017091C70180910C
:1018A000C8019091C9012DEC3CEC4CE45FE30E942F
:1018B000EC326093C6017093C7018093C801909386
:1018C000C9016091CA017091CB018091CC019091C6
:1018D000CD012DEC3CEC4CE45FE30E94EC326093D4
:1018E000CA017093CB018093CC019093CD0160919C
:1018F000CE017091CF018091D0019091D1012DEC5A
:101900003CEC4CE45FE30E94EC326093CE017093B8
:10191000CF018093D0019093D1012090BE013090EF
:10192000BF014090C0015090C1016091C20170910F
:10193000C3018091C4019091C50120E030E040E8EE
:101940005DE30E94EC320E94D5317B018C016983FA
:10195000C201B10120E030E040E85DE30E94EC32DA
:101960000E94D531DC01CB016E2D0E94190A88231B
:1019700009F042C06091C6017091C7018091C80111
:101980009091C90123E333E343E75FE30E94EC3224
:101990006093C6017093C7018093C8019093C901F9
:1019A0006091CA017091CB018091CC019091CD01E1
:1019B00026E636E646E65FE30E94EC326093CA0113
:1019C0007093CB018093CC019093CD016091CE01B7
:1019D0007091CF018091D0019091D10126E636E639
:1019E00046E65FE30E94EC326093CE017093CF0134
:1019F0008093D0019093D101E090D201F090D30177
:101A00000091D4011091D501C801B7010E94653140
:101A1000A090C601B090C701C090C801D090C90184
:101A2000A60195010E94EC322091CA013091CB01B0
:101A30004091CC015091CD010E94FD303B014C0101
:101A40006093CA017093CB018093CC019093CD0138
:101A5000C801B7010E944F33A60195010E94EC32E4
:101A60009B01AC016091CE017091CF018091D001BA
:101A70009091D1010E94FD306093CE017093CF010F
:101A80008093D0019093D101C201B101A4019301CF
:101A90000E94FD307B018C016093BE017093BF01F9
:101AA0008093C0019093C10120E030E040E85DE305
:101AB0000E94EC320E94D531DC01CB0169810E9489
:101AC000190A8130C1F5C801B701A40193010E9430
:101AD000FC306093BE017093BF018093C00190936E
:101AE000C101C401B30120E030E040E05FEB0E949F
:101AF000EC326093CA017093CB018093CC01909338
:101B0000CD018DE591E00E94BF286091C6017091E2
:101B1000C7018091C8019091C90120E030E040E008
:101B20005FE30E94EC326093C6017093C70180931B
:101B3000C8019093C9016090CE017090CF01809050
:101B4000D0019090D101C401B3012091C201309124
:101B5000C3014091C4015091C5010E94FD305B0159
:101B60006C016093C2017093C3018093C401909390
:101B7000C5016091BE017091BF018091C00190913B
:101B8000C10120E030E040E85DE30E94EC320E94B9
:101B9000D5317B018C01C601B50120E030E040E881
:101BA0005DE30E94EC320E94D5319B01AC018E2D89
:101BB000622F0E94190A8130C1F5C601B501A40146
:101BC00093010E94FC306093C2017093C301809323
:101BD000C4019093C501C401B30120E030E040E0AE
:101BE0005FEB0E94EC326093CE017093CF01809343
:101BF000D0019093D1018DE591E00E94BF286091C2
:101C0000C6017091C7018091C8019091C90120E07F
:101C100030E040E05FE30E94EC326093C6017093D5
:101C2000C7018093C8019093C901A090C601B090EC
:101C3000C701C090C801D090C9016091E1017091C5
:101C4000E2018091E3019091E4010E940132A6013A
:101C500095010E94FD300E94D5316093E10170939F
:101C6000E2018093E3019093E401E090D201F090CF
:101C7000D3010091D4011091D501C801B7010E9490
:101C800065313B014C01C801B7010E944F33A601E9
:101C900095010E94EC3220E030E040E852E40E94DE
:101CA000EC322091C2013091C3014091C4015091A6
:101CB000C5010E94FD3020E030E040EC51E40E947C
:101CC000FC300E94D0317B018C01C401B301A6011C
:101CD00095010E94EC3220E030E040E852E40E949E
:101CE000EC322091BE013091BF014091C001509172
:101CF000C1010E94FD3020E030E048E252E40E9441
:101D0000FC300E94D031DC01CB014091E6015091C2
:101D1000E7019A01220F331F240F351F820F931FF3
:101D200064E070E00E9415347093E7016093E6016F
:101D30002091E8013091E901C901880F991F820FB4
:101D4000931F8E0D9F1D64E070E00E941534709308
:101D5000E9016093E8010F90CF91DF911F910F91FE
:101D6000FF90EF90DF90CF90BF90AF909F908F90BB
:101D70007F906F905F904F903F902F900895CF92FB
:101D8000DF92EF92FF920F931F93CF93DF93ABE01D
:101D9000CA2ED12CF5E1EF2EF12C88E391E00E94C0
:101DA000461F8823D1F360E070E080E090E022E0FD
:101DB00030E040E050E00E94912F675F60938F0118
:101DC00060E070E080E090E022E030E040E050E051
:101DD0000E94912F6093900186E891E06AEC7AE08E
:101DE0000E94CA2D10928D0110928F0180918B015B
:101DF000809390010AEF11E0C0E0D0E0F80180810B
:101E00009181892B31F486E891E06DE20E94A22D48
:101E10000DC0CC9DB001CD9D700DDC9D700D1124C9
:101E20006C5F7D4F86E891E00E94DD2E80918A01F3
:101E30009701281B3109C901880F991F880F991F25
:101E400080938F01219680918B0190E0FC01CE9FC1
:101E5000C001CF9F900DDE9F900D112480939001C3
:101E6000F801619171918F0186E891E04AE050E0BC
:101E70000E94BE2EC530D10509F682E491E064E0EF
:101E80000E945216882379F482E491E065E00E9472
:101E90005216882341F482E491E066E00E945216D3
:101EA000882309F47ACF8DE591E00E94B328DF9171
:101EB000CF911F910F91FF90EF90DF90CF900895F9
:101EC0004F925F926F927F928F929F92AF92BF924A
:101ED000CF92DF92EF92FF920F931F93DF93CF93F6
:101EE000CDB7DEB72A970FB6F894DEBF0FBECDBFD1
:101EF0008C012091DF013091E001809102029091EC
:101F000003028217930708F0B0C088E391E060E312
:101F100072E00E949B1D88E391E060E372E04BE079
:101F20000E94FF1F109303020093020290E0C92E4B
:101F300092E0D92E83E0A82EB12C0BE0402E512C3C
:101F40003E010894611C711C45010894811C911C80
:101F5000F60120813181828193812817390764F04D
:101F60001AEF812E11E0912EAA24BB24CC24DD246B
:101F7000BBE06B2E712C69C0A49C7001A59CF00C79
:101F8000B49CF00C112484E092E0E80EF91EC30129
:101F9000B7010E94D534849C8001859C100D949CCF
:101FA000100D11240C5F1D4FC701B8010E94D534DC
:101FB000C801B3010E94D534F601208131818281AC
:101FC000938191838083338322838EEF9FEFC80EAA
:101FD000D91E0894A108B10898EFC91691E0D90656
:101FE00009F0B2CFBDCFB8016C0D7D1D89E394E03F
:101FF000F70141917F010E9413290F5F1F4F0A30A3
:10200000110589F78AE090E0C80ED91E89E394E0B3
:10201000B601F40140810E9413290894C11CD11C0F
:10202000F401418189E394E0B6010E9413290894E8
:10203000A11CB11C82E090E0880E991E0894C11C7E
:10204000D11C95E0A916B10471F0A69C7001A79C63
:10205000F00CB69CF00C1124E4E0F2E0EE0EFF1E52
:1020600000E010E0C0CF0E94BF0E2A960FB6F89491
:10207000DEBF0FBECDBFCF91DF911F910F91FF90BB
:10208000EF90DF90CF90BF90AF909F908F907F9018
:102090006F905F904F9008956F927F928F929F9272
:1020A000AF92BF92CF92DF92EF92FF920F931F9366
:1020B000CF93DF933AEF832E31E0932EAA24BB24F3
:1020C000CC24DD242BE0622E712C3BC0BE016C0DB4
:1020D0007D1D89E394E00E940C29F80181938F0112
:1020E0002196CA30D10591F7B601665F7F4F89E32B
:1020F00094E00E940C29082F10E0F4011183008362
:10210000B601655F7F4F89E394E00E940C29F82EA9
:10211000EE24C701800F911FF7E28F309F0711F463
:1021200080E090E0F401819391934F010894A11C09
:10213000B11C8CE090E0C80ED91E95E0A916B10440
:1021400061F0A69C8001A79C100DB69C100D112477
:102150000C5F1D4FC0E0D0E0B9CFDF91CF911F9150
:102160000F91FF90EF90DF90CF90BF90AF909F9036
:102170008F907F906F9008950F931F93CF93DF936D
:102180000AEE11E0C0E0D0E0809127019091280193
:102190008C179D0729F1F8012281338160817181BB
:1021A0008091E6019091E701681B790B4091E8016D
:1021B0005091E901CB0140968536910588F4C9011B
:1021C000841B950BAC019FEF403F59074CF0413306
:1021D000510534F486E891E022EE3AE00E94331A89
:1021E00021960C5F1F4FC430D10571F60091D701C5
:1021F0001091D8018091E6019091E701081B190B1D
:102200002091D9013091DA014091E8015091E90122
:10221000C801409685369105C0F4E901C41BD50B71
:10222000EFEFC03FDE078CF0C133D10574F486E8D0
:1022300091E0602F4C2F24E00E94D41786E891E0B3
:10224000602F4C2F21E00E94D417DF91CF911F9176
:102250000F9108953F924F925F926F927F928F926B
:102260009F92AF92BF92CF92DF92EF92FF920F9325
:102270001F93CF93DF93CAEED1E0CC24DD24442416
:102280004A94542C33243394609027017090280191
:102290006C147D0409F43CC16091BE017091BF01D2
:1022A0008091C0019091C1010E94D0314B01609199
:1022B000C2017091C3018091C4019091C5010E9437
:1022C000D0315B016881798168197909882777FDA8
:1022D0008095982F0E9403329B01AC010E94EC3242
:1022E0007B018C016A817B816A197B09882777FDD4
:1022F0008095982F0E9403329B01AC010E94EC3222
:102300009B01AC01C801B7010E94FD300E94593306
:102310000E94D0316739710584F168E57FEF8FEF56
:102320009FEF28EA30E040E050E00E94912FC40186
:10233000860F971F9983888360EA7FEF8FEF9FEF67
:1023400020E630E040E050E00E94912F9501260FFA
:10235000371F3B832A838881998160E170E00E9466
:102360001534462FC90160E170E00E941534842FB6
:102370000E94190A882389F660C06A3071050CF042
:102380005CC02091C6013091C7014091C8015091B5
:10239000C901CA01B9010E94EC320E94593320E000
:1023A00030E040E85FE30E94613188230CF045C0D3
:1023B0008FEF68168FEF780609F03FC0D0922801A2
:1023C000C09227011092DC011092DB013092E501EE
:1023D0008DE591E00E94B32864E670E080E090E033
:1023E00020ED37E040E050E00E94912F7093D8013B
:1023F0006093D70164E670E080E090E020ED37E084
:1024000040E050E00E94912F8B019C017093DA0113
:102410006093D9018091D7019091D80160E170E07B
:102420000E941534462FC80160E170E00E94153407
:10243000842F0E94190A882379F6809127019091B0
:10244000280197FD65C06091D7017091D801882758
:1024500077FD8095982F0E9403322091BE01309124
:10246000BF014091C0015091C1010E94FC300E9407
:10247000D031882777FD8095982F0E9403329B01E9
:10248000AC010E94EC327B018C016091D90170910A
:10249000DA01882777FD8095982F0E9403322091DA
:1024A000C2013091C3014091C4015091C5010E9405
:1024B000FC300E94D031882777FD8095982F0E94AC
:1024C00003329B01AC010E94EC329B01AC01C801BC
:1024D000B7010E94FD300E94593320E030E040E215
:1024E00051E40E94613188239CF48091DF01909136
:1024F000E00101969093E0018093DF015092280162
:10250000409227011092E5018DE591E00E94B328E9
:102510000894C11CD11C249684E0C816D10409F08B
:10252000B3CEDF91CF911F910F91FF90EF90DF908D
:10253000CF90BF90AF909F908F907F906F905F9063
:102540004F903F900895AF92BF92CF92DF92EF925B
:10255000FF920F931F93DF93CF93CDB7DEB72E97E4
:102560000FB6F894DEBF0FBECDBF6B017C01B42E59
:1025700081E080938E018E010F5F1F4FC801B7016C
:10258000A6012AE00E94A730AB2CBB24C02EF12E5E
:102590008E01085F1F4F12C0C80160E071E00E9409
:1025A0007430C8016C2D7F2D0E943D30BC018C2DF4
:1025B0009F2D0E94D930C8010E94F6308D819E81E6
:1025C0008A159B0548F386E891E06C2D7F2D0E94CB
:1025D000F32E8C2D9F2D0E94F0302E960FB6F8947E
:1025E000DEBF0FBECDBFCF91DF911F910F91FF9046
:1025F000EF90DF90CF90BF90AF90089588E391E087
:102600000E94461F8823D1F386E891E061E37EE0D3
:102610000E94A11A86E891E062E071E00E94E02E3B
:1026200086E891E06FEA7CE00E94A11A86E891E0DA
:102630006CE071E00E94DD2E6091DF017091E0019D
:1026400080E090E044E00E94A31286E891E065E11A
:1026500071E00E94E02E86E891E066E171E00E9460
:10266000DD2E6091E1017091E2018091E301909192
:10267000E40146E00E94A3122091DF013091E001C5
:1026800080910202909103028217930700F560E0A7
:1026900070E080E090E022E030E040E050E00E9416
:1026A000912F6C5E60938F0160E070E080E090E0BD
:1026B00022E030E040E050E00E94912F625E6093A3
:1026C000900186E891E065ED7AE00E94CA2D82E4EF
:1026D00091E064E00E945216882379F482E491E04C
:1026E00065E00E945216882341F482E491E066E09E
:1026F0000E945216882309F481CF8DE591E00E9453
:10270000B3288091DF019091E0010E94600F08954D
:102710008F929F92AF92BF92CF92DF92EF92FF92F1
:102720000F931F93DF93CF93CDB7DEB72E970FB6DE
:10273000F894DEBF0FBECDBF5B016C01942E822EDC
:1027400081E080938E017E010894E11CF11CC70199
:10275000B601A5012AE00E94A730C02EDD24AF2CCF
:102760008E01085F1F4F12C0C80160E071E00E9437
:102770007430C8016E2D7A2D0E943D30BC018E2D23
:102780009A2D0E94D930C8010E94F6308D819E8119
:102790008C159D0548F390928F018092900186E8F8
:1027A00091E06E2D7A2D0E94F32E8E2D9A2D0E948F
:1027B000F0302E960FB6F894DEBF0FBECDBFCF918E
:1027C000DF911F910F91FF90EF90DF90CF90BF901E
:1027D000AF909F908F9008956F927F928F929F926B
:1027E000AF92BF92CF92DF92EF92FF920F931F931F
:1027F00086E891E060E00E94051786E891E064E0D9
:102800004BE224E00E947E1986E891E061E00E949C
:10281000051786E891E064E04BE224E00E94D417BB
:10282000809127019091280197FD7EC06091D7018A
:102830007091D801882777FD8095982F0E940332E8
:102840002091BE013091BF014091C0015091C10162
:102850000E94FC300E94D031882777FD8095982F08
:102860000E9403323B014C01A40193010E94EC320F
:102870007B018C016091D9017091DA01882777FD85
:102880008095982F0E9403322091C2013091C3019C
:102890004091C4015091C5010E94FC300E94D0318A
:1028A000882777FD8095982F0E9403325B016C0189
:1028B000A60195010E94EC329B01AC01C801B70151
:1028C0000E94FD300E9459339B01AC0160E070E032
:1028D00080E890E40E9468317B018C01A40193019F
:1028E0000E94EC3220E030E040E850E40E94FD30ED
:1028F0000E94D0313B014C01C801B701A6019501EE
:102900000E94EC3220E030E04CE252E40E94FD30C4
:102910000E94D0317B018C0186E891E064E04BE2BB
:10292000262D0E2D0E940D1786E891E061E040E013
:102930000E94091786E891E06DE27BE00E94A11AEF
:102940006091DD017091DE0180E090E040E020E0E8
:1029500005E00E9488136091DB017091DC0180E04A
:1029600090E04CE320E00E9488136091DF017091B9
:10297000E00180E090E045E42DE204E00E9488134D
:1029800086E891E06FEA7CE00E94A11A86E891E077
:1029900061E00E9405171F910F91FF90EF90DF906B
:1029A000CF90BF90AF909F908F907F906F90089541
:1029B00086E891E06FEA7CE00E94A11A88E391E04A
:1029C0000E94461F8823D1F382E491E066E00E94D2
:1029D0005216882339F086E891E061E37EE00E9498
:1029E000A11A08958091DD019091DE01892B19F4DF
:1029F0000E94FE1208950E94D30B0E94DB090E94E0
:102A00002A110E94430A0E941B0B0E94BC100E94C4
:102A1000EC13D4CF88E391E06EEB7AE046E00E94BD
:102A2000DE22823079F083302CF4882399F08130D3
:102A3000E9F405C0833049F08430C1F414C083E068
:102A400090E005C085E090E002C08AE090E00E943E
:102A5000B50906C08091DD019091DE01892B41F01E
:102A60000E94D81408950E94BF0E08950E940C0B76
:102A700008950E940A15089588E391E00E94A9250F
:102A800086E891E061E37EE00E94A11A0E944C106A
:102A90000E940C0B84E690E09093D8018093D701BC
:102AA0009093DA018093D9010895882319F48CB5A5
:102AB000806202C08CB58F7D8CBD08959CB5937FDC
:102AC000982B9CBD08952CB5382F33702C7F322B5A
:102AD0003CBD2DB590E0959587959595879581702E
:102AE0002E7F822B8DBD08958AE061E00E94E32C49
:102AF0008AE061E00E94772C8CB580618CBD8CB53A
:102B000080648CBD8DE061E00E94772C8BE061E0F9
:102B10000E94772C0895FC0181E08083089585E070
:102B200070E00E94172C08956F927F928F929F926F
:102B3000AF92BF92CF92DF92EF92FF920F931F93CB
:102B4000CF93DF93EC0189819A818C0124E0000FFF
:102B5000111F2A95E1F7081B190B85E10E94F52B3F
:102B6000BC01600F711F84E0769567958A95E1F747
:102B70007A8369838881882381F12E813F8162175E
:102B8000730710F4B90106C08885998586179707E1
:102B900008F4BC0100D000D080E090E040E050E0BC
:102BA000E884F98400E010E0AD80BB24CC24DD246F
:102BB0006C80772488249924EDB7FEB761827282F5
:102BC000838294820E94262F6B830F900F900F9028
:102BD0000F9085E070E00E94172CDF91CF911F913C
:102BE0000F91FF90EF90DF90CF90BF90AF909F90AC
:102BF0008F907F906F900895FC018CE39FE093830A
:102C0000828384E0818381E084870895CF93DF937A
:102C1000EC018C8590E08F719070892B69F584E1CF
:102C20000E94F52BAA2797FDA095BA2FBC01CD01D4
:102C30000E94033226EE3FE34EEC50E40E94EC3259
:102C40000E94D5319B01AC017B836A8361157105BC
:102C500089F084E08983B901FE0120E084819581B7
:102C60006817790710F429830AC02F5F3296243041
:102C7000A9F702C08FEF89838C858F5F8C87DF91E6
:102C8000CF910895FC0188E0808389E0818387E00B
:102C9000828386E0838384E0848382E0858381E18C
:102CA0008683089520E0FC01E60FF11D87818130C5
:102CB00009F421E0822F0895E62FF0E0423040F43D
:102CC00020E0E80FF91F878181508E3F88F40FC004
:102CD000E80FF91F87818F3F11F420E009C020E041
:102CE00090E0642F70E00E940134019709F421E024
:102CF000822F08950F931F93CF93DF93EC0110E081
:102D00000FEF888162E00E94772C88810E94162D47
:102D10002F81892B19F42F5F2F8307C0222349F0BD
:102D20002F3F11F41F8201C00F83888160E00E9451
:102D3000772C1F5F2196173021F7DF91CF911F91DC
:102D40000F910895FC01742F643508F05DC047FDB4
:102D50005BC040330CF058C0878D823019F5842F4A
:102D6000859585958595992787FD9095462F5527BB
:102D700047FD509524E530E0829FF001839FF00DE0
:102D8000929FF00D1124E40FF51FE55CFD4F80814B
:102D900090E0272F277002C0959587952A95E2F736
:102DA00080958170972F959595959595462F5527E8
:102DB00047FD5095272F27708823A1F4E4E59E0254
:102DC000F0011124E40FF51FE55CFD4F81E090E078
:102DD00002C0880F991F2A95E2F780952081282349
:102DE00020830895E4E59E02F0011124E40FF51F0D
:102DF000E55CFD4F81E090E002C0880F991F2A95A5
:102E0000E2F72081282B20830895FC01678F60A3BF
:102E10000895FC01678F40A30895AF92BF92CF92AF
:102E2000DF92EF92FF920F931F93CF93DF93EC010A
:102E3000162FF42EE22EAA24402F552747FD509539
:102E40008F2D992787FD9095481B590B57FF03C07D
:102E5000509541955F4F2E2D332727FD3095812FBB
:102E6000992787FD9095281B390B37FF03C03095B4
:102E700021953F4F2417350744F4AA24A3948F2D9E
:102E8000F12E182F802F0E2DE82EE11634F48E2D02
:102E9000E12E182F802F0F2DF82EDE2CD11A202F87
:102EA000332727FD30958F2D992787FD9095281B77
:102EB000390B37FF03C0309521953F4FB22EF016E6
:102EC0001CF0CC24CA9402C0CC24C3948D2DD7FC12
:102ED0008F5F082F059511C0AA2021F0CE016F2D1C
:102EE000412F03C0CE01612F4F2D0E94A2160B1956
:102EF00007FF02C0FC0C0D0D1F5FE1166CF7DF91A0
:102F0000CF911F910F91FF90EF90DF90CF90BF90E6
:102F1000AF9008950F93042F322F262F2150230FA7
:102F20000E940D170F9108950F93362F042F015013
:102F3000020F232F0E940D170F9108959F92AF92B9
:102F4000BF92CF92DF92EF92FF920F931F93CF9396
:102F5000DF936C01B62E942EA02EC0E0D0E0E62EBA
:102F6000FF24E7FCF094022F112707FD10950E0DAA
:102F70001F1D06C0C601492D2A2D0E9494172196B7
:102F80006B2D6C0FCE018E0D9F1D8017910794F352
:102F9000DF91CF911F910F91FF90EF90DF90CF9035
:102FA000BF90AF909F9008958F929F92AF92BF92E3
:102FB000CF92DF92EF92FF920F931F93CF93DF9305
:102FC000EC01B62EC42E122FAA24A394A21A8EEFBF
:102FD000289F802C1124422F4C0DCE010E94A21656
:102FE0004C2D411BCE016B2D0E94A216612F6B0D43
:102FF000CE014C2D0E94A2166B2D611BCE014C2DD3
:103000000E94A216D12EEE2483E0982E42C0A7FC87
:1030100004C0DA9482E0880EA80CE394A90CFE2C7C
:10302000FB0C1D2D1C0DCE016F2D412F0E94A216F1
:103030000B2D0E19CE01602F412F0E94A2161C2DC0
:103040001D19CE016F2D412F0E94A216CE01602FB7
:10305000412F0E94A216FD2CFB0C1E2D1C0DCE0133
:103060006F2D412F0E94A2160B2D0D19CE01602F3E
:10307000412F0E94A2161C2D1E19CE016F2D412F2B
:103080000E94A216CE01602F412F0E94A21682E05C
:10309000980EED140CF4BBCFDF91CF911F910F91DF
:1030A000FF90EF90DF90CF90BF90AF909F908F9068
:1030B00008952F923F925F926F927F928F929F928C
:1030C000AF92BF92CF92DF92EF92FF920F931F9336
:1030D000DF93CF9300D000D000D0CDB7DEB79E8372
:1030E0008D83C62ED42EEE24E394E21A8EEF289F11
:1030F000502C1124842E8A94962E9A94A42EA39454
:10310000B62EB394F22E662423E0722E10E0C8018E
:10311000847090709A838983F801E270F070FC8368
:10312000EB8398E0292E312C20223122017010707F
:1031300054C0E7FC04C0FA94F2E05F0EE50C63941F
:1031400089819A81892B71F04F2D4D0D8D819E8142
:103150006B2D0E94A2166F2D6C0D8D819E814A2DC4
:103160000E94A216EB81FC81EF2B71F04D2D4F19BF
:103170008D819E816B2D0E94A2166F2D6C0D8D810D
:103180009E81482D0E94A2162114310471F06C2DED
:103190006F198D819E814A2D0E94A2164F2D4D0DD3
:1031A0008D819E81692D0E94A2160115110571F075
:1031B0006C2D6F198D819E81482D0E94A2164D2D78
:1031C0004F198D819E81692D0E94A216E70CF2E0B5
:1031D0007F0E8A949A94A394B3946F140CF4A9CF9D
:1031E00026960FB6F894DEBF0FBECDBFCF91DF910C
:1031F0001F910F91FF90EF90DF90CF90BF90AF9015
:103200009F908F907F906F905F903F902F90089548
:103210004F925F926F927F928F929F92AF92BF92E6
:10322000CF92DF92EF92FF920F931F93CF93DF9392
:10323000EC01A62E742E9E2DFF24F394F21A8EEF2D
:10324000289F802C1124B42EBA9453E0C52ECE0CA6
:10325000E22EDD2443E0942E10E031E0432E512C89
:1032600040225122692E63940270107034C0F7FC22
:1032700004C0EA9482E0880EF80CD39441145104FF
:1032800089F06D2D6A0D472D4E192E2D220F260D1A
:10329000CE010E9494176E2D6A0DCE014B2D2C2D60
:1032A0000E9494170115110589F06A2D6D19472D9B
:1032B0004E192E2D220F260DCE010E9494176A2D35
:1032C0006E19CE014B2D2C2D0E949417F90C82E023
:1032D000980EBA94C80EDE1454F2DF91CF911F916C
:1032E0000F91FF90EF90DF90CF90BF90AF909F90A5
:1032F0008F907F906F905F904F900895DF92EF9244
:10330000FF920F931F937C01062FD42E122F421B86
:10331000220F2F5F0E949417C701602F4D2D212F80
:1033200003E0EE240E9408191F910F91FF90EF9087
:10333000DF9008957F928F929F92AF92BF92CF922B
:10334000DF92EF92FF920F931F936C01962EA42EA3
:10335000F22E7E2C760E1EEFE19E102D1124812E72
:10336000820E672D282D0E948A17B02EBA0CBA94AF
:10337000C601672D4B2D282D0E948A17AE0C100F09
:10338000C601692D4A2D212F0E949417F90CFA9439
:10339000C6016F2D4A2D212F0E949417C601672D5B
:1033A0004A2D2E2D01E00E945918FE18C6016F2DDE
:1033B0004A2D2E2D02E00E945918BE18C6016F2D0D
:1033C0004B2D2E2D04E00E945918C601672D4B2D60
:1033D0002E2D08E00E9459181F910F91FF90EF9039
:1033E000DF90CF90BF90AF909F908F907F90089587
:1033F0008F929F92AF92BF92CF92DF92EF92FF9205
:103400000F931F936C01162FA42E922EF02EBE2C1C
:103410008E2C860E2EEFE29EE02C11242E2D290DEF
:10342000682D0E949E17AB0CFA94FE0C1150190DDA
:103430001B19C601612F4A2D2B2D01E0EF2C0E9494
:103440000819C601682D4A2D2B2D02E00E9408198B
:103450001F910F91FF90EF90DF90CF90BF90AF90B2
:103460009F908F9008953F924F925F926F927F92BC
:103470008F929F92AF92BF92CF92DF92EF92FF9284
:103480000F931F93CF93DF934C01362E442EF901F7
:10349000A490319654906F010894C11CD11C8A2DC0
:1034A000992787FD9095079668E070E00E94153493
:1034B000E62EFF24E7FCF09400E0C0E0D0E060E8F6
:1034C000662E712C26C0E12FE595E595E595FF2741
:1034D000E7FDF095EC0FFD1FEC0DFD1DE4912E2F87
:1034E00030E0812F8770A30102C0559547958A95DA
:1034F000E2F724233523232B31F0612F630DC40120
:103500004B2D0E94A2161F5F1A15ECF20F5FCE0D15
:10351000DF1D051524F410E0B02EB40CF5CFDF91BB
:10352000CF911F910F91FF90EF90DF90CF90BF90C0
:10353000AF909F908F907F906F905F904F903F9053
:103540000895DC01FB0184918F5F14968C9314978E
:10355000319684918F5F15968C93159731965E9670
:10356000FC93EE935D9708953F924F925F926F9216
:103570007F928F929F92AF92BF92CF92DF92EF9203
:10358000FF920F931F93CF93DF93EC01862EA42E0F
:10359000422F102F3F8C23E526170CF4ABC03FE2DF
:1035A0003A150CF4A7C0C02EDD248C8190E0019761
:1035B0009C01C29EC001C39E900DD29E900D11240D
:1035C000262F332727FD3095820F931F18161906D3
:1035D0000CF090C08D8190E09C01C29EC001C39E02
:1035E000900DD29E900D11242A2D332727FD309562
:1035F000820F931F181619060CF07CC09924442ED4
:1036000055246DC09C01215030404217530711F4DE
:1036100060E00EC0429EC001439E900D529E900DF0
:103620001124840F951FED8DFE8DE80FF91F649115
:103630004C9DC0014D9D900D5C9D900D1124682CFA
:10364000680EBB24792C780C3FC0E62EFF2460FF67
:1036500019C0113039F44B2D4A0DCE01672D0E944F
:10366000A2162EC02C9DC0012D9D900D3C9D900D4D
:1036700011244A2D480FCE01662D212F012F0E94C3
:103680009E171EC098A18F8D9817D1F09F8F113073
:1036900039F44B2D4A0DCE01672D0E94A2160FC0A2
:1036A0002C9DC0012D9D900D3C9D900D11244A2D07
:1036B000480FCE01662D212F012F0E949E173F8EAD
:1036C000F594E7946E2DB3942B2D332727FD309579
:1036D0008D8190E0281739070CF4B7CF9394492DCA
:1036E000552747FD50958C8190E0481759070CF4F9
:1036F00089CF3F8EDF91CF911F910F91FF90EF9077
:10370000DF90CF90BF90AF909F908F907F906F9001
:103710005F904F903F9008950F93CF93DF93EC010C
:10372000262F6A3049F48D819885899F802D112438
:103730009A85980F9A8726C06D3029F169854A8548
:1037400008850E94B41A9C816885969F402D11249B
:103750008985480F49878F818823A9F0552747FD20
:103760005095699F9001112484E590E0821B930B92
:103770008417950744F49D81699F902D11248A85B3
:10378000890F8A87198681E090E0DF91CF910F91B0
:1037900008951F93CF93DF93EC01162FF8948E8535
:1037A00060E00E94E32C8F8518161CF460E00E94F4
:1037B000E32C1EBD0DB407FEFDCF8EB58F85181608
:1037C0001CF461E00E94E32C7894DF91CF911F916B
:1037D0000895FF920F931F93CF93DF93EC01FF2483
:1037E00000E010E06F2D6064CE010E94C91BCE0185
:1037F00060E80E94C91B8E8561E00E94E32C8F85E2
:1038000018161CF460E00E94E32CF801E55CFD4F03
:1038100090E080818EBD0DB407FEFDCF8EB59F5F19
:1038200031969435B1F78F8518161CF461E00E942B
:10383000E32CF3940C5A1F4F86E0F81699F6CE014C
:1038400060E40E94C91BDF91CF911F910F91FF90FF
:103850000895CF93DF93DC0188EF91E0EBE3F2E092
:10386000EF019C01199221503040E1F719961C920A
:1038700019971A961C92DF91CF910895EF920F93AA
:10388000CF93DF93EC014D876C872E87E88A0F87F3
:1038900081E088878F8F18A28F83CE016FEA7CE04A
:1038A0000E94A11A0E94741581E00E94551585E0BE
:1038B0000E9463158CE00E945E158D8561E00E9478
:1038C000772C8C8561E00E94772C8E8561E00E94C8
:1038D000772C888918161CF461E00E94772C8F855C
:1038E00018161CF461E00E94772C888918166CF475
:1038F00060E00E94E32C6AE070E080E090E00E94CB
:10390000942B888961E00E94E32CEC852E2F3327CD
:1039100027FD3095F901E05AFD4EE491F0E0EE0FFD
:10392000FF1FE45BFD4E859194919C8B8B8B2C58F3
:103930003D4EF90184918A8FED852E2F332727FD87
:103940003095F901E05AFD4EE491F0E0EE0FFF1FD3
:10395000E45BFD4E859194919A8B898B2C583D4E5A
:10396000F9018491898FEF852E2F332727FD30951C
:10397000F901E05AFD4EE491F0E0EE0FFF1FE45B29
:10398000FD4E859194919E8B8D8B2C583D4EF90167
:1039900084918B8FEE852E2F332727FD3095F901EB
:1039A000E05AFD4EE491F0E0EE0FFF1FE45BFD4EA8
:1039B00085919491988F8F8B2C583D4EF90184916D
:1039C0008C8FCE0161E20E94C91BCE0164E10E948E
:1039D000C91B8B8587FF02C08FE78B876B8560686B
:1039E000CE010E94C91BCE0160E20E94C91BCE011C
:1039F0006CE00E94C91BCE010E94E91BDF91CF91B0
:103A00000F91EF900895CF93DF93DC01E0E8F7E7A3
:103A100085919491ED01C75ADF4FAD0141595F4F38
:103A20008150904C09F04EC0E6E9F7E7E491E88355
:103A3000E7E9F7E7E4911496EC931497E8E9F7E7E0
:103A4000E4911596EC931597E9E9F7E78591949140
:103A500017969C938E931697EBE9F7E785919491CF
:103A600019969C938E931897EDE9F7E7E4919B964E
:103A7000EC939B97EEE9F7E7E4919A96EC939A978B
:103A8000EFE9F7E7E491EA01E883E0EAF7E78591F7
:103A900094915D969C938E935C97E2EAF7E785910B
:103AA00094915F969C938E935E97E4EAF7E78591F5
:103AB000949191969C938E939097E6EAF7E785917F
:103AC000949132C08CE3888314961C9214972FEF44
:103AD00015962C93159780E293E017969C938E93FE
:103AE000169784ED93E019969C938E93189781E036
:103AF0009B968C939B979A968C939A97FA01208326
:103B00008CEA9DE05D969C938E935C978EED9DE094
:103B10005F969C938E935E9784E79EE091969C932C
:103B20008E9390978CE39FE093969C938E939297BD
:103B3000DF91CF910895E0E8F7E785919491815066
:103B4000904C51F4DB01EBE8F7E784918D933196CB
:103B500087E7E539F807C9F70895CF92DF92EF922A
:103B6000FF920F931F936217730784F0E20EF31E08
:103B70006E157F055CF44017510744F080E0C00EDD
:103B8000D11E4C155D051CF481E001C080E01F9141
:103B90000F91FF90EF90DF90CF900895EF92FF92FA
:103BA0000F931F93CF93DF937C018C01025B1F4F18
:103BB000C8010E94291CC80168ED70E10E947F2D98
:103BC000C8010E94E91B83E00E9463158CE191E02B
:103BD000EEEFFFE3099584E590E0E80EF91EF701AA
:103BE0001082C80163EB70E10E94CA2DC8010E94D7
:103BF000E91BE701CA54D040CE010E947A16CE01DB
:103C000064E00E945216882339F462E370E080E099
:103C100090E00E94942BF0CFDF91CF911F910F91F4
:103C2000FF90EF9008950F931F93CF93DF93EC01D4
:103C30008C01025B1F4FC80161E040E00E94091740
:103C4000FE01E95AFF4FCE5ADF4F85E59881891B67
:103C5000808326961882C855D040698D613009F45A
:103C60003EC0613028F0888D653008F051C04BC0EF
:103C7000CE0185960E94AE26CE0160E00E948F158F
:103C8000C8010E94291CCA5ADF4F81E08883C655AB
:103C9000D040C80164E171E10E947F2D6A8D7B8D67
:103CA000C8014AE050E00E946D2EC80160E071E159
:103CB0000E947F2DC8010E94E91B83B7817F846029
:103CC00083BF83B7816083BF83B7816083BF8895DB
:103CD00083B78E7F83BF83B78E7F83BF1FC0C059DA
:103CE000DF4F88819981AA81BB818F709070A0700D
:103CF000B0700897A105B10518F4C80167E00CC0C1
:103D0000C80168E709C0882349F06B5FC80104C097
:103D1000882321F0C8016FE20E94A22DDF91CF918C
:103D20001F910F910895AF92BF92CF92DF92EF92C1
:103D3000FF920F931F93CF93DF93EC01CB57DF4F8D
:103D40008881C558D040882309F44AC08C3010F0CF
:103D500010E002C01CE0181BCA5ADF4F81E08883C4
:103D6000C655D0406EE4C62ED12CCC0EDD1EC60149
:103D700060E00E94051753E5A52EB12CAC0EBD1EC8
:103D8000F50100814DE2F42E4F2D401B410F0D5FD8
:103D9000C60160E024E533E0E32E0E94F819C60175
:103DA00061E00E940517F5010081F01AF10E0D5F28
:103DB000C60160E04F2D24E50E949A19C95ADF4FD1
:103DC00084E08993F5018081181B115D1883AB96FF
:103DD00069917991C6010E947F2D888181508883E5
:103DE000DF91CF911F910F91FF90EF90DF90CF90D7
:103DF000BF90AF9008954F925F926F927F928F9293
:103E00009F92AF92BF92CF92DF92EF92FF920F9369
:103E10001F932C01FC01628C738C60947094882435
:103E200099240E946E2B5B016C010E946E2B7B011A
:103E30008C01F201418052800E946E2B460E571E6B
:103E4000A094B094C094D094E094F0940095109510
:103E5000C601B501A80197010E94E233A4019301B4
:103E60000E94E233460E571EC2010E94AF2F1F91DF
:103E70000F91FF90EF90DF90CF90BF90AF909F9009
:103E80008F907F906F905F904F900895AF92BF9208
:103E9000CF92DF92EF92FF920F931F93CF93DF9316
:103EA000EC01EFE7AE2EB12CA80EB91EF501E080B3
:103EB000F180028113810E94602BE61AF70A080B39
:103EC000190B7EE7C72ED12CCC0EDD1EF6018081AA
:103ED00090E0A0E0B0E08E159F05A007B10708F0C4
:103EE00081C08E0106581F4FF80180819181A28107
:103EF000B3810097A105B10509F474C00E94602B3D
:103F0000F6012081620F711D811D911DF5016083F5
:103F1000718382839383FE01E059FF4F80819181F9
:103F2000A281B3810196A11DB11D80839183A283DB
:103F3000B383F80110821182128213820E946E2BC9
:103F4000CA58DF4F688379838A839B83C657D040E2
:103F5000CE010E949415CE010A960E947A16CE01D7
:103F600048960E94061681E032C08E010B5D1F4FFD
:103F7000C8010E94FC26C8010E947327C8010E9444
:103F80005628CE010E94931ECE010E94131E8E0160
:103F9000025B1F4FC8010E94E91BCC5ADF4F88818A
:103FA000C455D040882319F4C8010E94291C0E94DE
:103FB0006E2BC658DF4F688379838A839B8324974F
:103FC00028813981621B730B7A936A9380E0DF91B9
:103FD000CF911F910F91FF90EF90DF90CF90BF9006
:103FE000AF900895C658DF4F88819981AA81BB811F
:103FF000CA57D0400097A105B10541F7B6CF2F921F
:104000003F924F925F926F927F928F929F92AF9268
:10401000BF92CF92DF92EF92FF920F931F93DF93A5
:10402000CF93CDB7DEB768970FB6F894DEBF0FBE5B
:10403000CDBF5C017B876A874C8724E530E0A20E08
:10404000B31ED5011C92ECEAFFEFAE0EBF1E842F0B
:1040500090E0FB01E80FF91F319710825AE0452EDE
:10406000512C4A0C5B1C45E2642E712C6A0C7B1CA3
:104070003EE4C32ED12CCA0CDB1CF4E5FA8320E30A
:1040800029831D821C8232E03B8323E5822E912C02
:104090008A0C9B1C02E5202E312C2A0C3B1CA5010E
:1040A000495A5F4F5E874D87B501685A7F4F788BBD
:1040B0006F87D501A059BF4FBA8BA98B9C8B8B8B77
:1040C00001979E8B8D8BC5010E94461F8823D9F3D3
:1040D000C20163E044E00E945C16882331F0BB819A
:1040E000BF5FBB83C3010E94BF28C20161E044E0FF
:1040F0000E945C16882331F0EB81E150EB83C30111
:104100000E94BF28C20162E044E00E945C1688233E
:1041100031F0FC81FF5FFC83C3010E94BF28C20114
:1041200060E044E00E945C16882331F02C8121502D
:104130002C83C3010E94BF283C81303111F41C82C2
:1041400005C04C814F3F11F45FE05C836B816830A8
:1041500011F41B8205C07B8177FF02C087E08B834F
:10416000AC81BB27A7FDB095B987A887D401EC9196
:104170002B81332727FD30953F832E83D1018C91EE
:1041800090E08095909528853985AC01249FC001E9
:10419000259F900D349F900D1124895D992787FDEF
:1041A00090955A81252F332727FD3095820F931F35
:1041B00062E070E00E9415346A8384E18E1BF0E0B7
:1041C000E095F0956E817F816E9F90016F9F300D1D
:1041D0007E9F300D1124820F992787FD909579815C
:1041E000272F332727FD3095820F931F62E070E061
:1041F0000E9415346983C20164E00E94521688232C
:1042000099F18D81282F332727FD3095AD89BE89FF
:104210002A173B07BCF48E819F8114E0880F991FF9
:104220001A95E1F7BC818B0F09F44DCF8A3009F460
:104230004ACF8D3009F447CFEA85FB85E20FF31FA3
:1042400080831182ED81EF5FED83C3010E94B3286B
:10425000FD818F2F992787FD90952B893C89281701
:10426000390714F43C853D83C20165E00E94521673
:104270008823A9F04D8141504D83C3010E94B92884
:104280005D8157FF02C01D820AC06D81E62FFF27A6
:10429000E7FDF0958A859B85E80FF91F1082C20122
:1042A00066E00E945216882309F442C0C3010E94AE
:1042B000B328C5010E94461F8823D9F3C60164E4D0
:1042C00071E10E94CA2DC6016A857B850E94DD2EA0
:1042D000C60163E371E10E94CA2DC20164E00E943D
:1042E00052168823E1F0C3010E94B32868960FB6E6
:1042F000F894DEBF0FBECDBFCF91DF911F910F911C
:10430000FF90EF90DF90CF90BF90AF909F908F90F5
:104310007F906F905F904F903F902F900895C201D3
:1043200065E00E945216882321F2C3010E94B92839
:10433000EE24FF2410E033C0D1018C9190E001966F
:10434000EF89F88D9C01E29FC001E39F900DF29FE1
:10435000900D11246A81680FD4018C9190E0019630
:10436000FC01EE9EC001EF9E900DFE9E900D11246B
:104370004981480F2F89210FC60101E00E94B41A1C
:104380002F89388D2F5F3F4F388F2F8B203131058C
:1043900099F60894E11CF11C105F103819F0188E82
:1043A0001F8ACACFD1018C91BAEF8B9F802D112427
:1043B0008250EA818E0FAD85BE858C93F401808199
:1043C0008F5FF9818F0FAF85B8898C93C6016DE23D
:1043D00071E10E947F2DF1018081FAEF8F9F802D86
:1043E000112482502A81820FAD85BE858C93F40101
:1043F000808190E00196880F991FF9818F0FAF851A
:10440000B8898C93C60167E271E10E947F2DF101AA
:104410008081FAEF8F9F802D112482502A81820F94
:10442000AD85BE858C93F401208130E02F5F3F4F36
:10443000C901880F991F820F931FF9818F0FAF85D4
:10444000B8898C93C60161E271E10E947F2DC6019B
:1044500060E00E940517F101808190E001962885B7
:104460003985289FB001299F700D389F700D112448
:1044700061503A81630FD4018C9190E00196EE81F6
:10448000FF81E89FA001E99F500DF89F500D112476
:104490004250F9814F0FC60127E00E948A17C601DA
:1044A00061E00E940517D1012C91822F90E0F40168
:1044B0000081019648855985489F7001499FF00CFD
:1044C000589FF00C11245EEFE50E6A81E60E402F36
:1044D00050E04F5F5F4FAE81BF81A49FF001A59F69
:1044E000F00DB49FF00D1124E350B981EB0F2E5F56
:1044F000029762E070E00E941534280F0B5FC6013E
:104500006E2D4E2FF3E0EF2E0E949A19F401808158
:104510004EE2481BC60160E024E50E948A17C601EE
:1045200060E00E940517D4010C914FE2401B0F5F21
:10453000C60160E024E50E949E17ED85FE8510828D
:10454000D4018C91B0E3B81BEF85F889B083C60124
:1045500061E00E940517C6016A857B850E94DD2EF9
:10456000E989FA8980819181A281B38187709070F5
:10457000A070B0700497A105B10508F0A4CDFD812D
:104580002F2F332727FD30954D895E892417350756
:104590000CF099CDD1018C9190E0289FB001299F1A
:1045A000700D389F700D1124F401808140E3481B89
:1045B000C6012FE501E00E94B41A85CD2F923F92EB
:1045C0004F925F926F927F928F929F92AF92BF9223
:1045D000CF92DF92EF92FF920F931F93DF93CF93CF
:1045E000CDB7DEB762970FB6F894DEBF0FBECDBF72
:1045F0006C016C837D834B8324E530E0C20ED31EB7
:10460000F60110822CEA3FEFC20ED31E1AE0A12E53
:10461000B12CAC0CBD1CB5E22B2E312C2C0C3D1C4E
:10462000AEE44A2E512C4C0C5D1C1A823FEF3983AC
:1046300010E0F0E37F2E6624A601495A5F4F5F83A6
:104640004E83C601885A9F4F99878887F601EA5A98
:10465000FF4FFB87EA8796012B5A3F4F3D872C87F8
:10466000E3E58E2E912C8C0C9D1C5B81452F50E038
:104670005F874E878B818150888BC6010E94461FC1
:104680008823D9F3C50164E00E945216882369F497
:10469000C50165E00E945216882339F4C50166E021
:1046A0000E945216882309F4D3C0F4010081C50189
:1046B00064E00E945216882329F0C1010E94B328A9
:1046C0001983CBC0C1010E94B928C7C0C50163E0EE
:1046D00044E00E945C16882321F01F5FC1010E9404
:1046E000BF28C50161E044E00E945C16882321F0E8
:1046F0001150C1010E94BF28812F992787FD9095F5
:104700002E853F858217930711F410E002C017FD34
:104710001889F4018081819F902D11248C5F682E6F
:10472000691A28C0872D992787FD9095262D332754
:1047300027FD3095821B930B0297D4F489816296F2
:104740000FB6F894DEBF0FBECDBFCF91DF911F91A2
:104750000F91FF90EF90DF90CF90BF90AF909F9020
:104760008F907F906F905F904F903F902F90089523
:10477000F1E0FA83862D992787FD9095272D332721
:1047800027FD3095820F931F62E070E00E94153480
:10479000762EEE81FF811082E885F985608321E025
:1047A000EA85FB852083EC85FD8510822C813D8187
:1047B000C9019A8B898B00E0E12EFF24E7FCF0947D
:1047C00020C0802F90E08E159F0569F423E0EE81D4
:1047D000FF812083F40180818E9D802D1124870D1F
:1047E000E885F9858083E989FA8965917491C20128
:1047F0000E94CA2D0F5F29893A892E5F3F4F3A8B5D
:10480000298B3B810317E8F2C20160E00E94051783
:10481000F40140814E9D402D11244150470DC201AD
:1048200060E024E50E948A17C20161E00E9405173A
:10483000F40100810E9D402D11244250470D0D5F63
:10484000C20160E024E573E0E72E0E949A1915CFBB
:10485000FA81FF2309F066CF39CF802F90E0909541
:1048600081959F4F2E853F85AC01249FC001259FD8
:10487000900D349F900D11246EEF662E680E52CF6E
:104880002F923F924F925F926F927F928F929F9260
:10489000AF92BF92CF92DF92EF92FF920F931F934E
:1048A000DF93CF93CDB7DEB72B970FB6F894DEBF6B
:1048B0000FBECDBF9B878A877A8369835C834B83D6
:1048C0008C0101591F4FF8018081882309F422C10E
:1048D0008A859B858A5A9F4F9B878A8781E0EA85D4
:1048E000FB85808312921292E455F040FB87EA87A1
:1048F000108E9EE4E92EF12CEE0EFF1EC70161E042
:104900000E9405178AE0282E312C8A859B85280E67
:10491000391EB5E26B2E712C680E791EE981FA8181
:10492000F491FD83A7E58A2E912C880E991EF8E557
:10493000CF2ED12CC80ED91EE2E54E2E512C480E9A
:10494000591E8D5A9F4F9F838E8370E7A72EB12CDF
:104950008A859B85A80EB91E198708878A859B853D
:104960000E94461F8823D1F39D81992311F410E002
:1049700003C0EE81FF811081C70160E040E021E5C6
:1049800031E10E94331A8B819C81892B41F0145FA5
:10499000C70160E0412F2B813C810E94331AF40152
:1049A00010828CE0F6018083C70169817A810E94C0
:1049B0007F2DF201208130E0C901880F991F820FFD
:1049C000931F909581959F4F8D5AF4018083EE81BE
:1049D000FF81208130E0C901880F991F820F931F4A
:1049E000909581959F4F835DF6018083F5018081CD
:1049F00084FF04C0C70161ED71E103C0C7016DEC24
:104A000071E10E94CA2DF201208130E0C901880FB6
:104A1000991F820F931F909581959F4F8D5AF40196
:104A20008083F60180818F5F8083EA85FB8582A584
:104A3000882321F0C70169EC71E103C0C70165EC6F
:104A400071E10E94CA2DF201808190E09C01220F49
:104A5000331F280F391F309521953F4F2D5AF401F0
:104A60002083F60180818F5F8083C70161EC71E153
:104A70000E94CA2DC10165E00E945216882351F0A0
:104A8000EA85FB8562A56F5FC3010E94C528C3014B
:104A90000E94BF28C10164E00E945216882399F445
:104AA000E885F9856081262F30E040E050E0F5018F
:104AB00080819181A281B38182179307A407B507F2
:104AC00008F16F3FF9F08A859B8581599F4F9B873D
:104AD0008A878FEFEA85FB858083EF56F040FB875E
:104AE000EA87C30160E00E94A326C3010E94B328A5
:104AF00081E0EA85FB85808F0DC08A859B850E94B9
:104B0000CE1D2CCFC10166E00E945216882309F405
:104B100025CFF3CF2B960FB6F894DEBF0FBECDBFD7
:104B2000CF91DF911F910F91FF90EF90DF90CF9089
:104B3000BF90AF909F908F907F906F905F904F90BD
:104B40003F902F900895AB0166ED71E10E944024E3
:104B50000895AF92BF92CF92DF92EF920F93CF93CF
:104B6000DF936C018EE790E0C80ED91E82E3F60158
:104B7000808381E090E0A0E0B0E0B293A2939293B2
:104B800082936F0185EF9FEFC80ED91E8FEFF6015C
:104B9000808381E99FEFC80ED91EC6010E94031DC4
:104BA000C6010E948B15C6016FEF0E948F154AE067
:104BB000A42EB12CAC0CBD1CC5010E944216C5012F
:104BC0000E947A16C60148960E94FC15C601825BB7
:104BD0009F4F6DE04BE020E10FE03EE0E32E0E94AE
:104BE0003E1CE601A596CE010E94D228C50165E0D3
:104BF0000E945216882329F0CE0160E00E94C52849
:104C000006C0CE0167ED71E140E00E94B226DF915F
:104C1000CF910F91EF90DF90CF90BF90AF9008951C
:104C20000F93DC01002309F069C0623009F443C02E
:104C3000633030F4662359F0613009F05FC00DC075
:104C4000633009F444C0643009F058C04CC04B30A4
:104C500008F04AE056964C9351C0842F90E0880F9C
:104C6000991F1F962D913C915097280F391FF901DC
:104C70008591949190969C938E935F97FC014591BA
:104C8000549114968C911497849F602D11249196C1
:104C90006C939197252F3327862F90E0281739079B
:104CA00008F4652F14968C911497689F802D112419
:104CB00092968C9323C014968C911497489F802DC4
:104CC000112459968C9359975A962C9317C0149681
:104CD0008C911497489F802D11245B968C935B9741
:104CE0005C962C930BC014968C911497489F802D42
:104CF00011245D968C935D975E962C930F91089589
:104D0000FC01222371F4648B8481489F802D11243F
:104D1000858B15A214A213A281E0878B80933404A3
:104D2000108E0895FC01662369F4178A158A14A26F
:104D300013A2108E1092370410923604109234048D
:104D40001092B4000895CF93DF93EC01662319F419
:104D50000E9492261982DF91CF91089560E00E940F
:104D6000A32608950F931F93CF93DF93EC018B013C
:104D7000442371F460E00E94A3261E870D871B8ADE
:104D80001A8A81E0898389E08E8B198E1B8E1D8E95
:104D9000DF91CF911F910F910895CF93DF93EC0195
:104DA000662339F58881882321F18981882309F5D3
:104DB000898590E0880F991FEF81F885E80FF91F2A
:104DC000859194912FEF8F3F920711F4188211C0B3
:104DD0009C8790E0880F991FEA85FB85E80FF91FF3
:104DE00065917491CE0140E00E94B22689858F5F63
:104DF0008987DF91CF91089560E00E94CD260895C4
:104E00000F93CF93DF93EC01662309F068C089818B
:104E1000882309F464C08D89882309F060C0EA8979
:104E2000FB89EE0FFF1F4D855E85E40FF51F259171
:104E300034912115310509F040C08989813031F460
:104E40001B8A1A8AFA012591349137C01982888108
:104E5000882379F0CE0160E00E94CD268A899B8963
:104E6000880F991FED85FE85E80FF91F2591349174
:104E700024C0CE0160E00E94922631C0E6E0369563
:104E80002795EA95E1F76F70422F4F7175E03695DF
:104E900027957A95E1F72051CE0100E00E94102677
:104EA0008A899B8901969B8B8A8B880F991FED8538
:104EB000FE85E80FF91F25913491B9017695679524
:104EC0007695679520FDDACF6F73432FCE0120E0F2
:104ED0000E9480268A899B8901969B8B8A8BDF9111
:104EE000CF910F91089560E00E9400270895CF931D
:104EF000DF93EC01662309F0D6C08F89882309F47B
:104F0000D2C08D89882321F4CE010E949226CBC085
:104F100081508D8B8DA1882309F03BC08BA19CA172
:104F20000196880F991FEF8DF8A1E80FF91F859161
:104F30009491282F27702EA3AC0163E056954795D6
:104F40006A95E1F79A0136952795892F99278695D5
:104F500086958FA32F738C81289F202D11242DA33C
:104F60004170409338048BA19CA101969CA38BA314
:104F700029A130E08217930760F08AA1882329F0E5
:104F8000281B31093CA32BA304C0CE0160E00E9482
:104F900092268DA181508DA3988D9F5F988F2FA110
:104FA0008C89280F8C85280F2A836B8D662369F0E6
:104FB000892F992787FD909570E00E9415348C8D7C
:104FC000869F802D1124820F8A838A8190E0CB9660
:104FD0006BE370E00E9415348A832E892B83698DE0
:104FE000662379F0888D772767FD7095992787FD6F
:104FF00090950E9415348A8D869F802D1124820FF2
:105000008B836D8D662399F0888D992787FD909508
:1050100070E00E941534CB0162E070E00E9415340C
:105020009E8D899F802D11249B81890F8B838B817D
:105030008A300CF089E087FD80E08B838C898F3388
:1050400009F41B82F894EA81F0E0E550FE4EE49109
:10505000E09335042D8130E08B81992787FD909571
:10506000A901489F9001499F300D589F300D112490
:1050700088A590E0A901489F9001499F300D589F55
:10508000300D11248EA1992787FD9095AC01249FA6
:10509000C001259F900D349F900D112480933604FC
:1050A000809337047894DF91CF91089560E00E9457
:1050B0007727089560913604662381F18091330447
:1050C0008F5F8093330490913504891738F130E075
:1050D00080913404882309F431E030933404109231
:1050E0003304809138048823A9F08091290123E4B6
:1050F000829FC0011124895B8093290190E070E0B8
:105100000E9401348093370405C080913704809356
:10511000B40008953323C9F780E0F9CF08951F92B2
:105120000F920FB60F9211242F933F934F935F93DB
:105130006F937F938F939F93AF93BF93EF93FF935F
:105140000E945A28FF91EF91BF91AF919F918F914B
:105150007F916F915F914F913F912F910F900FBE73
:105160000F901F90189563EF71E140E00E94B22606
:1051700008956BEE71E140E00E94B226089565EE5D
:1051800071E140E00E94B2260895FC01862F6681FD
:1051900070E06F5F7F4F992787FD90950E941534CF
:1051A000858308950F93FC0181E0848384E080A7C8
:1051B00086E392E1908B8787CF0161E040E020E0B9
:1051C00000E00E94102683E061E070E00E94172C4E
:1051D000E1EBF0E08081887F81608083F894109219
:1051E0008000E1E8F0E010821092850010928400C7
:1051F00088E191E0909389008093880080818860A5
:105200008083808181608083EFE6F0E0808182602E
:10521000808378940F910895F999FECF72BD61BD96
:10522000F89A80B50895F999FECF1FBA72BD61BD95
:1052300040BD0FB6F894FA9AF99A0FBE08950F93ED
:105240001F93CF93DF93BC018230910510F462E08D
:1052500070E0E0914304F0914404A0E0B0E040E04D
:1052600050E024C08081918186179707D0F086177F
:10527000970771F482819381109729F013969C937C
:105280008E9312972CC0909344048093430427C0BC
:105290004115510519F08417950718F4EF018D0198
:1052A000AC01DF01828193819C01F9013097D1F635
:1052B00041155105F9F0CA01861B970B8430910501
:1052C00080F48A819B810115110521F0F8019383F7
:1052D000828304C09093440480934304FE01329679
:1052E0002FC0FE01E80FF91F619371930297998314
:1052F000888326C08DB79EB78857904020912A0199
:1053000030912B0128173907C8F4AC01421B530B0D
:105310004617570798F0CB0102964817590770F0C7
:10532000820F931F90932B0180932A0190932D015C
:1053300080932C01F9016193719302C0E0E0F0E0E9
:10534000CF01DF91CF911F910F910895CF93DF93FC
:105350009C01009709F48FC0EC0122971B821A82EE
:1053600060914304709144046115710581F4888152
:105370009981820F931F20912A0130912B012817C8
:10538000390739F5D0932B01C0932A0174C0DB0192
:1053900040E050E0AC17BD0708F1BB83AA83FE01D3
:1053A00021913191E20FF31FAE17BF0779F48D9170
:1053B0009C911197280F391F2E5F3F4F3983288307
:1053C00012968D919C9113979B838A834115510569
:1053D00071F4D0934404C09343044DC012968D9150
:1053E0009C911397AD01009711F0DC01D3CFDA0146
:1053F0001396DC93CE931297FA0121913191E20F2B
:10540000F31FCE17DF0769F488819981280F391FB0
:105410002E5F3F4FFA01318320838A819B819383E2
:105420008283E0E0F0E0DB0112968D919C9113976E
:10543000009719F0BC01FD01F6CFAB014E5F5F4F45
:10544000DB018D919C91840F951F20912A01309151
:105450002B012817390779F4309729F41092440466
:105460001092430402C01382128242505040509363
:105470002B0140932A01DF91CF9108956F927F9283
:105480008F929F92AF92BF92CF92DF92EF92FF9254
:105490000F931F93CF93DF938C01009729F4CB01D7
:1054A0000E941F298C01B4C08EEFE82E8FEFF82EDA
:1054B000E00EF11E5801A60EB71EAE14BF0408F48C
:1054C000A5C0D7014D915C91119746175707B8F0C9
:1054D0004530510508F49CC0CA0104978617970708
:1054E00008F496C042505040461B570BF5014193BB
:1054F00051936D937C93CF010E94A62989C04B01E3
:10550000841A950A3801640E751EA0914304B09167
:105510004404CC24DD24E0E0F0E047C0A615B70544
:10552000A9F5CD91DC911197CE01029688159905C8
:1055300068F1CE0188199909029612962C9112975A
:1055400013963C91059758F0F50122833383C819CF
:10555000D909D183C083D7016D937C9309C04E5F75
:105560005F4F4C0F5D1FF70151834083C901FC0160
:10557000C114D10431F0D6011396FC93EE93129727
:1055800047C0F0934404E093430442C08D919C9142
:105590001197E817F90708F4FC016D0112968C9138
:1055A000129713969C919C01D901109709F0B6CFE0
:1055B00080912A0190912B0186159705B1F4E61789
:1055C000F70798F48DB79EB788579040A816B9068C
:1055D000E8F4B0922B01A0922A01B0922D01A09282
:1055E0002C01F7017183608313C0CB010E941F2936
:1055F000EC01009759F0D7014D915C91B8010E94E0
:10560000CC34C8010E94A6298E0102C000E010E03F
:10561000C801DF91CF911F910F91FF90EF90DF9024
:10562000CF90BF90AF909F908F907F906F90089594
:105630001F920F920FB60F9211242F933F938F93C7
:105640009F93AF93BF9380913E0490913F04A091AC
:105650004004B0914104309142040196A11DB11D56
:10566000232F2D5F2D3720F02D570196A11DB11D41
:105670002093420480933E0490933F04A0934004FF
:10568000B093410480913A0490913B04A0913C0472
:10569000B0913D040196A11DB11D80933A049093F1
:1056A0003B04A0933C04B0933D04BF91AF919F9104
:1056B0008F913F912F910F900FBE0F901F901895D3
:1056C0008FB7F89420913E0430913F0440914004FC
:1056D000509141048FBFB901CA0108959FB7F89452
:1056E00020913A0430913B0440913C0450913D0498
:1056F00086B5A89B06C08F3F21F02F5F3F4F4F4FCD
:105700005F4F9FBF542F432F322F2227280F311D69
:10571000411D511D82E0220F331F441F551F8A95E2
:10572000D1F7B901CA010895EF92FF920F931F9329
:10573000CF93DF937B018C010E946E2BEB010EC097
:105740000E946E2B6C1B7D0B685E7340C8F308943F
:10575000E108F10801091109C851DC4FE114F10415
:105760000105110569F7DF91CF911F910F91FF900E
:10577000EF900895789484B5826084BD84B581608B
:1057800084BD85B5826085BD85B5816085BDEEE649
:10579000F0E0808181608083E1E8F0E01082808128
:1057A00082608083808181608083E0E8F0E0808196
:1057B00081608083E1EBF0E0808184608083E0EBB6
:1057C000F0E0808181608083EAE7F0E0808184609E
:1057D00080838081826080838081816080838081FA
:1057E000806880831092C1000895982F8E3008F051
:1057F0009E50977080912E018295880F880F807C33
:10580000892B80937C0080917A00806480937A0059
:1058100080917A0086FDFCCF20917800409179003C
:10582000942F80E030E0282B392BC90108951F9375
:10583000CF93DF93182FEB0161E00E94772C209724
:1058400009F44AC0CF3FD10509F449C0E12FF0E087
:10585000E857FD4E84918330C1F0843028F48130C4
:1058600051F08230B1F50CC0863019F1873049F122
:10587000843079F514C084B5806884BDC7BD33C059
:1058800084B5806284BDC8BD2EC0809180008068D0
:1058900080938000D0938900C093880024C08091B9
:1058A0008000806280938000D0938B00C0938A0038
:1058B0001AC08091B00080688093B000C093B3009C
:1058C00012C08091B00080628093B000C093B40099
:1058D0000AC0C038D1051CF4812F60E002C0812FBE
:1058E00061E00E94E32CDF91CF911F910895CF9347
:1058F000DF93482F50E0CA018C589D4EFC01349133
:10590000405A5D4EFA018491882369F190E0880F36
:10591000991FFC01EE5BFD4EA591B491FC01E45B87
:10592000FD4EC591D491662351F42FB7F8948C9114
:10593000932F909589238C93888189230BC06230A3
:1059400061F42FB7F8948C91932F909589238C93C1
:105950008881832B88832FBF06C09FB7F8948C91D2
:10596000832B8C939FBFDF91CF910895833071F08B
:10597000843028F48130A1F0823021F514C08630C3
:10598000B1F08730D1F08430E9F404C08091800018
:105990008F7703C0809180008F7D80938000089571
:1059A00084B58F7702C084B58F7D84BD08958091C2
:1059B000B0008F778093B00008958091B0008F7D04
:1059C0008093B0000895FF920F931F93F62E482FF7
:1059D00050E0CA0188579D4EFC012491CA018C58A1
:1059E0009D4EFC011491405A5D4EFA010491002332
:1059F000C9F0222319F0822F0E94B62CE02FF0E08C
:105A0000EE0FFF1FE45BFD4EA591B4919FB7F89494
:105A1000FF2021F48C911095812302C08C91812B61
:105A20008C939FBF1F910F91FF9008950F931F9329
:105A3000482F50E0CA0188579D4EFC012491CA01AD
:105A40008C589D4EFC010491405A5D4EFA01149110
:105A5000112319F420E030E015C0222319F0822F21
:105A60000E94B62C812F90E0880F991F8A5A9D4E74
:105A7000FC01A591B4918C9120E030E0802311F0DD
:105A800021E030E0C9011F910F910895CF93DF937A
:105A90000E94BA2B0E943C15C0E0D0E00E9439154C
:105AA0002097E1F30E940000F9CFCF92DF92EF92AE
:105AB000FF920F931F93CF93DF937C016B018A01B9
:105AC000C0E0D0E00FC0D6016D916D01D701ED911E
:105AD000FC910190F081E02DC7010995C80FD91FF5
