:100000000C945E090C9486090C9486090C9486095C
:100010000C9486090C9486090C9486090C94860924
:100020000C9486090C9486090C9486090C94182A61
:100030000C9486090C9486090C9486090C94860904
:100040000C94A12C0C9486090C9486090C948609B6
:100050000C9486090C9486090C9486090C948609E4
:100060000C9486090C94860905A84CCDB2D44EB9DF
:100070003836A9020C50B9918688083CA6AAAA2A4B
:10008000BE000000803F00007F1F030020203E00D4
:100090002F5E5674002A235D39050E3E715D06629F
:1000A000236E2C036F31773C032F5E7F7F04FFFFAD
:1000B000FFFFFFFFFFFFFFFFFFFFFFFFFFFF8FFFC0
:1000C000FFFF80007FFFE0000007E0FFFFFF8000F0
:1000D000000000000000007BDDE7EE0000FFFDFFF8
:1000E000C0001FFE0000077BDDE7EF007EFFF9FF89
:1000F0008FE7803E7FF3E77BDDE7EF7F7EFFFBFF4F
:100100001FE780307FF3E70001E7E07F7EFFFBFE23
:100110003FE7FF307FF3E77BDDE7FFFF7EFFFBFC80
:100120007FE7FF337FF3E77BDDE03FFF7CFFFBF8FA
:10013000E007FF337FF3E77BDDE780FF01FFFBF1A3
:10014000C7E7C0337FF3E70001E7BEFF7FFFFBE3B4
:100150008FE7DF336023E7FFFFE7BEFF7FFFFBE7AB
:100160001FE7DF336F83E70000E03EFF7E0FFBE613
:100170003FE7DF336F87E70000E7FEFF7C07FBE424
:100180000003DF336FBFE73F9E67FEFE7803E0E0CA
:10019000DBD81F336FBFE73F1F603EFCF003E0E199
:1001A000DBDBC0000000003E3F678001E043E4E786
:1001B000D99BFF03F800007C7F67BFFFC0C3E0E767
:1001C000D99BFFCFF9FFFFF8FF603FFF81C3E0E756
:1001D000DDBBFFCE01FFC001FF67FFFF03C3FBE7ED
:1001E000DDBBFC00F9FFC003FF67FFFE07C3FBE7B1
:1001F000C003F80FF9FFCFFFFF07FFFE0FC3FBE7B8
:10020000FCFFF0FFF8000FFFFFD300001FC3FBE768
:10021000FCFFF3FFF8000FFFFFD000003FC3FBE738
:10022000FCFFF3FFF9FFE7FFFFD078007FC3F8077B
:10023000FCFFF3FFF9FFF7FFFFDCF800FFC3FBE76C
:10024000FCFFF200000000000004F9FFFFC3E3E33D
:10025000FCFFF200000000000004F1FFFFC38FF379
:10026000FCFFF27FFFFEFCFFFFE4E3FFFFC3BFF1F3
:10027000FCFFF27FF000FCFFFFE487FFFFC3BFF845
:10028000FCFFF27FF7FF8CFFE0641FFFFFC39FFCC2
:100290007CFFF27FF7FFAC0000643FFFFFC3DFFE8F
:1002A000000002000701A4000664FFFFFFC3C000B6
:1002B000000000000001B7EFFE64F801FFC7FFFF78
:1002C000E7FFB07F7039B0000264F0007FC7FFFF26
:1002D000C7FFB6417F399FBFFA04E3FC7FC7FFFF2A
:1002E0008FFFB65D00381C3F8A04E7FE7FC7FFFF23
:1002F0001FFFB65D003801002264CFFE7FC7FFFEFE
:100300003FFFB65D3F3FFBEFBE64CFFE7F87FFFC44
:100310007FFFB2513E00FA2FBE64CC067F87FFF804
:10032000FFFFBA513E7EF8AFBE64CD567F87FFF126
:10033000FFFFBA513E7EFDAF8064CD567F0FFFE3D5
:10034000FFFFBA5F3E70018F8064C5563F0FFFC349
:10035000FFFFBA5F3E7000003FE4E5571E0FFFC38A
:10036000FFFF8A403E73FFFFFFE4E007840FFFC3F7
:10037000FFFFAA403E03FFE00004E1FFC01FFFC3F0
:10038000FFFFAA7FBE03FFE00004F0FFE01FFFC3F2
:10039000FFFFAA7FBFF007E7EEFCFC3FFC1FFFC397
:1003A000FFFFAA7FBFFFF7E7EE00FE0FFE1FFFC3B0
:1003B000FFFFA2603FFFF7E70EFCFF87FE0FFFC3C2
:1003C000FFFFBE6FFFFFF3E77E0CFFE1FF0FFFC3F0
:1003D000FFFFA06FE000FBE700AC01F1FF0FFFC3E0
:1003E000FFFF806FEFFEFBE77FA001F98387FFC36C
:1003F000FFFF8E6FEFE003E77FBDF8F9BB87FFC318
:10040000FFFF9E60000FFFE4001DFC7983C3FFC364
:10041000FFFF9E7FEFFFFFE5F7D9FC783BE1FFC3CD
:10042000FFFF9E7FEFFFFFE5F7DBFE7983E1FFC370
:10043000FFFF9E7FEFFFFFE5F7DBFE79BBE1FFC328
:10044000FFFF827FEFFFFFE4F01BFE7983C3FFC352
:10045000FFFFBA0000000006F7FBFE79BBC3FFC335
:10046000FFFFBA0000000006F7F9FE798387FFC39B
:10047000FFFFBBFFFFFFEFFE03FDFE79DF0FFFC3B2
:10048000FFFFB801FE00EFC6F8040079DE1FFFC2CF
:100490000000000000000000FFF00079DC3FFFC218
:1004A00000003FFC00FF0010FFFFFE781C3FFFC272
:1004B000FFE79FFFFFFF3F79FFFFFE79FC3FFFC291
:1004C000FFE7CFFFC0FF3C79FFFFFE79FC3FFFC293
:1004D000FFE7E3FF9EFF30F9FFFFFE79FC3FFFC21D
:1004E000FFE1F8003EFF37F9FFFFFE79FC3FFFC256
:1004F000FFE0FFFF9E000000007FFE79FC3FFFC28F
:10050000FFE43FFFC0000000007FFE79FC3FFFC218
:10051000FFC70FFFFCFF37F9DE7FFE79FC3FFFC20C
:10052000FFCF83FFFCFF3079DE7FFE71FC3FFFC20F
:10053000FFCFE07FFCFF3F79DE7FFC01FC3FFFC285
:1005400007CFF83FFCFF000000000007FC3FFFC39F
:10055000F7CFFF1FFCFF0000000000BFFE1FFFC31E
:10056000F000000000003F79FE7FFFBFFE1FFFC3C9
:10057000C000000000003F79FE7FFFBFFF0FFFC3F8
:1005800083D79EBCFCFF3C79027FFFBFFF0FFFC2F9
:1005900007D79EBCFCFF38F87807FFBFFF0FFF00AE
:1005A00027D79EBCFCFF3BF9FE63FFBFFF0FFE0099
:1005B000E7D79EBCFC003BF9FE71FFBFFF87FC4301
:1005C000E7D79EBC000000000078FF3FFF87F8C31C
:1005D000E7D79EBCFF5F0000007C7F7FFF87F1C3F1
:1005E000E7D79EBCFF5F9F7BB73E3F7FFF87E3C39C
:1005F000E7D79EBCFF5F9F7BB79F1F7FFF87C7C367
:10060000E7D79EBCFF5F9F7BB78F9F7FFF87CFC3DE
:10061000E7D79EBCFF5F9E7BB7C3DE3FFF87CFC39C
:10062000E7D79EBCFF5F9EFBB7F3DC1FFF87CFC3FE
:10063000E000000000001EFBB7F801DFFF87CFC31A
:10064000E0000000000000000001FFC00007C04300
:10065000FFFF1FFFFFFF9FFFFFFFFF000007CC43CF
:10066000FFFF3FFFFFFF81FFFFFFFC00000FCC43B8
:10067000FFFF3FFFFFFFE07FFFFFFC00001FCFC336
:10068000FFFE7FFFFFFFF83FFFFFF83FFFFFCFC3F5
:10069000FFFC7FFFFFFFFE3FFFFFF0FFFFFFCFC329
:1006A000FFFCFFFFFFFFFF1FFFFFE1FC0001CFC3C7
:1006B000FFF0FFFFFFFFFF9FFFFFE1E1FFDDC04312
:1006C000FFE1FFFFFFFE1F9FFFFFE1EFFFDDCC43D8
:1006D000FFE3FFFFFFFE0F9F03FFE1EFC01DCC43D1
:1006E000FFE7FFFFFFFECF9E03FFE1EF9FFDCFC3BC
:1006F000FF800000FFFE8F9E33FFE1E03FFDCFC390
:10070000FF0000000FFE800033FFC3EF8001CFC366
:10071000FE00000007FE9F8003FF83EFBCFBC7C302
:10072000FC00000007FE1F9F07FF07EFBCFBE3C3B1
:10073000F83CFFFF83FFFF9FFFFE07E03C1BF1C378
:10074000F07C7FFF81FFFF9FFFFC07FDFC0BF9C1E1
:10075000E0FE3FE1C0FFFF9FFFF821FDF8CBF9E08D
:10076000C1FF1FEDE07FFF9FFFF070FDE0C3F9F0D8
:1007700003FF83EDE01FFF9FFFC0F83D87CFF9F82F
:1007800007FFC0EDF003FF9FFE01CE0D0FCFF9FC78
:100790000FFFF80018007F9FFC03C7843F8FF9FE0E
:1007A0001F80FE6FDF0000000007D7E0BF1FF9FFCA
:1007B000FF3EFE6FDFE00000003F87E3BE3FF9FF32
:1007C000FC7EFE6000FC000001FE37E7BC7FF9FF05
:1007D000F9FEFE7FFEFE000003F873E73CFFF9FC24
:1007E00003C0000002FFFF9FFFE1FBE77CFFF9FD74
:1007F000FF8000007AFFFF9FF807FBE77CFFF87D92
:10080000FF9EFFFF7801FF9FFBFFFBE77CFFF31DCF
:10081000FF9EFFFF03FDFF9FF1FFF1C6787FF7C04A
:100820007F9EFFFFDFFC000004000406FB7FE7FF64
:10083000001EFFF0003C68000004000EFB7FEFFF8D
:10084000001E7F00FF80002FBFF1FBBEFB7FEFFE8D
:100850007BFF7F7E3FFC3F2F9FFBFBBEFB7FE7FEC6
:10086000F9FF007F9FFC002FDFFBFBBE037FF07CC6
:10087000FCFFFBFFC7FFFFE0D003FBBEFF7FFF01D4
:10088000FE0003FFF1FFFFEE07F80000FF7FFFFF10
:10089000FFFFFFFFFC00000FFFFFFFFE007FFFFFD9
:1008A000FFFFFFFFFFFFFFFFFFFFFFFFFFFF101036
:1008B000FFFFFFFFFFFDF7FAEBFFFFDFFFAFFFFFDB
:1008C000FFFFFBFFF5FFFFDFFFAFDFFFAFFFFFFF26
:1008D00010100000500020285010002800000000D8
:1008E0000140008001400000001428081014280076
:1008F00000001010000010006D005408AA145408E5
:100900006C2010000010006C045410AA2854106CC5
:1009100000100000101000007FFE6B5657AA7FFEEB
:100920006B5657AA7FFE6B5657AA7FFE40024002C5
:1009300040027FFE0000101000007FFE60065FFA9C
:10094000500A520A504A500A500A562A560A500A69
:100950005FFA60067FFE0000101000200050382073
:1009600047FE5502448238F2210A12660A9606961C
:100970007666750A04F207FE0000101000003800C9
:100980007DFE7D027D0239FE7F0240024002400270
:100990007FFE0200253C523C200000004024000065
:1009A00000000000000000000000C0000000000087
:1009B0000000C000000000000000000000007FC335
:1009C000060CFF07810206070308C018610206052E
:1009D0008118C0103102060481B0C0301102060C2B
:1009E00080E0C02011020608C0E0C02011020618F5
:1009F00040E0FE201102061FE1B0C02011020610E7
:100A00006110C030110206302318C01031020620D8
:100A1000360CC018618606601C04C0078078000090
:100A2000000000000000070000000000000001FCC2
:100A300000000000000007763C000000000000DE1F
:100A400035000000000001D01D8000000000003FC4
:100A5000906000000000002C9C3000000000006E40
:100A60009E980000000000FFD3FFC000000003803C
:100A70007E003000000006208100100000000C0005
:100A8000E100700000000820817FC00000001BFF13
:100A900081BD8000000033FF81FE800000003CCC5F
:100AA000FF660000000000CC00660000000000FCB3
:100AB000007E000000000078003C000000001809E3
:100AC000FFFFA0C00060CDB5E0960C60964C40964C
:100AD0000C60CDB5E0C00060FFFFA0090B120B1D3C
:100AE0000B280B340B400B424553542053434F52B9
:100AF00045004E6577207265636F7264732100084C
:100B00000838B9927C10102844436F6E74696E7572
:100B1000650033206D696E20706C61790035206D41
:100B2000696E20706C6179003130206D696E2070C3
:100B30006C617900486967682073636F7265730040
:100B40004D61696E204D656E75000303070507054D
:100B5000040505040503060302070202010202035D
:100B6000020E090E0E0D0E0E0F0E070507050307E8
:100B7000050F050705070607010205020007020227
:100B80000700020702000207020007060306070724
:100B9000020205050201020204020005020205002C
:100BA0000607050507050203020206020000000011
:100BB0000B000300030705070407010502050707EB
:100BC00004000300000705050700050005020702F1
:100BD000000C0002020200040004020107050705E0
:100BE00007040107040507020302070407010706BB
:100BF00006010107070707030307000500000D00B2
:100C00000205000505050005020107030F0903069B
:100C10000306070702020505070702070705070382
:100C20000107050607020705070504040307020577
:100C3000070404070307070106070507070303075F
:100C4000050307030604070101070107040703045E
:100C50000307060705020501060101070400070551
:100C6000010204050700020102080808000300064B
:100C70000306070702020505070502070705070324
:100C80000107050607020705070504040307020517
:100C900007040407030707010607050707030307FF
:100CA00005030703060407010107010704070304FE
:100CB00003070607050205010601010704020705EF
:100CC00000070005070206020307050703053F2189
:100CD0003F1208120A100A0E1C0E0C1E0C141A14D5
:100CE000161F161E131E1E1B1E1E1F1E3F213F3ADF
:100CF0002F3A173D173F213F181F02040A041F0E09
:100D000004040E1F0A1F0A0E0E1F04110E2E252E9C
:100D10002F2A2E262929021F02081F08150E040457
:100D20000E150E15151B151B040604040C040000FB
:100D3000000017000300031F0A1F16371A190413B7
:100D40000A153A000300000E11110E000A040A04ED
:100D50000E040030000404040010001804031F11E6
:100D60001F121F101D151711151F07041F17151D22
:100D70001F151D01011F1F151F17151F000A000059
:100D80003200040A110A0A0A110A040115020E119E
:100D9000171E051E1F150A0E110A1F110E1F151111
:100DA0001F05010E111D1F041F111F1108100F1F19
:100DB000041B1F10101F061F1E040F0E110E1F090B
:100DC000060E112E1F051A121509011F011F101FF3
:100DD0000F180F1F0C1F1B041B031C0319151300F6
:100DE0001F11030418111F0002010220202000011E
:100DF000020C121E1F120C0C12120C121F0C1A14D1
:100E0000041E05242A1E1F021C141D1020201D1F55
:100E10000814111F101E041E1E021C0C120C3E0A88
:100E2000040C123E1E040214160A020F120E101EAB
:100E30000E100E1E081E120C1226281E322A260420
:100E40001E21001F00211E040102013F213F050752
:100E50007F4141417F3E5B4F5B3E3E6B4F6B3E1897
:100E60003C783C18183C7E3C181C577D571C1C5E77
:100E70007F5E1C007E43437E007E73737E007E7F18
:100E80007F7E7F4141417F30483A060E062979290D
:100E9000067F4141417F60703F02042A1C361C2AB4
:100EA0007F3E1C080000081C3E7F14227F22143C59
:100EB0003C3C7EFF18423C817E3E6375633E3E6152
:100EC0006B633E3E636B6B3E04027F020410207F27
:100ED000201008082A1C08081C2A0808143E55413E
:100EE00022637569756310181C1810040C1C0C041F
:100EF000000000000000005F000000070007001471
:100F00007F147F14042A7F2A102313086462364951
:100F10005620500008070300001C22410000412217
:100F20001C002A1C3E1C2A08083E080800E060003D
:100F3000000808080808006060000060100804034A
:100F40003E5149453E00427F400062514949462199
:100F500041494D331814127F1027454545393C4A05
:100F6000494930412111090736494949360649495D
:100F7000291E0000240000008064000008142241A3
:100F80000014141414140041221408020159090613
:100F90003E415D594E7C1211127C7F494949363ED3
:100FA000414141227F4141221C7F494949417F09FA
:100FB0000909013E414151327F0808087F00417F05
:100FC00041002041413F017F081422417F404040C1
:100FD000407F020C027F7F0204087F3E4141413E78
:100FE0007F090909063E416141BE7F09192946264C
:100FF0004949493201017F01013F4040403F1F20E4
:1010000040201F3F4038403F6314081463030478B6
:1010100004036151494543007F4141000304081026
:10102000600041417F0004020102048080808080D2
:10103000000307080020545478407F28444438387F
:1010400044444428384444287F3854545418087E73
:1010500009090218A4A49C787F0804047800447D40
:101060004000006080847D7F1010284400417F4054
:10107000007C047804787C080404783844444438BC
:10108000FC1824241818242418FC7C0804040808DC
:1010900054545420043F4444203C4040207C1C20B5
:1010A00040201C3C4020403C44281028444C909058
:1010B000907C4464544C44000836410000007F009A
:1010C000000041360800180408100C7F4141417FA0
:1010D0000A4E6F2053442063617264206F720A6E5F
:1010E0006F204C4F414445522E4845580A0A153A44
:1010F00045786974001D20466C617368696E670AE3
:1011000020206C6F616465722E2E2E0A0A444F4EA9
:101110002754205455524E204F464621006D560A02
:101120000A504C454153450A5455524E204F4646AD
:10113000004C4F5720424154544552590A001773EE
:1011400061766500166261636B00157479706500E5
:101150000A0A0A153A6F6B617920163A6564697458
:1011600000596F7520656E74657265640A00540AD3
:1011700003E181867F3E186D830F0F0E0183866029
:1011800033186DC3198F1803C38E6033186DE330A5
:10119000CF1803C39E603630CDE360CF3006C79EC4
:1011A0007E3E30CDB360CF300CC6F6603330D9B65A
:1011B00060CF33CFCCF66061B0DB1E60CF30D86C2F
:1011C000E6C061B0DB1E618F19986CC6C063B19B2D
:1011D0000E330F0FB078C6FF7E1F1B061E0F17536E
:1011E0004400161378001613140015102000152063
:1011F00010000000050089300802380249786814A0
:101200000000450068010000050068013801000089
:101210000500380168010000F6E8DBCFC3B8AEA4D2
:101220009B928A827B746E68625C57524E4945413C
:101230003E3A3734312E2C29272523211F1D1C1A15
:101240001917161514131211100F0E0D0C0B0A0995
:1012500008070657125B120101F7030101FF0300A3
:10126000000000240027002A0000000000250028BC
:10127000002B0000000000230026002900040404C5
:10128000040404040402020202020203030303032F
:10129000030102040810204080010204081020010C
:1012A00002040810200000000700020100000304EF
:1012B00006000000000000000000470A11241FBEC5
:1012C000CFEFD8E0DEBFCDBF11E0A0E0B1E0E8EFA6
:1012D000FDE602C005900D92AC33B107D9F714E0DA
:1012E000ACE3B1E001C01D92A934B107E1F712E10E
:1012F000CCEBD2E104C02297FE010E940A36CA3B21
:10130000D107C9F70E94CF2E0C94FA360C94000036
:1013100083E08093DA0180E090E0A0EAB1E480937A
:10132000C2019093C301A093C401B093C5018093FF
:10133000C6019093C701A093C801B093C90180E092
:1013400090E0A0E0B0E08093CA019093CB01A0931D
:10135000CC01B093CD018093CE019093CF01A093A7
:10136000D001B093D1018093D2019093D301A09387
:10137000D401B093D5018093D6019093D701A09367
:10138000D801B093D90108950F931F938C01109247
:1013900054010E9488091092E5011092E601109212
:1013A000E7011092E8011092E0011092DF01109223
:1013B000E90180EB94E09C01029FC001039F900D26
:1013C000129F900D11249093E2018093E1011F91EF
:1013D0000F9108958091E901882349F08091DF0100
:1013E0009091E00101969093E0018093DF0180915C
:1013F000E1019091E20101979093E2018093E10174
:1014000008958330A1F0843028F4813051F0823087
:1014100058F41AC0853089F0853060F0863099F430
:101420000FC020ED38E012C022EF38E00FC024E1F9
:1014300039E00CC026E339E009C028E539E006C0F0
:101440002AE739E003C008952EEA38E0C90108957B
:10145000E62FF0E094E0EE0FFF1F9A95E1F7282FBA
:10146000269526952695E20FF11DE255FF4FE49152
:101470002E2F30E090E0809590958770907002C09C
:10148000359527958A95E2F7822F817008951092FD
:101490008D0110928C0188E391E090938B018093F1
:1014A0008A0108954F925F926F927F928F929F92DE
:1014B000AF92BF92CF92DF92EF92FF920F931F9362
:1014C000CF93DF938091EC019091ED012FEF813F5D
:1014D000920714F4662486C060E170E00E94B8357B
:1014E000662E80C08091EA019091EB01EFEF813F81
:1014F0009E0714F4772405C060E170E00E94B835BF
:10150000762E240154E0440C551C5A95E1F750C046
:10151000872D662D0E94280A882309F448C0C0E060
:10152000D0E0FE01EA57FF4F2491FE01E957FF4F3B
:101530000491FE01E857FF4F4491CE0187579F4F1A
:10154000FC01C49030E010E0E42EFF24E21AF30A1C
:10155000DD24C01AD10A8CE391E0B501A4010E94F8
:10156000361F882329F0C657DF4FFE01849105C03E
:101570002596C832D105A9F682E00E94010A9C0195
:1015800044E0AA0CBB1C4A95E1F78091EA019091D6
:10159000EB01A81AB90A8091EC019091ED01A2012A
:1015A000481B590B8AE891E06A2D0E94BC1B73947A
:1015B000A72CBB248091EA019091EB01F7E08C3AD3
:1015C0009F071CF060E870E008C08C5A9F4F60E1F4
:1015D00070E00E94B8356F5F7F4FA616B7060CF417
:1015E00097CF6394862C99248091EC019091ED0122
:1015F00027E0803D92071CF060E870E007C0C096CD
:1016000060E170E00E94B8356F5F7F4F86169706E5
:101610000CF468CFDF91CF911F910F91FF90EF9065
:10162000DF90CF90BF90AF909F908F907F906F9002
:101630005F904F9008950F931F930CE311E0C80142
:101640006CE979E00E942C27C8010E9484201F9138
:101650000F9108952F923F924F925F926F927F92D7
:101660008F929F92AF92BF92CF92DF92EF92FF92B2
:101670000F931F93DF93CF93CDB7DEB7A0970FB62D
:10168000F894DEBF0FBECDBF8B8B6C8BFA010D8B38
:101690001E8B2F8B388F24912D87319634913C8768
:1016A0003197822F27FD8F5F282F2595AF014E5F41
:1016B0005F4F5C834B835091A90159876D85862FBD
:1016C000992787FD9095079668E070E00E94B835ED
:1016D000862F992787FD90959A8389838C8587FD2E
:1016E0008F5F8595992787FD9095AA27BB27A81B13
:1016F000B90BBE83AD831A8618861F82822F992765
:1017000087FD9095EE27FF27E81BF90BFE8FED8FE5
:10171000FEC0EB85E595E595E595FF27E7FDF0959E
:101720002F813885E20FF31F4B815C81E40FF51F99
:10173000E4912E2F30E08B85877060E870E002C066
:10174000759567958A95E2F726233723232B09F4AD
:10175000C0C0AF8DB8A1BD01882777FD8095982FB7
:101760000E94A6331B012C016D897E898F89988D7B
:101770000E9408336F87788B898B9A8B698D7A8D5D
:101780008B8D9C8D0E94A6333B014C016D897E8917
:101790008F89988D0E94F2345B016C01C201B10106
:1017A0002F85388949895A890E948F347B018C01A1
:1017B000C401B301A60195010E948F349B01AC01C5
:1017C000C801B7010E949F320E947333BB89B60FD4
:1017D000BE87B43508F07DC0C201B101A6019501F4
:1017E0000E948F347B018C01C401B3012F8538899D
:1017F00049895A890E948F349B01AC01C801B70105
:101800000E94A0320E9473334C89460F47FD61C08D
:1018100040330CF05EC0E985E23011F09E2F25C008
:10182000842F859585958595992787FD9095FE85CB
:101830002F2F332727FD309564E570E0869FF00158
:10184000879FF00D969FF00D1124E20FF31FE15CCE
:10185000FD4F808190E0242F277002C095958795D9
:101860002A95E2F791E098279170542F5595559558
:1018700055957E85272F332727FD3095842F877038
:101880009923A9F494E55902F0011124E20FF31F02
:10189000E15CFD4FA1E0B0E002C0AA0FBB1F8A953A
:1018A000E2F7CD01809520812823208312C0B4E582
:1018B0005B02F0011124E20FF31FE15CFD4F21E018
:1018C00030E002C0220F331F8A95E2F78081822B1D
:1018D0008083EB85EF5FEB872F8D38A12F5F3F4F24
:1018E00038A32F8F3B854D8534170CF412CF5A85C2
:1018F0005F5F5A876F81788589819A81680F791F28
:1019000078876F83AD81BE811196BE83AD83BA8522
:10191000EC85BE1784F42D8D3E8D38A32F8F1B864A
:101920004D815E81662757FD6095762F498F5A8FCE
:101930006B8F7C8FD7CFA0960FB6F894DEBF0FBE0B
:10194000CDBFCF91DF911F910F91FF90EF90DF906E
:10195000CF90BF90AF909F908F907F906F905F904F
:101960004F903F902F9008950F931F93CF93DF9345
:101970006091C2017091C3018091C4019091C50131
:101980000E947333EB018091EA019091EB01C81B37
:10199000D90B2091C6013091C7014091C8015091E7
:1019A000C9010091EC011091ED01CE014096853600
:1019B0009105D0F4CA01B9010E947333601B710B09
:1019C0008FEF603F780784F0613371056CF400910C
:1019D000D6011091D7012091D8013091D9018C2FD7
:1019E0004EEB5AE00E942A0BDF91CF911F910F918D
:1019F00008952F923F924F925F926F927F928F92B3
:101A00009F92AF92BF92CF92DF92EF92FF920F938D
:101A10001F93DF93CF930F92CDB7DEB786E491E0AB
:101A200062E041E00E94E5178823B1F06091D601A1
:101A30007091D7018091D8019091D90125E438EDBA
:101A400040E25EE30E94A0326093D6017093D7011A
:101A50008093D8019093D90186E491E060E041E061
:101A60000E94E5178823B1F06091D6017091D701EB
:101A70008091D8019091D90125E438ED40E25EE3F0
:101A80000E949F326093D6017093D7018093D80152
:101A90009093D90186E491E064E041E00E94E5176B
:101AA0008823B1F06091CA017091CB018091CC0183
:101AB0009091CD012AE037ED43EA5CE30E94A03229
:101AC0006093CA017093CB018093CC019093CD01B8
:101AD00086E491E065E041E00E94E517882309F47F
:101AE00042C06091CA017091CB018091CC0190916C
:101AF000CD012DEC3CEC4CE45FE30E948F3460930D
:101B0000CA017093CB018093CC019093CD01609179
:101B1000CE017091CF018091D0019091D1012DEC37
:101B20003CEC4CE45FE30E948F346093CE017093F1
:101B3000CF018093D0019093D1016091D201709137
:101B4000D3018091D4019091D5012DEC3CEC4CE473
:101B50005FE30E948F346093D2017093D30180932E
:101B6000D4019093D5012090C2013090C3014090E0
:101B7000C4015090C5016091C6017091C701809168
:101B8000C8019091C90120E030E040E85DE30E9487
:101B90008F340E9478337B018C016983C201B101CB
:101BA00020E030E040E85DE30E948F340E9478330B
:101BB000DC01CB016E2D0E94280A882309F042C067
:101BC0006091CA017091CB018091CC019091CD01BF
:101BD00023E333E343E75FE30E948F346093CA015A
:101BE0007093CB018093CC019093CD016091CE0195
:101BF0007091CF018091D0019091D10126E636E617
:101C000046E65FE30E948F346093CE017093CF016C
:101C10008093D0019093D1016091D2017091D30152
:101C20008091D4019091D50126E636E646E65FE341
:101C30000E948F346093D2017093D3018093D401BA
:101C40009093D501E090D601F090D7010091D80192
:101C50001091D901C801B7010E940833A090CA01B0
:101C6000B090CB01C090CC01D090CD01A6019501E0
:101C70000E948F342091CE013091CF014091D0014C
:101C80005091D1010E94A0323B014C016093CE01E2
:101C90007093CF018093D0019093D101C801B70117
:101CA0000E94F234A60195010E948F349B01AC0181
:101CB0006091D2017091D3018091D4019091D501AE
:101CC0000E94A0326093D2017093D3018093D4011B
:101CD0009093D501C201B101A40193010E94A032E9
:101CE0007B018C016093C2017093C3018093C40196
:101CF0009093C50120E030E040E85DE30E948F341E
:101D00000E947833DC01CB0169810E94280A81306E
:101D1000C1F5C801B701A40193010E949F326093ED
:101D2000C2017093C3018093C4019093C501C401A3
:101D3000B30120E030E040E05FEB0E948F3460931D
:101D4000CE017093CF018093D0019093D10181E6B1
:101D500091E00E94482A6091CA017091CB01809164
:101D6000CC019091CD0120E030E040E05FE30E94A3
:101D70008F346093CA017093CB018093CC01909310
:101D8000CD016090D2017090D3018090D4019090E9
:101D9000D501C401B3012091C6013091C701409122
:101DA000C8015091C9010E94A0325B016C0160938F
:101DB000C6017093C7018093C8019093C9016091D7
:101DC000C2017091C3018091C4019091C50120E0CE
:101DD00030E040E85DE30E948F340E9478337B015D
:101DE0008C01C601B50120E030E040E85DE30E94CF
:101DF0008F340E9478339B01AC018E2D622F0E949C
:101E0000280A8130C1F5C601B501A40193010E94E1
:101E10009F326093C6017093C7018093C80190936D
:101E2000C901C401B30120E030E040E05FEB0E9453
:101E30008F346093D2017093D3018093D401909337
:101E4000D50181E691E00E94482A6091CA01709113
:101E5000CB018091CC019091CD0120E030E040E0B9
:101E60005FE30E948F346093CA017093CB0180932B
:101E7000CC019093CD01A090CA01B090CB01C0904D
:101E8000CC01D090CD016091E5017091E601809187
:101E9000E7019091E8010E94A433A60195010E94F8
:101EA000A0320E9478336093E5017093E60180933D
:101EB000E7019093E801E090D601F090D7010091FE
:101EC000D8011091D901C801B7010E9408333B0124
:101ED0004C01C801B7010E94F234A60195010E948D
:101EE0008F3420E030E040E852E40E948F342091AB
:101EF000C6013091C7014091C8015091C9010E94AB
:101F0000A03220E030E040EC51E40E949F320E9479
:101F100073337B018C01C401B301A60195010E94BA
:101F20008F3420E030E040E852E40E948F3420916A
:101F3000C2013091C3014091C4015091C5010E947A
:101F4000A03220E030E048E252E40E949F320E943A
:101F50007333DC01CB014091EA015091EB019A010E
:101F6000220F331F240F351F820F931F64E070E090
:101F70000E94B8357093EB016093EA012091EC0167
:101F80003091ED01C901880F991F820F931F8E0DAB
:101F90009F1D64E070E00E94B8357093ED0160937E
:101FA000EC010F90CF91DF911F910F91FF90EF9077
:101FB000DF90CF90BF90AF909F908F907F906F9069
:101FC0005F904F903F902F900895CF92DF92EF92C5
:101FD000FF920F931F93CF93DF93ABE0CA2ED12CC8
:101FE000F5E1EF2EF12C8CE391E00E94CF208823C5
:101FF000D1F360E070E080E090E022E030E040E08B
:1020000050E00E941A31675F6093930160E070E0D6
:1020100080E090E022E030E040E050E00E941A31A1
:10202000609394018AE891E067EE7AE00E94532F72
:10203000109291011092930180918F0180939401ED
:102040000EEF11E0C0E0D0E0F80180819181892B92
:1020500031F48AE891E06DE20E942B2F0DC0CC9DF7
:10206000B001CD9D700DDC9D700D1124685F7D4F1A
:102070008AE891E00E94663080918E019701281BCA
:102080003109C901880F991F880F991F8093930107
:10209000219680918F0190E0FC01CE9FC001CF9FDF
:1020A000900DDE9F900D112480939401F8016191B1
:1020B00071918F018AE891E04AE050E00E94473038
:1020C000C530D10509F686E491E064E00E94DB1793
:1020D000882379F486E491E065E00E94DB17882389
:1020E00041F486E491E066E00E94DB17882309F45E
:1020F0007ACF81E691E00E943C2ADF91CF911F9137
:102100000F91FF90EF90DF90CF9008954F925F92E4
:102110006F927F928F929F92AF92BF92CF92DF92F7
:10212000EF92FF920F931F93DF93CF93CDB7DEB75C
:102130002A970FB6F894DEBF0FBECDBF8C01209159
:10214000E3013091E4018091060290910702821729
:10215000930708F0B0C08CE391E064E372E00E9462
:10216000241F8CE391E064E372E04BE00E9488213D
:10217000109307020093060294E0C92E92E0D92E34
:1021800083E0A82EB12C0BE0402E512C3E01089488
:10219000611C711C45010894811C911CF601208171
:1021A0003181828193812817390764F01EEF812ED7
:1021B00011E0912EAA24BB24CC24DD24BBE06B2E9D
:1021C000712C69C0A49C7001A59CF00CB49CF00C0F
:1021D000112488E092E0E80EF91EC301B7010E94C5
:1021E0007836849C8001859C100D949C100D1124E0
:1021F000085F1D4FC701B8010E947836C801B301BE
:102200000E947836F6012081318182819381918309
:102210008083338322838EEF9FEFC80ED91E0894EC
:10222000A108B1089CEFC91691E0D90609F0B2CF18
:10223000BDCFB8016C0D7D1D8DE394E0F701419198
:102240007F010E949C2A0F5F1F4F0A30110589F7FA
:102250008AE090E0C80ED91E8DE394E0B601F40147
:1022600040810E949C2A0894C11CD11CF401418128
:102270008DE394E0B6010E949C2A0894A11CB11C35
:1022800082E090E0880E991E0894C11CD11C95E054
:10229000A916B10471F0A69C7001A79CF00CB69C25
:1022A000F00C1124E8E0F2E0EE0EFF1E00E010E07A
:1022B000C0CF0E94E50F2A960FB6F894DEBF0FBE7E
:1022C000CDBFCF91DF911F910F91FF90EF90DF90E5
:1022D000CF90BF90AF909F908F907F906F905F90C6
:1022E0004F9008956F927F928F929F92AF92BF927C
:1022F000CF92DF92EF92FF920F931F93CF93DF93D2
:102300003EEF832E31E0932EAA24BB24CC24DD247F
:102310002BE0622E712C3BC0BE016C0D7D1D8DE348
:1023200094E00E94952AF80181938F012196CA308A
:10233000D10591F7B601665F7F4F8DE394E00E946F
:10234000952A082F10E0F40111830083B601655F20
:102350007F4F8DE394E00E94952AF82EEE24C7016A
:10236000800F911FF7E28F309F0711F480E090E01B
:10237000F401819391934F010894A11CB11C8CE04E
:1023800090E0C80ED91E95E0A916B10461F0A69C94
:102390008001A79C100DB69C100D1124085F1D4FE5
:1023A000C0E0D0E0B9CFDF91CF911F910F91FF90A6
:1023B000EF90DF90CF90BF90AF909F908F907F90E5
:1023C0006F9008950F931F93CF93DF930EEE11E05C
:1023D000C0E0D0E080912C0190912D018C179D07D9
:1023E00029F1F80122813381608171818091EA01B4
:1023F0009091EB01681B790B4091EC015091ED013C
:10240000CB0140968536910588F4C901841B950B54
:10241000AC019FEF403F59074CF04133510534F474
:102420008AE891E02FEF3AE00E94BC1B21960C5FF6
:102430001F4FC430D10571F60091DB011091DC0112
:102440008091EA019091EB01081B190B2091DD01AD
:102450003091DE014091EC015091ED01C8014096B0
:1024600085369105C0F4E901C41BD50BEFEFC03FE1
:10247000DE078CF0C133D10574F48AE891E0602F57
:102480004C2F24E00E945D198AE891E0602F4C2FC8
:1024900021E00E945D19DF91CF911F910F91089566
:1024A0003F924F925F926F927F928F929F92AF92E4
:1024B000BF92CF92DF92EF92FF920F931F93CF9331
:1024C000DF93CEEED1E0CC24DD2444244A94542C76
:1024D0003324339460902C0170902D016C147D0492
:1024E00009F43CC16091C2017091C3018091C401A3
:1024F0009091C5010E9473334B016091C6017091A8
:10250000C7018091C8019091C9010E9473335B019A
:102510006881798168197909882777FD8095982FD6
:102520000E94A6339B01AC010E948F347B018C0179
:102530006A817B816A197B09882777FD8095982FAE
:102540000E94A6339B01AC010E948F349B01AC0119
:10255000C801B7010E94A0320E94FC340E9473336C
:102560006739710584F168E57FEF8FEF9FEF28EA07
:1025700030E040E050E00E941A31C401860F971FFE
:102580009983888360EA7FEF8FEF9FEF20E630E04A
:1025900040E050E00E941A319501260F371F3B831F
:1025A0002A838881998160E170E00E94B835462FC6
:1025B000C90160E170E00E94B835842F0E94280AAA
:1025C000882389F660C06A3071050CF05CC02091E8
:1025D000CA013091CB014091CC015091CD01CA018B
:1025E000B9010E948F340E94FC3420E030E040E8C2
:1025F0005FE30E94043388230CF045C08FEF681618
:102600008FEF780609F03FC0D0922D01C0922C01C7
:102610001092E0011092DF013092E90181E691E031
:102620000E943C2A64E670E080E090E020ED37E014
:1026300040E050E00E941A317093DC016093DB01AE
:1026400064E670E080E090E020ED37E040E050E0AC
:102650000E941A318B019C017093DE016093DD01B1
:102660008091DB019091DC0160E170E00E94B8355F
:10267000462FC80160E170E00E94B835842F0E94A7
:10268000280A882379F680912C0190912D0197FDDD
:1026900065C06091DB017091DC01882777FD809532
:1026A000982F0E94A6332091C2013091C30140911E
:1026B000C4015091C5010E949F320E947333882744
:1026C00077FD8095982F0E94A6339B01AC010E9454
:1026D0008F347B018C016091DD017091DE018827D0
:1026E00077FD8095982F0E94A6332091C6013091E6
:1026F000C7014091C8015091C9010E949F320E94B8
:102700007333882777FD8095982F0E94A6339B010D
:10271000AC010E948F349B01AC01C801B7010E943B
:10272000A0320E94FC3420E030E040E251E40E94FC
:10273000043388239CF48091E3019091E401019695
:102740009093E4018093E30150922D0140922C017B
:102750001092E90181E691E00E943C2A0894C11C94
:10276000D11C249684E0C816D10409F0B3CEDF91C1
:10277000CF911F910F91FF90EF90DF90CF90BF907E
:10278000AF909F908F907F906F905F904F903F9011
:1027900008959C0160939301409394018AE891E02D
:1027A000B9010E947C300895AF92BF92CF92DF9220
:1027B000EF92FF920F931F93DF93CF93CDB7DEB7C6
:1027C0002E970FB6F894DEBF0FBECDBF6B017C0114
:1027D000B42E81E0809392018E010F5F1F4FC801DC
:1027E000B701A6012AE00E944A32AB2CBB24C02EBE
:1027F000F12E8E01085F1F4F12C0C80160E071E02A
:102800000E941732C8016C2D7F2D0E94C631BC0179
:102810008C2D9F2D0E947C32C8010E9499328D819F
:102820009E818A159B0548F38AE891E06C2D7F2DE7
:102830000E947C308C2D9F2D0E9493322E960FB6D5
:10284000F894DEBF0FBECDBFCF91DF911F910F91E6
:10285000FF90EF90DF90CF90BF90AF9008958CE302
:1028600091E00E94CF208823D1F38AE891E06EE4C2
:102870007EE00E942A1C8AE891E062E071E00E94FA
:1028800069308AE891E06CEC7CE00E942A1C8AE8BE
:1028900091E06CE071E00E9466306091E30170911C
:1028A000E40180E090E044E00E94D4138AE891E0E3
:1028B00065E171E00E9469308AE891E066E171E0CB
:1028C0000E9466306091E5017091E6018091E70118
:1028D0009091E80146E00E94D4132091E3013091E9
:1028E000E40180910602909107028217930700F598
:1028F00060E070E080E090E022E030E040E050E016
:102900000E941A316C5E6093930160E070E080E099
:1029100090E022E030E040E050E00E941A31625E38
:10292000609394018AE891E062EF7AE00E94532F6D
:1029300086E491E064E00E94DB17882379F486E462
:1029400091E065E00E94DB17882341F486E491E082
:1029500066E00E94DB17882309F481CF81E691E0CD
:102960000E943C2A8091E3019091E4010E9486102C
:1029700008958F929F92AF92BF92CF92DF92EF9283
:10298000FF920F931F93DF93CF93CDB7DEB72E97B0
:102990000FB6F894DEBF0FBECDBF5B016C01942E65
:1029A000822E81E0809392017E010894E11CF11C4B
:1029B000C701B601A5012AE00E944A32C02EDD24DB
:1029C000AF2C8E01085F1F4F12C0C80160E071E09C
:1029D0000E941732C8016E2D7A2D0E94C631BC01AB
:1029E0008E2D9A2D0E947C32C8010E9499328D81D1
:1029F0009E818C159D0548F39092930180929401DD
:102A00008AE891E06E2D7A2D0E947C308E2D9A2DD1
:102A10000E9493322E960FB6F894DEBF0FBECDBF44
:102A2000CF91DF911F910F91FF90EF90DF90CF90AA
:102A3000BF90AF909F908F9008956F927F928F92EA
:102A40009F92AF92BF92CF92DF92EF92FF920F933D
:102A50001F93DF93CF93CDB7DEB727970FB6F894C8
:102A6000DEBF0FBECDBF8AE891E060E00E948E1805
:102A70008AE891E064E04BE224E00E94071B8AE8C8
:102A800091E061E00E948E188AE891E064E04BE2F8
:102A900024E00E945D1980912C0190912D0197FDF9
:102AA0007EC06091DB017091DC01882777FD809505
:102AB000982F0E94A6332091C2013091C30140910A
:102AC000C4015091C5010E949F320E947333882730
:102AD00077FD8095982F0E94A6333B014C01A401FD
:102AE00093010E948F347B018C016091DD01709114
:102AF000DE01882777FD8095982F0E94A6332091CC
:102B0000C6013091C7014091C8015091C9010E948E
:102B10009F320E947333882777FD8095982F0E94FB
:102B2000A6335B016C01A60195010E948F349B01C5
:102B3000AC01C801B7010E94A0320E94FC349B0185
:102B4000AC0160E070E080E890E40E940B337B0110
:102B50008C01A40193010E948F3420E030E040E812
:102B600050E40E94A0320E9473333B014C01C80123
:102B7000B701A60195010E948F3420E030E04CE2BD
:102B800052E40E94A0320E9473337B018C018AE8D8
:102B900091E064E04BE2262D0E2D0E9496188AE803
:102BA00091E061E040E00E9492188AE891E06AE4D6
:102BB0007BE00E942A1C6091E1017091E20180E0BB
:102BC00090E040E020E005E00E94B9146091DF0150
:102BD0007091E00180E090E04CE320E00E94B914A5
:102BE0006091E3017091E40180E090E045E42DE222
:102BF00004E00E94B91480912C0190912D0197FD61
:102C000015C08AE891E061E00E948E188AE891E0A0
:102C10006BE140E024E107E073E0E72E0E94811BB6
:102C20008AE891E062E00E948E181BC08AE891E079
:102C300060E00E948E188AE891E06BE140E024E1B8
:102C400007E053E0E52E0E94811B8AE891E061E0F5
:102C50000E948E188AE891E06BE140E024E10E9436
:102C6000231B8E010F5F1F4FC8016CE171E00E94B2
:102C7000FD31C8016EE142E00E94C913C8010E9403
:102C800093328AE891E06CEC7CE00E942A1C8AE88E
:102C900091E061E00E948E1827960FB6F894DEBF8F
:102CA0000FBECDBFCF91DF911F910F91FF90EF909D
:102CB000DF90CF90BF90AF909F908F907F906F905C
:102CC00008958AE891E06CEC7CE00E942A1C8CE379
:102CD00091E00E94CF208823D1F386E491E066E062
:102CE0000E94DB17882339F08AE891E06EE47EE0E9
:102CF0000E942A1C08958091E1019091E201892BA4
:102D000019F40E942F1408950E94F90C0E94EA09F8
:102D10000E9450120E94520A0E94B40C0E94E211BA
:102D20000E941D15D4CF8CE391E06BED7AE046E074
:102D30000E946724823079F083302CF4882399F044
:102D40008130E9F405C0833049F08430C1F414C007
:102D500083E090E005C085E090E002C08AE090E06A
:102D60000E94C40906C08091E1019091E201892B83
:102D700041F00E94611608950E94E50F08950E9497
:102D80001B0B08950E94931608958CE391E00E9416
:102D900032278AE891E06EE47EE00E942A1C0E94BD
:102DA00072110E941B0B84E690E09093DC018093EB
:102DB000DB019093DE018093DD010895882319F4EF
:102DC0008CB5806202C08CB58F7D8CBD08959CB59A
:102DD000937F982B9CBD08952CB5382F33702C7F92
:102DE000322B3CBD2DB590E09595879595958795AF
:102DF00081702E7F822B8DBD08958AE061E00E9454
:102E00006C2E8AE061E00E94002E8CB580618CBD42
:102E10008CB580648CBD8DE061E00E94002E8BE05B
:102E200061E00E94002E0895FC0181E080830895F6
:102E300085E070E00E94A02D08956F927F928F929E
:102E40009F92AF92BF92CF92DF92EF92FF920F9339
:102E50001F93CF93DF93EC0189819A818C0124E049
:102E6000000F111F2A95E1F7081B190B85E10E943D
:102E70007E2DBC01600F711F84E0769567958A9561
:102E8000E1F77A8369838881882381F12E813F81EC
:102E90006217730710F4B90106C0888599858617F3
:102EA000970708F4BC0100D000D080E090E040E03B
:102EB00050E0E884F98400E010E0AD80BB24CC242D
:102EC000DD246C80772488249924EDB7FEB76182D5
:102ED0007282838294820E94AF306B830F900F9036
:102EE0000F900F9085E070E00E94A02DDF91CF91B0
:102EF0001F910F91FF90EF90DF90CF90BF90AF9018
:102F00009F908F907F906F900895FC018CE39FE0DD
:102F10009383828384E0818381E084870895CF93C3
:102F2000DF93EC018C8590E08F719070892B69F5AF
:102F300084E10E947E2DAA2797FDA095BA2FBC019F
:102F4000CD010E94A63326EE3FE34EEC50E40E94F2
:102F50008F340E9478339B01AC017B836A836115B7
:102F6000710589F084E08983B901FE0120E0848144
:102F700095816817790710F429830AC02F5F32966C
:102F80002430A9F702C08FEF89838C858F5F8C87EF
:102F9000DF91CF910895FC0188E0808389E08183EF
:102FA00087E0828386E0838384E0848382E0858374
:102FB00081E18683089520E0FC01E60FF11D878101
:102FC000813009F421E0822F0895E62FF0E04230AD
:102FD00040F420E0E80FF91F878181508E3F88F48C
:102FE0000FC0E80FF91F87818F3F11F420E009C05F
:102FF00020E090E0642F70E00E94A435019709F46E
:1030000021E0822F08950F931F93CF93DF93EC015C
:1030100010E00FEF888162E00E94002E88810E94FC
:103020009F2E2F81892B19F42F5F2F8307C0222316
:1030300049F02F3F11F41F8201C00F83888160E0A7
:103040000E94002E1F5F2196173021F7DF91CF914C
:103050001F910F910895FC01742F643508F05DC035
:1030600047FD5BC040330CF058C0878D823019F5A6
:10307000842F859585958595992787FD9095462F71
:10308000552747FD509524E530E0829FF001839F4E
:10309000F00D929FF00D1124E40FF51FE15CFD4F40
:1030A000808190E0272F277002C0959587952A95FB
:1030B000E2F780958170972F959595959595462F78
:1030C000552747FD5095272F27708823A1F4E4E565
:1030D0009E02F0011124E40FF51FE15CFD4F81E039
:1030E00090E002C0880F991F2A95E2F78095208111
:1030F000282320830895E4E59E02F0011124E40FC3
:10310000F51FE15CFD4F81E090E002C0880F991F40
:103110002A95E2F72081282B20830895FC01678FF0
:1031200060A30895FC01678F40A30895AF92BF92FA
:10313000CF92DF92EF92FF920F931F93CF93DF9383
:10314000EC01162FF42EE22EAA24402F552747FD1E
:1031500050958F2D992787FD9095481B590B57FF48
:1031600003C0509541955F4F2E2D332727FD309595
:10317000812F992787FD9095281B390B37FF03C0B6
:10318000309521953F4F2417350744F4AA24A39482
:103190008F2DF12E182F802F0E2DE82EE11634F4EE
:1031A0008E2DE12E182F802F0F2DF82EDE2CD11A08
:1031B000202F332727FD30958F2D992787FD909558
:1031C000281B390B37FF03C0309521953F4FB22E96
:1031D000F0161CF0CC24CA9402C0CC24C3948D2DCC
:1031E000D7FC8F5F082F059511C0AA2021F0CE01D2
:1031F0006F2D412F03C0CE01612F4F2D0E942B1840
:103200000B1907FF02C0FC0C0D0D1F5FE1166CF7D8
:10321000DF91CF911F910F91FF90EF90DF90CF90B2
:10322000BF90AF9008950F93042F322F262F215077
:10323000230F0E9496180F9108950F93362F042F95
:103240000150020F232F0E9496180F9108959F920C
:10325000AF92BF92CF92DF92EF92FF920F931F93A4
:10326000CF93DF936C01B62E942EA02EC0E0D0E059
:10327000E62EFF24E7FCF094022F112707FD10959E
:103280000E0D1F1D06C0C601492D2A2D0E941D19B5
:1032900021966B2D6C0FCE018E0D9F1D801791070F
:1032A00094F3DF91CF911F910F91FF90EF90DF90FA
:1032B000CF90BF90AF909F9008958F929F92AF92C2
:1032C000BF92CF92DF92EF92FF920F931F93CF9313
:1032D000DF93EC01B62EC42E122FAA24A394A21AB7
:1032E0008EEF289F802C1124422F4C0DCE010E947E
:1032F0002B184C2D411BCE016B2D0E942B18612FDA
:103300006B0DCE014C2D0E942B186B2D611BCE0135
:103310004C2D0E942B18D12EEE2483E0982E42C013
:10332000A7FC04C0DA9482E0880EA80CE394A90CF0
:10333000FE2CFB0C1D2D1C0DCE016F2D412F0E946C
:103340002B180B2D0E19CE01602F412F0E942B1828
:103350001C2D1D19CE016F2D412F0E942B18CE015F
:10336000602F412F0E942B18FD2CFB0C1E2D1C0DD5
:10337000CE016F2D412F0E942B180B2D0D19CE0160
:10338000602F412F0E942B181C2D1E19CE016F2D6E
:10339000412F0E942B18CE01602F412F0E942B1825
:1033A00082E0980EED140CF4BBCFDF91CF911F910A
:1033B0000F91FF90EF90DF90CF90BF90AF909F90D4
:1033C0008F9008952F923F925F926F927F928F928B
:1033D0009F92AF92BF92CF92DF92EF92FF920F93A4
:1033E0001F93DF93CF9300D000D000D0CDB7DEB7CE
:1033F0009E838D83C62ED42EEE24E394E21A8EEFA4
:10340000289F502C1124842E8A94962E9A94A42EB0
:10341000A394B62EB394F22E662423E0722E10E00D
:10342000C801847090709A838983F801E270F0700B
:10343000FC83EB8398E0292E312C2022312201706D
:10344000107054C0E7FC04C0FA94F2E05F0EE50C83
:10345000639489819A81892B71F04F2D4D0D8D8157
:103460009E816B2D0E942B186F2D6C0D8D819E817E
:103470004A2D0E942B18EB81FC81EF2B71F04D2D12
:103480004F198D819E816B2D0E942B186F2D6C0D15
:103490008D819E81482D0E942B182114310471F0DA
:1034A0006C2D6F198D819E814A2D0E942B184F2DF6
:1034B0004D0D8D819E81692D0E942B1801151105DE
:1034C00071F06C2D6F198D819E81482D0E942B18F3
:1034D0004D2D4F198D819E81692D0E942B18E70C6F
:1034E000F2E07F0E8A949A94A394B3946F140CF430
:1034F000A9CF26960FB6F894DEBF0FBECDBFCF91F1
:10350000DF911F910F91FF90EF90DF90CF90BF90D0
:10351000AF909F908F907F906F905F903F902F9093
:1035200008954F925F926F927F928F929F92AF9287
:10353000BF92CF92DF92EF92FF920F931F93CF93A0
:10354000DF93EC01A62E742E9E2DFF24F394F21A25
:103550008EEF289F802C1124B42EBA9453E0C52EF0
:10356000CE0CE22EDD2443E0942E10E031E0432E19
:10357000512C40225122692E63940270107034C085
:10358000F7FC04C0EA9482E0880EF80CD39441144E
:10359000510489F06D2D6A0D472D4E192E2D220FE5
:1035A000260DCE010E941D196E2D6A0DCE014B2DE8
:1035B0002C2D0E941D190115110589F06A2D6D1918
:1035C000472D4E192E2D220F260DCE010E941D19BA
:1035D0006A2D6E19CE014B2D2C2D0E941D19F90C50
:1035E00082E0980EBA94C80EDE1454F2DF91CF91A7
:1035F0001F910F91FF90EF90DF90CF90BF90AF9011
:103600009F908F907F906F905F904F900895DF9282
:10361000EF92FF920F931F937C01062FD42E122F4F
:10362000421B220F2F5F0E941D19C701602F4D2DD5
:10363000212F03E0EE240E94911A1F910F91FF9019
:10364000EF90DF9008957F928F929F92AF92BF92FA
:10365000CF92DF92EF92FF920F931F936C01962E01
:10366000A42EF22E7E2C760E1EEFE19E102D11243C
:10367000812E820E672D282D0E941319B02EBA0CB0
:10368000BA94C601672D4B2D282D0E941319AE0C3C
:10369000100FC601692D4A2D212F0E941D19F90C0A
:1036A000FA94C6016F2D4A2D212F0E941D19C601C3
:1036B000672D4A2D2E2D01E00E94E219FE18C60149
:1036C0006F2D4A2D2E2D02E00E94E219BE18C60170
:1036D0006F2D4B2D2E2D04E00E94E219C601672D9F
:1036E0004B2D2E2D08E00E94E2191F910F91FF90A3
:1036F000EF90DF90CF90BF90AF909F908F907F9092
:1037000008958F929F92AF92BF92CF92DF92EF92E5
:10371000FF920F931F936C01162FA42E922EF02E62
:10372000BE2C8E2C860E2EEFE29EE02C11242E2D28
:10373000290D682D0E942719AB0CFA94FE0C11502C
:10374000190D1B19C601612F4A2D2B2D01E0EF2CFD
:103750000E94911AC601682D4A2D2B2D02E00E946D
:10376000911A1F910F91FF90EF90DF90CF90BF9033
:10377000AF909F908F9008953F924F925F926F927B
:103780007F928F929F92AF92BF92CF92DF92EF92F1
:10379000FF920F931F93CF93DF934C01362E442E4D
:1037A000F901A490319654906F010894C11CD11C6A
:1037B0008A2D992787FD9095079668E070E00E9412
:1037C000B835E62EFF24E7FCF09400E0C0E0D0E03E
:1037D00060E8662E712C26C0E12FE595E595E5950C
:1037E000FF27E7FDF095EC0FFD1FEC0DFD1DE491AB
:1037F0002E2F30E0812F8770A30102C05595479589
:103800008A95E2F724233523232B31F0612F630DB2
:10381000C4014B2D0E942B181F5F1A15ECF20F5F8D
:10382000CE0DDF1D051524F410E0B02EB40CF5CF3D
:10383000DF91CF911F910F91FF90EF90DF90CF908C
:10384000BF90AF909F908F907F906F905F904F90C0
:103850003F900895DC01FB0184918F5F14968C9357
:103860001497319684918F5F15968C9315973196A6
:103870005E96FC93EE935D9708953F924F925F9210
:103880006F927F928F929F92AF92BF92CF92DF9270
:10389000EF92FF920F931F93CF93DF93EC01862E4D
:1038A000A42E422F102F3F8C23E526170CF4ABC01B
:1038B0003FE23A150CF4A7C0C02EDD248C8190E0C5
:1038C00001979C01C29EC001C39E900DD29E900D97
:1038D0001124262F332727FD3095820F931F1816AA
:1038E00019060CF090C08D8190E09C01C29EC00131
:1038F000C39E900DD29E900D11242A2D332727FDB3
:103900003095820F931F181619060CF07CC099246D
:10391000442E55246DC09C0121503040421753075E
:1039200011F460E00EC0429EC001439E900D529E75
:10393000900D1124840F951FED8DFE8DE80FF91F5A
:1039400064914C9DC0014D9D900D5C9D900D112486
:10395000682C680EBB24792C780C3FC0E62EFF241F
:1039600060FF19C0113039F44B2D4A0DCE01672D7F
:103970000E942B182EC02C9DC0012D9D900D3C9DAA
:10398000900D11244A2D480FCE01662D212F012FB5
:103990000E9427191EC098A18F8D9817D1F09F8F74
:1039A000113039F44B2D4A0DCE01672D0E942B1892
:1039B0000FC02C9DC0012D9D900D3C9D900D11249C
:1039C0004A2D480FCE01662D212F012F0E94271965
:1039D0003F8EF594E7946E2DB3942B2D332727FD5E
:1039E00030958D8190E0281739070CF4B7CF939468
:1039F000492D552747FD50958C8190E04817590770
:103A00000CF489CF3F8EDF91CF911F910F91FF90E2
:103A1000EF90DF90CF90BF90AF909F908F907F906E
:103A20006F905F904F903F9008950F93CF93DF93E7
:103A3000EC01262F6A3049F48D819885899F802D6D
:103A400011249A85980F9A8726C06D3029F16985CF
:103A50004A8508850E943D1C9C816885969F402D63
:103A600011248985480F49878F818823A9F055271C
:103A700047FD5095699F9001112484E590E0821BD9
:103A8000930B8417950744F49D81699F902D112411
:103A90008A85890F8A87198681E090E0DF91CF912E
:103AA0000F9108951F93CF93DF93EC01162FF89495
:103AB0008E8560E00E946C2E8F8518161CF460E0E5
:103AC0000E946C2E1EBD0DB407FEFDCF8EB58F85F6
:103AD00018161CF461E00E946C2E7894DF91CF914F
:103AE0001F910895FF920F931F93CF93DF93EC01E3
:103AF000FF2400E010E06F2D6064CE010E94521D93
:103B0000CE0160E80E94521D8E8561E00E946C2EFD
:103B10008F8518161CF460E00E946C2EF801E15CA1
:103B2000FD4F90E080818EBD0DB407FEFDCF8EB5B8
:103B30009F5F31969435B1F78F8518161CF461E0BC
:103B40000E946C2EF3940C5A1F4F86E0F81699F6DB
:103B5000CE0160E40E94521DDF91CF911F910F9121
:103B6000FF900895CF93DF93DC0188EF91E0EFE3BE
:103B7000F2E0EF019C01199221503040E1F71996D3
:103B80001C9219971A961C92DF91CF910895EF928B
:103B90000F93CF93DF93EC014D876C872E87E88AD4
:103BA0000F8781E088878F8F18A28F83CE016CECFE
:103BB0007CE00E942A1C0E94FD1681E00E94DE1615
:103BC00085E00E94EC168CE00E94E7168D8561E08E
:103BD0000E94002E8C8561E00E94002E8E8561E09F
:103BE0000E94002E888918161CF461E00E94002EA5
:103BF0008F8518161CF461E00E94002E8889181623
:103C00006CF460E00E946C2E6AE070E080E090E06E
:103C10000E941D2D888961E00E946C2EEC852E2F5C
:103C2000332727FD3095F901E358FD4EE491F0E08C
:103C3000EE0FFF1FE759FD4E859194919C8B8B8B66
:103C40002F563D4EF90184918A8FED852E2F332713
:103C500027FD3095F901E358FD4EE491F0E0EE0FB9
:103C6000FF1FE759FD4E859194919A8B898B2F56B2
:103C70003D4EF9018491898FEF852E2F332727FD43
:103C80003095F901E358FD4EE491F0E0EE0FFF1F8F
:103C9000E759FD4E859194919E8B8D8B2F563D4E0D
:103CA000F90184918B8FEE852E2F332727FD3095D8
:103CB000F901E358FD4EE491F0E0EE0FFF1FE759E4
:103CC000FD4E85919491988F8F8B2F563D4EF90123
:103CD00084918C8FCE0161E20E94521DCE0164E17D
:103CE0000E94521D8B8587FF02C08FE78B876B85F3
:103CF0006068CE010E94521DCE0160E20E94521DFA
:103D0000CE016CE00E94521DCE010E94721DDF9117
:103D1000CF910F91EF900895CF93DF93DC01E0E80E
:103D2000F7E785919491ED01C75ADF4FAD014159F5
:103D30005F4F8150904C09F04EC0E6E9F7E7E491FF
:103D4000E883E7E9F7E7E4911496EC931497E8E940
:103D5000F7E7E4911596EC931597E9E9F7E7859174
:103D6000949117969C938E931697EBE9F7E78591BC
:103D7000949119969C938E931897EDE9F7E7E49147
:103D80009B96EC939B97EEE9F7E7E4919A96EC9378
:103D90009A97EFE9F7E7E491EA01E883E0EAF7E7C9
:103DA000859194915D969C938E935C97E2EAF7E7F8
:103DB000859194915F969C938E935E97E4EAF7E7E2
:103DC0008591949191969C938E939097E6EAF7E76C
:103DD0008591949132C08CE3888314961C92149739
:103DE0002FEF15962C93159780E293E017969C93EE
:103DF0008E93169784ED93E019969C938E93189763
:103E000081E09B968C939B979A968C939A97FA0154
:103E100020838CEA9DE05D969C938E935C978EED5B
:103E20009DE05F969C938E935E9784E79EE09196CB
:103E30009C938E9390978CE39FE093969C938E93A4
:103E40009297DF91CF910895E0E8F7E785919491FB
:103E50008150904C51F4DB01EBE8F7E784918D93AE
:103E6000319687E7E539F807C9F70895CF92DF92D1
:103E7000EF92FF920F931F936217730784F0E20E85
:103E8000F31E6E157F055CF44017510744F080E087
:103E9000C00ED11E4C155D051CF481E001C080E010
:103EA0001F910F91FF90EF90DF90CF900895EF92C8
:103EB000FF920F931F93CF93DF937C018C01025BE2
:103EC0001F4FC8010E94B21DC80165EF70E10E943A
:103ED000082FC8010E94721D83E00E94EC1681E247
:103EE00091E0EEEFFFE3099584E590E0E80EF91E1E
:103EF000F7011082C80160ED70E10E94532FC801E4
:103F00000E94721DE701CA54D040CE010E940318DE
:103F1000CE0164E00E94DB17882339F462E370E08D
:103F200080E090E00E941D2DF0CFDF91CF911F9196
:103F30000F91FF90EF9008950F931F93CF93DF930E
:103F4000EC018C01025B1F4FC80161E040E00E9460
:103F50009218FE01E95AFF4FCE5ADF4F85E598814E
:103F6000891B808326961882C855D040698D6130A0
:103F700009F43EC0613028F0888D653008F051C0EA
:103F80004BC0CE0185960E943728CE0160E00E948A
:103F90001817C8010E94B21DCA5ADF4F81E08883FA
:103FA000C655D040C80161E371E10E94082F6A8DB7
:103FB0007B8DC8014AE050E00E94F62FC8016DE1F8
:103FC00071E10E94082FC8010E94721D83B7817F92
:103FD000846083BF83B7816083BF83B7816083BF01
:103FE000889583B78E7F83BF83B78E7F83BF1FC0C3
:103FF000C059DF4F88819981AA81BB818F709070F1
:10400000A070B0700897A105B10518F4C80167E069
:104010000CC0C80168E709C0882349F06B5FC8017C
:1040200004C0882321F0C8016FE20E942B2FDF918A
:10403000CF911F910F910895AF92BF92CF92DF92CF
:10404000EF92FF920F931F93CF93DF93EC01CB5727
:10405000DF4F8881C558D040882309F44AC08C308E
:1040600010F010E002C01CE0181BCA5ADF4F81E0BC
:104070008883C655D0406EE4C62ED12CCC0EDD1EF2
:10408000C60160E00E948E1853E5A52EB12CAC0E3F
:10409000BD1EF50100814DE2F42E4F2D401B410F56
:1040A0000D5FC60160E024E533E0E32E0E94811B32
:1040B000C60161E00E948E18F5010081F01AF10E30
:1040C0000D5FC60160E04F2D24E50E94231BC95AF5
:1040D000DF4F84E08993F5018081181B115D1883FF
:1040E000AB9669917991C6010E94082F8881815011
:1040F0008883DF91CF911F910F91FF90EF90DF9018
:10410000CF90BF90AF9008954F925F926F927F9241
:104110008F929F92AF92BF92CF92DF92EF92FF92D7
:104120000F931F932C01FC01628C738C609470942C
:10413000882499240E94F72C5B016C010E94F72CC3
:104140007B018C01F201418052800E94F72C460EC7
:10415000571EA094B094C094D094E094F09400952D
:104160001095C601B501A80197010E948535A401EB
:1041700093010E948535460E571EC2010E943831B8
:104180001F910F91FF90EF90DF90CF90BF90AF9075
:104190009F908F907F906F905F904F900895AF9217
:1041A000BF92CF92DF92EF92FF920F931F93CF9324
:1041B000DF93EC01EFE7AE2EB12CA80EB91EF5018E
:1041C000E080F180028113810E94E92CE61AF70A4F
:1041D000080B190B7EE7C72ED12CCC0EDD1EF60185
:1041E000808190E0A0E0B0E08E159F05A007B107A8
:1041F00008F081C08E0106581F4FF801808191811F
:10420000A281B3810097A105B10509F474C00E9491
:10421000E92CF6012081620F711D811D911DF501B0
:104220006083718382839383FE01E059FF4F808115
:104230009181A281B3810196A11DB11D80839183DB
:10424000A283B383F80110821182128213820E942A
:10425000F72CCA58DF4F688379838A839B83C657BC
:10426000D040CE010E941D17CE010A960E9403186D
:10427000CE0148960E948F1781E032C08E010B5DFF
:104280001F4FC8010E948528C8010E94FC28C80150
:104290000E94DF29CE010E941C20CE010E949C1F9B
:1042A0008E01025B1F4FC8010E94721DCC5ADF4F66
:1042B0008881C455D040882319F4C8010E94B21DDA
:1042C0000E94F72CC658DF4F688379838A839B83CB
:1042D000249728813981621B730B7A936A9380E05B
:1042E000DF91CF911F910F91FF90EF90DF90CF90D2
:1042F000BF90AF900895C658DF4F88819981AA81F9
:10430000BB81CA57D0400097A105B10541F7B6CF90
:104310002F923F924F925F926F927F928F929F92D5
:10432000AF92BF92CF92DF92EF92FF920F931F93C3
:10433000DF93CF93CDB7DEB768970FB6F894DEBFA3
:104340000FBECDBF5C017B876A874C8724E530E0D8
:10435000A20EB31ED5011C92ECEAFFEFAE0EBF1EFB
:10436000842F90E0FB01E80FF91F319710825AE08B
:10437000452E512C4A0C5B1C45E2642E712C6A0CB4
:104380007B1C3EE4C32ED12CCA0CDB1CF4E5FA8363
:1043900020E329831D821C8232E03B8323E5822EA9
:1043A000912C8A0C9B1C02E5202E312C2A0C3B1CE4
:1043B000A501495A5F4F5E874D87B501685A7F4F07
:1043C000788B6F87D501A059BF4FBA8BA98B9C8B77
:1043D0008B8B01979E8B8D8BC5010E94CF208823EC
:1043E000D9F3C20163E044E00E94E517882331F06D
:1043F000BB81BF5FBB83C3010E94482AC20161E049
:1044000044E00E94E517882331F0EB81E150EB8313
:10441000C3010E94482AC20162E044E00E94E517FD
:10442000882331F0FC81FF5FFC83C3010E94482A8E
:10443000C20160E044E00E94E517882331F02C813E
:1044400021502C83C3010E94482A3C81303111F451
:104450001C8205C04C814F3F11F45FE05C836B818F
:10446000683011F41B8205C07B8177FF02C087E0B2
:104470008B83AC81BB27A7FDB095B987A887D401F2
:10448000EC912B81332727FD30953F832E83D1017B
:104490008C9190E08095909528853985AC01249F7A
:1044A000C001259F900D349F900D1124895D99279F
:1044B00087FD90955A81252F332727FD3095820F50
:1044C000931F62E070E00E94B8356A8384E18E1B1E
:1044D000F0E0E095F0956E817F816E9F90016F9F77
:1044E000300D7E9F300D1124820F992787FD909506
:1044F0007981272F332727FD3095820F931F62E0A4
:1045000070E00E94B8356983C20164E00E94DB1745
:10451000882399F18D81282F332727FD3095AD8988
:10452000BE892A173B07BCF48E819F8114E0880F57
:10453000991F1A95E1F7BC818B0F09F44DCF8A3092
:1045400009F44ACF8D3009F447CFEA85FB85E20FA5
:10455000F31F80831182ED81EF5FED83C3010E9421
:104560003C2AFD818F2F992787FD90952B893C89C7
:104570002817390714F43C853D83C20165E00E9489
:10458000DB178823A9F04D8141504D83C3010E9460
:10459000422A5D8157FF02C01D820AC06D81E62F4D
:1045A000FF27E7FDF0958A859B85E80FF91F1082AC
:1045B000C20166E00E94DB17882309F442C0C301F0
:1045C0000E943C2AC5010E94CF208823D9F3C6014E
:1045D00061E671E10E94532FC6016A857B850E94C6
:1045E0006630C60160E571E10E94532FC20164E0AC
:1045F0000E94DB178823E1F0C3010E943C2A6896E1
:104600000FB6F894DEBF0FBECDBFCF91DF911F91E3
:104610000F91FF90EF90DF90CF90BF90AF909F9061
:104620008F907F906F905F904F903F902F90089564
:10463000C20165E00E94DB17882321F2C3010E94BA
:10464000422AEE24FF2410E033C0D1018C9190E087
:104650000196EF89F88D9C01E29FC001E39F900DC8
:10466000F29F900D11246A81680FD4018C9190E023
:104670000196FC01EE9EC001EF9E900DFE9E900DF6
:1046800011244981480F2F89210FC60101E00E94A2
:104690003D1C2F89388D2F5F3F4F388F2F8B203156
:1046A000310599F60894E11CF11C105F103819F0DF
:1046B000188E1F8ACACFD1018C91BAEF8B9F802DA3
:1046C00011248250EA818E0FAD85BE858C93F40152
:1046D00080818F5FF9818F0FAF85B8898C93C60178
:1046E0006AE471E10E94082FF1018081FAEF8F9F47
:1046F000802D112482502A81820FAD85BE858C9336
:10470000F401808190E00196880F991FF9818F0F45
:10471000AF85B8898C93C60164E471E10E94082FCB
:10472000F1018081FAEF8F9F802D112482502A8120
:10473000820FAD85BE858C93F401208130E02F5F20
:104740003F4FC901880F991F820F931FF9818F0F67
:10475000AF85B8898C93C6016EE371E10E94082F82
:10476000C60160E00E948E18F101808190E0019600
:1047700028853985289FB001299F700D389F700DBD
:10478000112461503A81630FD4018C9190E001961D
:10479000EE81FF81E89FA001E99F500DF89F500D29
:1047A00011244250F9814F0FC60127E00E941319CE
:1047B000C60161E00E948E18D1012C91822F90E0F9
:1047C000F4010081019648855985489F7001499FF1
:1047D000F00C589FF00C11245EEFE50E6A81E60E96
:1047E000402F50E04F5F5F4FAE81BF81A49FF0012B
:1047F000A59FF00DB49FF00D1124E350B981EB0F8C
:104800002E5F029762E070E00E94B835280F0B5FC0
:10481000C6016E2D4E2FF3E0EF2E0E94231BF401F4
:1048200080814EE2481BC60160E024E50E94131916
:10483000C60160E00E948E18D4010C914FE2401B2B
:104840000F5FC60160E024E50E942719ED85FE8513
:104850001082D4018C91B0E3B81BEF85F889B08346
:10486000C60161E00E948E18C6016A857B850E94A0
:104870006630E989FA8980819181A281B38187704C
:104880009070A070B0700497A105B10508F0A4CD98
:10489000FD812F2F332727FD30954D895E89241701
:1048A00035070CF099CDD1018C9190E0289FB00193
:1048B000299F700D389F700D1124F401808140E311
:1048C000481BC6012FE501E00E943D1C85CD2F92BB
:1048D0003F924F925F926F927F928F929F92AF9290
:1048E000BF92CF92DF92EF92FF920F931F93DF93CD
:1048F000CF93CDB7DEB762970FB6F894DEBF0FBE89
:10490000CDBF6C016C837D834B8324E530E0C20E08
:10491000D31EF60110822CEA3FEFC20ED31E1AE01E
:10492000A12EB12CAC0CBD1CB5E22B2E312C2C0CC5
:104930003D1CAEE44A2E512C4C0C5D1C1A823FEFFC
:10494000398310E0F0E37F2E6624A601495A5F4FB9
:104950005F834E83C601885A9F4F99878887F601E7
:10496000EA5AFF4FFB87EA8796012B5A3F4F3D8754
:104970002C87E3E58E2E912C8C0C9D1C5B81452FA2
:1049800050E05F874E878B818150888BC6010E94E3
:10499000CF208823D9F3C50164E00E94DB17882368
:1049A00069F4C50165E00E94DB17882339F4C5016D
:1049B00066E00E94DB17882309F4D3C0F40100816C
:1049C000C50164E00E94DB17882329F0C1010E9421
:1049D0003C2A1983CBC0C1010E94422AC7C0C5012D
:1049E00063E044E00E94E517882321F01F5FC101C6
:1049F0000E94482AC50161E044E00E94E51788232F
:104A000021F01150C1010E94482A812F992787FD6A
:104A100090952E853F858217930711F410E002C010
:104A200017FD1889F4018081819F902D11248C5FDE
:104A3000682E691A28C0872D992787FD9095262D05
:104A4000332727FD3095821B930B0297D4F489817D
:104A500062960FB6F894DEBF0FBECDBFCF91DF9147
:104A60001F910F91FF90EF90DF90CF90BF90AF908C
:104A70009F908F907F906F905F904F903F902F907E
:104A80000895F1E0FA83862D992787FD9095272DCB
:104A9000332727FD3095820F931F62E070E00E945C
:104AA000B835762EEE81FF811082E885F985608326
:104AB00021E0EA85FB852083EC85FD8510822C8131
:104AC0003D81C9019A8B898B00E0E12EFF24E7FC30
:104AD000F09420C0802F90E08E159F0569F423E0AC
:104AE000EE81FF812083F40180818E9D802D112431
:104AF000870DE885F9858083E989FA896591749144
:104B0000C2010E94532F0F5F29893A892E5F3F4FC0
:104B10003A8B298B3B810317E8F2C20160E00E94C7
:104B20008E18F40140814E9D402D11244150470DB7
:104B3000C20160E024E50E941319C20161E00E94F5
:104B40008E18F40100810E9D402D11244250470D16
:104B50000D5FC20160E024E573E0E72E0E94231B95
:104B600015CFFA81FF2309F066CF39CF802F90E06F
:104B7000909581959F4F2E853F85AC01249FC00164
:104B8000259F900D349F900D11246EEF662E680EB8
:104B900052CF2F923F924F925F926F927F928F925D
:104BA0009F92AF92BF92CF92DF92EF92FF920F93BC
:104BB0001F93DF93CF93CDB7DEB72B970FB6F89443
:104BC000DEBF0FBECDBF9B878A877A8369835C83F4
:104BD0004B838C0101591F4FF8018081882309F410
:104BE00022C18A859B858A5A9F4F9B878A8781E04D
:104BF000EA85FB85808312921292E455F040FB8790
:104C0000EA87108E9EE4E92EF12CEE0EFF1EC701FE
:104C100061E00E948E188AE0282E312C8A859B85BF
:104C2000280E391EB5E26B2E712C680E791EE981B3
:104C3000FA81F491FD83A7E58A2E912C880E991EA6
:104C4000F8E5CF2ED12CC80ED91EE2E54E2E512C00
:104C5000480E591E8D5A9F4F9F838E8370E7A72E53
:104C6000B12C8A859B85A80EB91E198708878A856D
:104C70009B850E94CF208823D1F39D81992311F435
:104C800010E003C0EE81FF811081C70160E040E0C9
:104C90002EE631E10E94BC1B8B819C81892B41F067
:104CA000145FC70160E0412F2B813C810E94BC1B37
:104CB000F40110828CE0F6018083C70169817A815A
:104CC0000E94082FF201208130E0C901880F991F4E
:104CD000820F931F909581959F4F8D5AF401808389
:104CE000EE81FF81208130E0C901880F991F820F7A
:104CF000931F909581959F4F835DF6018083F50109
:104D0000808184FF04C0C7016EEE71E103C0C7015A
:104D10006AEE71E10E94532FF201208130E0C90157
:104D2000880F991F820F931F909581959F4F8D5AE1
:104D3000F4018083F60180818F5F8083EA85FB85A3
:104D400082A5882321F0C70166EE71E103C0C70187
:104D500062EE71E10E94532FF201808190E09C018C
:104D6000220F331F280F391F309521953F4F2D5AA1
:104D7000F4012083F60180818F5F8083C7016EED8F
:104D800071E10E94532FC10165E00E94DB17882367
:104D900051F0EA85FB8562A56F5FC3010E944E2A30
:104DA000C3010E94482AC10164E00E94DB178823E6
:104DB00099F4E885F9856081262F30E040E050E0E5
:104DC000F50180819181A281B38182179307A407A5
:104DD000B50708F16F3FF9F08A859B8581599F4F90
:104DE0009B878A878FEFEA85FB858083EF56F040AB
:104DF000FB87EA87C30160E00E942C28C3010E9460
:104E00003C2A81E0EA85FB85808F0DC08A859B85E1
:104E10000E94571F2CCFC10166E00E94DB17882338
:104E200009F425CFF3CF2B960FB6F894DEBF0FBE53
:104E3000CDBFCF91DF911F910F91FF90EF90DF9049
:104E4000CF90BF90AF909F908F907F906F905F902A
:104E50004F903F902F900895AB0163EF71E10E9456
:104E6000C9250895AF92BF92CF92DF92EF920F9330
:104E7000CF93DF936C018EE790E0C80ED91E82E3DA
:104E8000F601808381E090E0A0E0B0E0B293A293CD
:104E9000929382936F0185EF9FEFC80ED91E8FEF1B
:104EA000F601808381E99FEFC80ED91EC6010E94DA
:104EB0008C1EC6010E941417C6016FEF0E941817BE
:104EC0004AE0A42EB12CAC0CBD1CC5010E94CB172E
:104ED000C5010E940318C60148960E948517C601A5
:104EE000825B9F4F6DE04BE020E10FE03EE0E32E60
:104EF0000E94C71DE601A596CE010E945B2AC5014E
:104F000065E00E94DB17882329F0CE0160E00E9453
:104F10004E2A06C0CE0164EF71E140E00E943B28BA
:104F2000DF91CF910F91EF90DF90CF90BF90AF9036
:104F300008950F93DC01002309F069C0623009F481
:104F400043C0633030F4662359F0613009F05FC02C
:104F50000DC0633009F444C0643009F058C04CC03F
:104F60004B3008F04AE056964C9351C0842F90E0A5
:104F7000880F991F1F962D913C915097280F391F2C
:104F8000F9018591949190969C938E935F97FC0183
:104F90004591549114968C911497849F602D1124FF
:104FA00091966C939197252F3327862F90E02817A1
:104FB000390708F4652F14968C911497689F802DFB
:104FC000112492968C9323C014968C911497489F29
:104FD000802D112459968C9359975A962C9317C06B
:104FE00014968C911497489F802D11245B968C9376
:104FF0005B975C962C930BC014968C911497489FEA
:10500000802D11245D968C935D975E962C930F9165
:105010000895FC01222371F4648B8481489F802DC4
:105020001124858B15A214A213A281E0878B809393
:105030003804108E0895FC01662369F4178A158AD6
:1050400014A213A2108E10923B0410923A041092F4
:1050500038041092B4000895CF93DF93EC016623D7
:1050600019F40E941B281982DF91CF91089560E006
:105070000E942C2808950F931F93CF93DF93EC0188
:105080008B01442371F460E00E942C281E870D8759
:105090001B8A1A8A81E0898389E08E8B198E1B8E88
:1050A0001D8EDF91CF911F910F910895CF93DF93C4
:1050B000EC01662339F58881882321F189818823D1
:1050C00009F5898590E0880F991FEF81F885E80F31
:1050D000F91F859194912FEF8F3F920711F4188259
:1050E00011C09C8790E0880F991FEA85FB85E80F27
:1050F000F91F65917491CE0140E00E943B2889859B
:105100008F5F8987DF91CF91089560E00E945628D4
:1051100008950F93CF93DF93EC01662309F068C0E5
:105120008981882309F464C08D89882309F060C0CF
:10513000EA89FB89EE0FFF1F4D855E85E40FF51FA1
:10514000259134912115310509F040C089898130BC
:1051500031F41B8A1A8AFA012591349137C01982D9
:105160008881882379F0CE0160E00E9456288A89E0
:105170009B89880F991FED85FE85E80FF91F259102
:10518000349124C0CE0160E00E941B2831C0E6E0CB
:1051900036952795EA95E1F76F70422F4F7175E0CC
:1051A000369527957A95E1F72051CE0100E00E94CF
:1051B00099278A899B8901969B8B8A8B880F991FD7
:1051C000ED85FE85E80FF91F25913491B90176959B
:1051D00067957695679520FDDACF6F73432FCE01E3
:1051E00020E00E9409288A899B8901969B8B8A8BE3
:1051F000DF91CF910F91089560E00E948928089572
:10520000CF93DF93EC01662309F0D6C08F89882302
:1052100009F4D2C08D89882321F4CE010E941B2875
:10522000CBC081508D8B8DA1882309F03BC08BA111
:105230009CA10196880F991FEF8DF8A1E80FF91F27
:1052400085919491282F27702EA3AC0163E0569589
:1052500047956A95E1F79A0136952795892F992701
:10526000869586958FA32F738C81289F202D1124DE
:105270002DA3417040933C048BA19CA101969CA35B
:105280008BA329A130E08217930760F08AA18823BD
:1052900029F0281B31093CA32BA304C0CE0160E0F8
:1052A0000E941B288DA181508DA3988D9F5F988FA0
:1052B0002FA18C89280F8C85280F2A836B8D66235C
:1052C00069F0892F992787FD909570E00E94B83585
:1052D0008C8D869F802D1124820F8A838A8190E095
:1052E000CB966BE370E00E94B8358A832E892B83BE
:1052F000698D662379F0888D772767FD70959927EA
:1053000087FD90950E94B8358A8D869F802D112447
:10531000820F8B836D8D662399F0888D992787FD89
:10532000909570E00E94B835CB0162E070E00E9479
:10533000B8359E8D899F802D11249B81890F8B8389
:105340008B818A300CF089E087FD80E08B838C892B
:105350008F3309F41B82F894EA81F0E0E85EFD4E99
:10536000E491E09339042D8130E08B81992787FD0A
:105370009095A901489F9001499F300D589F300D8D
:10538000112488A590E0A901489F9001499F300D04
:10539000589F300D11248EA1992787FD9095AC015F
:1053A000249FC001259F900D349F900D1124809360
:1053B0003A0480933B047894DF91CF91089560E0A4
:1053C0000E940029089560913A04662381F180913A
:1053D00037048F5F8093370490913904891738F12F
:1053E00030E080913804882309F431E030933804A8
:1053F0001092370480913C048823A9F080912E01FB
:1054000023E4829FC0011124895B80932E0190E0E8
:1054100070E00E94A43580933B0405C080913B045A
:105420008093B40008953323C9F780E0F9CF08953D
:105430001F920F920FB60F9211242F933F934F9309
:105440005F936F937F938F939F93AF93BF93EF93EC
:10545000FF930E94E329FF91EF91BF91AF919F913C
:105460008F917F916F915F914F913F912F910F900D
:105470000FBE0F901F90189560E172E140E00E940E
:105480003B28089568E072E140E00E943B280895BF
:1054900062E072E140E00E943B280895FC01862F03
:1054A000668170E06F5F7F4F992787FD90950E941E
:1054B000B835858308950F93FC0181E0848384E0EF
:1054C00080A783E592E1908B8787CF0161E040E080
:1054D00020E000E00E94992783E061E070E00E94F4
:1054E000A02DE1EBF0E08081887F81608083F894DB
:1054F00010928000E1E8F0E0108210928500109296
:10550000840088E191E090938900809388008081F5
:1055100088608083808181608083EFE6F0E0808115
:105520008260808378940F910895F999FECF72BDBF
:1055300061BDF89A80B50895F999FECF1FBA72BD82
:1055400061BD40BD0FB6F894FA9AF99A0FBE08955E
:105550000F931F93CF93DF93BC018230910510F41A
:1055600062E070E0E0914704F0914804A0E0B0E010
:1055700040E050E024C08081918186179707D0F0E9
:105580008617970771F482819381109729F01396FB
:105590009C938E9312972CC0909348048093470459
:1055A00027C04115510519F08417950718F4EF012C
:1055B0008D01AC01DF01828193819C01F90130975B
:1055C000D1F641155105F9F0CA01861B970B8430BD
:1055D000910580F48A819B810115110521F0F80164
:1055E0009383828304C09093480480934704FE0110
:1055F00032962FC0FE01E80FF91F61937193029755
:105600009983888326C08DB79EB788579040209194
:105610002F013091300128173907C8F4AC01421B23
:10562000530B4617570798F0CB01029648175907B6
:1056300070F0820F931F9093300180932F0190930D
:10564000320180933101F9016193719302C0E0E06E
:10565000F0E0CF01DF91CF911F910F910895CF938B
:10566000DF939C01009709F48FC0EC0122971B8205
:105670001A8260914704709148046115710581F4A4
:1056800088819981820F931F20912F0130913001E1
:105690002817390739F5D0933001C0932F0174C012
:1056A000DB0140E050E0AC17BD0708F1BB83AA83E3
:1056B000FE0121913191E20FF31FAE17BF0779F47C
:1056C0008D919C911197280F391F2E5F3F4F398381
:1056D000288312968D919C9113979B838A83411501
:1056E000510571F4D0934804C09347044DC01296FD
:1056F0008D919C911397AD01009711F0DC01D3CFF0
:10570000DA011396DC93CE931297FA01219131912D
:10571000E20FF31FCE17DF0769F488819981280F04
:10572000391F2E5F3F4FFA01318320838A819B818D
:1057300093838283E0E0F0E0DB0112968D919C91EF
:105740001397009719F0BC01FD01F6CFAB014E5F36
:105750005F4FDB018D919C91840F951F20912F014C
:10576000309130012817390779F4309729F41092D5
:1057700048041092470402C01382128242505040E3
:105780005093300140932F01DF91CF9108956F9294
:105790007F928F929F92AF92BF92CF92DF92EF92C1
:1057A000FF920F931F93CF93DF938C01009729F4FF
:1057B000CB010E94A82A8C01B4C08EEFE82E8FEF97
:1057C000F82EE00EF11E5801A60EB71EAE14BF044F
:1057D00008F4A5C0D7014D915C9111974617570762
:1057E000B8F04530510508F49CC0CA0104978617EB
:1057F000970708F496C042505040461B570BF501DE
:10580000419351936D937C93CF010E942F2B89C0BC
:105810004B01841A950A3801640E751EA091470445
:10582000B0914804CC24DD24E0E0F0E047C0A615A8
:10583000B705A9F5CD91DC911197CE010296881597
:10584000990568F1CE0188199909029612962C9152
:10585000129713963C91059758F0F50122833383F4
:10586000C819D909D183C083D7016D937C9309C02E
:105870004E5F5F4F4C0F5D1FF70151834083C9019D
:10588000FC01C114D10431F0D6011396FC93EE93C0
:10589000129747C0F0934804E093470442C08D91AB
:1058A0009C911197E817F90708F4FC016D01129615
:1058B0008C91129713969C919C01D901109709F035
:1058C000B6CF80912F019091300186159705B1F4E4
:1058D000E617F70798F48DB79EB788579040A8163B
:1058E000B906E8F4B0923001A0922F01B0923201D3
:1058F000A0923101F7017183608313C0CB010E9434
:10590000A82AEC01009759F0D7014D915C91B8019C
:105910000E946F36C8010E942F2B8E0102C000E04A
:1059200010E0C801DF91CF911F910F91FF90EF9090
:10593000DF90CF90BF90AF909F908F907F906F90AF
:1059400008951F920F920FB60F9211242F933F9339
:105950008F939F93AF93BF938091420490914304A0
:10596000A0914404B0914504309146040196A11DD4
:10597000B11D232F2D5F2D3720F02D570196A11D2E
:10598000B11D209346048093420490934304A09356
:105990004404B093450480913E0490913F04A0914B
:1059A0004004B09141040196A11DB11D80933E04B5
:1059B00090933F04A0934004B0934104BF91AF91F2
:1059C0009F918F913F912F910F900FBE0F901F903D
:1059D00018958FB7F8942091420430914304409178
:1059E0004404509145048FBFB901CA0108959FB77F
:1059F000F89420913E0430913F044091400450912E
:105A0000410486B5A89B06C08F3F21F02F5F3F4F12
:105A10004F4F5F4F9FBF542F432F322F2227280F06
:105A2000311D411D511D82E0220F331F441F551FA0
:105A30008A95D1F7B901CA010895EF92FF920F93A9
:105A40001F93CF93DF937B018C010E94F72CEB0116
:105A50000EC00E94F72C6C1B7D0B685E7340C8F370
:105A60000894E108F10801091109C851DC4FE1145B
:105A7000F1040105110569F7DF91CF911F910F9195
:105A8000FF90EF900895789484B5826084BD84B5CA
:105A9000816084BD85B5826085BD85B5816085BD29
:105AA000EEE6F0E0808181608083E1E8F0E0108242
:105AB000808182608083808181608083E0E8F0E083
:105AC000808181608083E1EBF0E08081846080836D
:105AD000E0EBF0E0808181608083EAE7F0E08081A4
