:100000000C9463090C948B090C948B090C948B0948
:100010000C948B090C948B090C948B090C948B0910
:100020000C948B090C948B090C948B090C94992BD0
:100030000C948B090C948B090C948B090C948B09F0
:100040000C94222E0C948B090C948B090C948B0924
:100050000C948B090C948B090C948B090C948B09D0
:100060000C948B090C948B0905A84CCDB2D44EB9D5
:100070003836A9020C50B9918688083CA6AAAA2A4B
:10008000BE000000803F1300761F033844404A0042
:100090000020203E002F5E5674002A235D39050E95
:1000A0003E715D0662236E2C036F31773C032F5E39
:1000B0007F7F040E741E7B03FFFFFFFFFFFFFFFF28
:1000C000FFFFFFFFFFFFFFFF8FFFFFFF80007FFFAE
:1000D000E0000007E0FFFFFF8000000000000000DC
:1000E00000000007EE0000FFFCFFC0001FFE000044
:1000F000077BDDE60F007EFFF8FF8FE7803E7FF392
:10010000E77BDDE66F7F7EFFF1FF1FE780307FF347
:10011000E70001E6E07F7EFFF3FE3FE7FF307FF37D
:10012000E77BDDE67FFF7EFFF3FC7FE7FF337FF3B6
:10013000E77BDDE03FFF7CFFF3F8E007FF337FF371
:10014000E77BDDE780FF01FFF3F1C7E7C0337FF313
:10015000E70001E7BEFF7FFFF3E38FE7DF336023B4
:10016000E7FFFFE7BEFF7FFFF3E71FE7DF336F83A4
:10017000E70000603EFF7E0FF3E63FE7DF336F8767
:10018000E7000067FEFF7C07F3E40003DF336FBF87
:10019000E73F9E67FEFE7803E0E0DBD81F336FBFCA
:1001A000E73F1E603EFCF003E0E1DBDBC000000047
:1001B000003E3E678001E043E4E7D99BFF03F8007F
:1001C000007C7E67BFFFC0C3E0E7D99BFFCFF9FF8C
:1001D000FFF8FE603FFF81C3E0E7DDBBFFCE01FF1C
:1001E000C001FE67FFFF03C3F3E7DDBBFC00F9FFBF
:1001F000C003FE67FFFE07C3F3E7C003F80FF9FF74
:10020000CFFFFE07FFFE0FC3F3E7FCFFF0FFF80090
:100210000FFFFE0300001FC3F3E7FCFFF3FFF8002E
:100220000FFFFFD000003FC3F3E7FCFFF3FFF9FF30
:10023000E7FFFFD078007FC3F007FCFFF3FFF9FF73
:10024000F7FFFFDCF800FFC3F3E7FCFFF20000005C
:1002500000000004F9FFFFC383E3FCFFF20000008D
:1002600000000004F1FFFFC383F3FCFFF27FFFFEF9
:10027000FCFCFFE4E3FFFFC39FF1FCFFF27FF00013
:10028000FCFCFFE487FFFFC39FF8FCFFF27FF7FF52
:100290008CFCE0641FFFFFC39FFC7CFFF27FF7FF35
:1002A000AC0000643FFFFFC39FFE00000200070197
:1002B000A4000664FFFFFFC38000000000000001EF
:1002C000B7EFFE64F801FFC7800007FF307F703989
:1002D000B0000264F0007FC7FFFFC7FF36417F39DF
:1002E0009FBFFA04E3FC7FC7FFFF8FFF365D003836
:1002F0001C3F8A04E7FE7FC7FFFF1FFF365D003803
:1003000001002260CFFE7FC7FFFE3FFF365D3F3F0B
:10031000FBEFBE60CFFE7F87FFFC7FFF32513E00C8
:10032000FA2FBE640C067F87FFF8FFFF30113E7E78
:10033000F8AFBE640D507F87FFF1FFFF3A513E7E5C
:10034000FDAF8064CD567F0FFFE3FFFF3A5F3E7045
:10035000018F8064C5563F0FFFC3FFFF3A5F3E70B9
:10036000000033E4E5571E0FFFC3FFFF0A403E7352
:10037000FFFFF3E4E003840FFFC3FFFF02403E03EF
:10038000FFE00004E0FBC01FFFC3FFFF3E7FBE0392
:10039000FFE00004F0FBE01FFFC3FFFF3E7FBFF064
:1003A00007E7EEFCFC387C1FFFC3FFFF3E7FBFFF6B
:1003B000F7E7EE00FE0F3E1FFFC3FFFF3E603FFF6B
:1003C000F7E70EFCFF879E0FFFC3FFFF3E6FFFFFA7
:1003D000F3E77E0CFFE1DF0FFFC3FFFF206FE000BC
:1003E000FBE700AC01F1DF0FFFC3FFFF046FEFFE7F
:1003F000FBE77FA001F98387FFC3FFFF8E6FEFE06C
:1004000003E77FBDF8F9BB87FFC3FFFF9E60000FC6
:10041000CFE4001DFC7983C3FFC3FFFF9E7FEFFF86
:100420008FE5F7D9FC783BE1FFC3FFFF9E7FEFFF2D
:100430009FE5F7DBFE7983E1FFC3FFFF1E7FEFFF40
:100440003FE5F7DBFE79BBE1FFC3FFFF027FEFFF74
:100450003FE4F01BFE7983C3FFC3FFFF3A000000B7
:100460000006F7FBFE79BBC3FFC3FFFF3A000000A5
:100470000006F7F9FE798387FFC3FFFF3BF3FFFF19
:10048000EFFE03FDFE79DF0FFFC3FFFF3801FE0023
:10049000EFC6F0040079DE1FFFC30000000000007B
:1004A0000000FFE00079DC3FFFC200001FFC00FFFE
:1004B0000010FFFFFE781C3FFFC27FE78FFFFFFFAA
:1004C0003F79FFFFFE79FC3FFFC2FFE7C7FFC0FF98
:1004D0003C79FFFFFE79FC3FFFC2FFE7E3FF9EFF91
:1004E00030F9FFFFFE79FC3FFFC2FFE1F0003EFF65
:1004F00037F9FFFFFE79FC3FFFC2FFE0FFFF9E00E0
:100500000000007FFE79FC3FFFC2FFE43FFFC00018
:100510000000007FFE79FC3FFFC2FFC70FFFFCFF1A
:1005200037F9DE7FFE79FC3FFFC2FFCF83FFFCFF80
:100530003079DE7FFE71FC3FFFC27FCFE07FFCFFA2
:100540003F79DE7FFC01FC3FFFC203CFF83FFCFF99
:10055000000000000007FC3FFFC3F3CFFF1FFCFFBC
:1005600000000000009FFE1FFFC3F000000000001D
:100570003F79FE7FFF9FFE1FFFC3C0000000000009
:100580003F79027FFF9FFF0FFFC383D79EBCFCFF15
:100590003C78007FFF9FFF0FFFC207D79EBCFCFF88
:1005A00038F87807FF9FFF0FFF0027D79EBCFCFF9E
:1005B0003BF9FE03FF9FFF0FFE00E7D79EBCFC0048
:1005C0003BF9FE71FF9FFF87FC43E7D79EBC00000D
:1005D00000000078FF1FFF87F8C3E7D79EBCFF5FCE
:1005E0000000007C7F1FFF87F1C3E7D79EBCFF5F41
:1005F0009F7BB73E3F3FFF87E3C3E7D79EBCFF5FCC
:100600009F7BB79F1F3FFF87C7C3E7D79EBCFF5F96
:100610009F7BB78F9F3FFF87CFC3E7D79EBCFF5F0E
:100620009E7BB7C39E3FFF87CFC3E7D79EBCFF5FCC
:100630009EFBB7F39C1FFF87CFC3E00000000000C4
:100640001EFBB7F801DFFF87CFC3E000000000000A
:1006500000000001FFC00007C043FEDB1B6DB6DBDE
:100660001FFFFF9FFF000007CC43FFFF00000003B8
:1006700081FFFF9FFC00000FCC43FFFF3FFFFFFF08
:10068000C07FFF87FC00001FCFC3FFFE7FFFFFFF7F
:10069000F83FFFE3F83FFFFFCFC3FFFC7FFFFFFF03
:1006A000FE3FFFF8F0FFFFFFCFC3FFFCFFFFFFFFA0
:1006B000FF1FFFFC61F80001CFC3FFF0FFFFFFFF4A
:1006C000FF9FFFFE01E1FF9DC043FFE1FFFFFFFE33
:1006D0001F9FFFFE01EFFFDDCC43FFE3FFFFFFFEA7
:1006E0000F9F03FFE1EF801DCC43FFE7FFFFFFFEFD
:1006F000CF9E03FFE1EF9FFDCFC3FF8000001FFEF1
:100700008F9E33FFC1E03FF9CFC3FF0000000FFE13
:10071000800033FF83EF8001CFC3FE00000007FE9F
:100720009F8003FF03EFBCFBC7C3FC00000007FE74
:100730001F9F07FE07EFBCFBE3C3F81CFFFF83FF0F
:10074000FF9FFFFC07E03C1BF1C3F03C7FFF81FFF4
:10075000FF9FFFF807FDFC0BF9C1E07E3FE1C0FF02
:10076000FF9FFFF021FDF8CBF9C000FF1FEDE07FF8
:10077000FF9FFFE070FDE0C3F9E001FF83EDE01FA4
:10078000FF9FFFC0F83D87C7F9F003FFC0EDF003FE
:10079000FF9FFE01CE0D0FCFF9F807FFF8001800FC
:1007A0007F9FFC03C7843F8FF9FC0F80FE6FDF0043
:1007B00000000007D3E0BF1FF9FFFF3EFE6FDFE040
:1007C0000000003F83E3BE3FF9FFFC7EFE6000FCBB
:1007D000000001FE07E7BC7FF9FFF9FEFE7FFEFE89
:1007E000000003F863E73CFFF9FC03C0000002FFD0
:1007F000FF9FFFE1F3E73CFFF9FDFF80000F7AFF69
:10080000FF9FF807FBE77CFFF87DFF9EFFCF780195
:10081000FF9FFBFFF1E7787FF31DFF9EFFCF03FDF6
:10082000FF9FF1FFE0C6787FF7C07F9EFFCFDFFC20
:100830000000040004067B7FE7FF001EFFC00000ED
:1008400068000004040EFB7FEFFF001E7F00000025
:10085000002FB1F1E0BEFB7FEFFE7BFF7F7E1FFC30
:100860003F2F9FFBF1BEFB7FE7FEF9FF007F87FC78
:10087000002FD003FBBE037FF07CFCFFFBFFC1FF1A
:100880007FE0D001FBBEFF7FFF01FE0003FFF00011
:10089000000003F80000FF7FFFFFFFFFFFFFFC00E9
:1008A000000E07F80000007FFFFFFFFFFFFFFFFFC4
:1008B000FFFFFFFFFFFFFFFF1010FFFFFFFFFFFD28
:1008C000F7FAEBFFFFDFFFAFFFFFFFFFFBFFF5FFD7
:1008D000FFDFFFAFDFFFAFFFFFFF10100000500092
:1008E0002028501000280000000001400080014036
:1008F0000000001428081014280000001010000048
:1009000010006D005408AA1454086C201000001048
:10091000006C045410AA2854106C00100000101031
:1009200000007FFE6B5657AA7FFE6B5657AA7FFECC
:100930006B5657AA7FFE4002400240027FFE000035
:10094000101000007FFE60065FFA500A520A504AFB
:10095000500A500A562A560A500A5FFA60067FFE6D
:100960000000101000200050382047FE550244823D
:1009700038F2210A12660A9606967666750A04F21D
:1009800007FE00001010000038007DFE7D027D0291
:1009900039FE7F024002400240027FFE0200253CF9
:1009A000523C200000004024000000000000000035
:1009B00000000000C000000000000000C0000000B7
:1009C00000000000000000007FC3060CFF0781024A
:1009D00006070308C018610206058118C01031021D
:1009E000060481B0C0301102060C80E0C020110264
:1009F0000608C0E0C0201102061840E0FE201102E7
:100A0000061FE1B0C020110206106110C0301102B3
:100A100006302318C01031020620360CC01861863B
:100A200006601C04C0078078000000000000000081
:100A3000070000000000000001FC000000000000B2
:100A400007763C000000000000DE350000000000DA
:100A500001D01D8000000000003F906000000000F9
:100A6000002C9C3000000000006E9E9800000000EA
:100A700000FFD3FFC000000003807E0030000000B4
:100A800006208100100000000C00E1007000000052
:100A90000820817FC00000001BFF81BD8000000096
:100AA00033FF81FE800000003CCCFF6600000000A8
:100AB00000CC00660000000000FC007E000000008A
:100AC0000078003C000000001809FFFFA0C0006093
:100AD000CDB5E0960C60964C40960C60CDB5E0C06C
:100AE0000060FFFFA0130B1C0B270B320B3E0B4AC1
:100AF0000B424553542053434F5245004E657720D7
:100B00007265636F7264732100080838B9927C10B3
:100B1000102844436F6E74696E75650033206D69EB
:100B20006E20706C61790035206D696E20706C618B
:100B300079003130206D696E20706C6179004869F0
:100B400067682073636F726573004D61696E204D35
:100B5000656E750003030705070504050504050315
:100B600006030207020201020203020E090E0E0D25
:100B70000E0E0F0E070507050307050F05070507EE
:100B80000607010205020007020207000207020031
:100B90000207020007060306070702020505020115
:100BA000020204020005020205000607050507050A
:100BB000020302020602000000000B00030003070C
:100BC00005070407010502050707040003000007E5
:100BD00005050700050005020702000C00020202DD
:100BE00000040004020107050705070401070405C6
:100BF00007020302070407010706060101070707AA
:100C000007030307000500000D00020500050505A8
:100C10000005020107030F09030603060707020286
:100C20000505070702070705070301070506070271
:100C30000705070504040307020507040407030763
:100C40000701060705070703030705030703060453
:100C5000070101070107040703040307060705024C
:100C6000050106010107040007050102040507004C
:100C70000201020808080003000603060707020233
:100C80000505070502070705070301070506070213
:100C90000705070504040307020507040407030703
:100CA00007010607050707030307050307030604F3
:100CB00007010107010704070304030706070502EC
:100CC00005010601010704020705000700050702E8
:100CD00006020307050703053F213F1208120A1009
:100CE0000A0E1C0E0C1E0C141A14161F161E131EB0
:100CF0001E1B1E1E1F1E3F213F3A2F3A173D173F56
:100D0000213F181F02040A041F0E04040E1F0A1FAD
:100D10000A0E0E1F04110E2E252E2F2A2E262929EB
:100D2000021F02081F08150E04040E150E15151BD0
:100D3000151B040604040C04000000001700030047
:100D4000031F0A1F16371A1904130A153A00030065
:100D5000000E11110E000A040A040E0400300004F3
:100D600004040010001804031F111F121F101D158A
:100D70001711151F07041F17151D1F151D01011F32
:100D80001F151F17151F000A00003200040A110A60
:100D90000A0A110A040115020E11171E051E1F155D
:100DA0000A0E110A1F110E1F15111F05010E111D2C
:100DB0001F041F111F1108100F1F041B1F10101FED
:100DC000061F1E040F0E110E1F09060E112E1F0501
:100DD0001A121509011F011F101F0F180F1F0C1FDA
:100DE0001B041B031C03191513001F110304181106
:100DF0001F000201022020200001020C121E1F12FF
:100E00000C0C12120C121F0C1A14041E05242A1E9C
:100E10001F021C141D1020201D1F0814111F101E5E
:100E2000041E1E021C0C120C3E0A040C123E1E0470
:100E30000214160A020F120E101E0E100E1E081EAD
:100E4000120C1226281E322A26041E21001F002101
:100E50001E040102013F213F05077F4141417F3EC2
:100E60005B4F5B3E3E6B4F6B3E183C783C18183C2A
:100E70007E3C181C577D571C1C5E7F5E1C007E4309
:100E8000437E007E73737E007E7F7F7E7F41414183
:100E90007F30483A060E06297929067F4141417F75
:100EA00060703F02042A1C361C2A7F3E1C0800008A
:100EB000081C3E7F14227F22143C3C3C7EFF1842DB
:100EC0003C817E3E6375633E3E616B633E3E636B79
:100ED0006B3E04027F020410207F201008082A1CA9
:100EE00008081C2A0808143E554122637569756379
:100EF00010181C1810040C1C0C040000000000004A
:100F0000005F00000007000700147F147F14042A0C
:100F10007F2A1023130864623649562050000807C0
:100F20000300001C2241000041221C002A1C3E1C20
:100F30002A08083E080800E06000000808080808C1
:100F4000006060000060100804033E5149453E0007
:100F5000427F400062514949462141494D331814AE
:100F6000127F1027454545393C4A494930412111F6
:100F700009073649494936064949291E0000240017
:100F8000000080640000081422410014141414149A
:100F9000004122140802015909063E415D594E7C68
:100FA0001211127C7F494949363E414141227F411D
:100FB00041221C7F494949417F090909013E4141BC
:100FC00051327F0808087F00417F41002041413FA6
:100FD000017F081422417F404040407F020C027F85
:100FE0007F0204087F3E4141413E7F090909063ED8
:100FF000416141BE7F09192946264949493201010B
:101000007F01013F4040403F1F2040201F3F4038AC
:10101000403F631408146303047804036151494595
:1010200043007F41410003040810600041417F00FC
:1010300004020102048080808080000307080020F1
:10104000545478407F284444383844444428384431
:1010500044287F3854545418087E09090218A4A45F
:101060009C787F0804047800447D40000060808400
:101070007D7F1010284400417F40007C0478047874
:101080007C080404783844444438FC182424181894
:10109000242418FC7C080404080854545420043FF9
:1010A0004444203C4040207C1C2040201C3C4020EC
:1010B000403C44281028444C9090907C4464544C0C
:1010C00044000836410000007F000000413608005F
:1010D000180408100C7F4141417F0A4E6F20534491
:1010E0002063617264206F720A6E6F204C4F41441E
:1010F00045522E4845580A0A153A45786974001D2C
:1011000020466C617368696E670A20206C6F6164A9
:1011100065722E2E2E0A0A444F4E275420545552E3
:101120004E204F464621006D560A0A504C45415309
:10113000450A5455524E204F4646004C4F572042C8
:101140004154544552590A0017736176650016627E
:1011500061636B001574797065000A0A0A153A6FAD
:101160006B617920163A6564697400596F75206562
:101170006E74657265640A00540A03E181867F3EDD
:10118000186D830F0F0E0183866033186DC3198F9E
:101190001803C38E6033186DE330CF1803C39E600D
:1011A0003630CDE360CF3006C79E7E3E30CDB36093
:1011B000CF300CC6F6603330D9B660CF33CFCCF623
:1011C0006061B0DB1E60CF30D86CE6C061B0DB1E62
:1011D000618F19986CC6C063B19B0E330F0FB07846
:1011E000C6FF7E1F1B061E0F175344001613780000
:1011F0001613140015102000152010000000050023
:1012000089300802380249786814000045006801F6
:101210000000050068013801000005003801680180
:101220000000F6E8DBCFC3B8AEA49B928A827B7441
:101230006E68625C57524E4945413E3A3734312E12
:101240002C29272523211F1D1C1A191716151413C5
:101250001211100F0E0D0C0B0A090807066112651A
:10126000120101F7030101FF030000000024002721
:10127000002A0000000000250028002B00000000CC
:1012800000230026002900040404040404040402CA
:101290000202020202030303030303010204081013
:1012A00020408001020408102001020408102000E0
:1012B0000000070002010000030406000000000017
:1012C00000000000D70A11241FBECFEFD8E0DEBF18
:1012D000CDBF11E0A0E0B1E0EAEFF0E702C0059079
:1012E0000D92A434B107D9F714E0A4E4B1E001C031
:1012F0001D92AB35B107E1F712E1C6ECD2E104C0B3
:101300002297FE010E948B37C43CD107C9F70E9487
:1013100050300C947B380C940000AF92BF92CF9267
:10132000DF92EF92FF920F931F93E090F301F09002
:10133000F4010091F5011091F6016091EB017091BB
:10134000EC0180E090E00E9425355B016C0160912A
:10135000F7017091F8018091F9019091FA0120E074
:1013600030E048EC52E40E941036A80197010E9438
:101370008C3420E030E048EC52E40E9420340E949B
:10138000F434882777FD8095982F0E9427359B019C
:10139000AC01C801B7010E948C349B01AC01C601AD
:1013A000B5010E9421340E94F9347093EC016093DE
:1013B000EB0180E090E0A0E0B0E08093F301909337
:1013C000F401A093F501B093F6018093F701909397
:1013D000F801A093F901B093FA011F910F91FF90CA
:1013E000EF90DF90CF90BF90AF90089583E080930F
:1013F000E20180E090E0A0EAB1E48093CA0190931A
:10140000CB01A093CC01B093CD018093CE019093FA
:10141000CF01A093D001B093D10180E090E0A0E093
:10142000B0E08093D2019093D301A093D401B09304
:10143000D5018093D6019093D701A093D801B093A2
:10144000D9018093DA019093DB01A093DC01B09382
:10145000DD018093DE019093DF01A093E001B09362
:10146000E1018FEF9FEF9093340180933301089552
:101470000F931F938C0110925C010E94F60980E08B
:1014800090E0A0E0B0E08093EF019093F001A09392
:10149000F101B093F2018093F3019093F401A093D2
:1014A000F501B093F6018093F7019093F801A093B2
:1014B000F901B093FA011092EE011092ED01109231
:1014C000EC011092EB011092E8011092E7011092EA
:1014D000FB0180EB94E09C01029FC001039F900DF3
:1014E000129F900D11249093EA018093E9011F91BE
:1014F0000F9108958091FB01882349F08091E701C5
:101500009091E80101969093E8018093E701809122
:10151000E9019091EA0101979093EA018093E90132
:1015200008958330A1F0843028F4813051F0823066
:1015300058F41AC0853089F0853060F0863099F40F
:101540000FC02AED38E012C02CEF38E00FC02EE1BA
:1015500039E00CC020E439E009C022E639E006C0D9
:1015600024E839E003C0089528EB38E0C901089564
:10157000E62FF0E094E0EE0FFF1F9A95E1F7282F99
:10158000269526952695E20FF11DE854FF4FE4912C
:101590002E2F30E090E0809590958770907002C07B
:1015A000359527958A95E2F7822F817008951092DC
:1015B0009501109294018FE391E0909393018093B1
:1015C000920108954F925F926F927F928F929F92B5
:1015D000AF92BF92CF92DF92EF92FF920F931F9341
:1015E000CF93DF938091FE019091FF012FEF813F18
:1015F000920714F4662486C060E170E00E943937D7
:10160000662E80C08091FC019091FD01EFEF813F3B
:101610009E0714F4772405C060E170E00E9439371A
:10162000762E240154E0440C551C5A95E1F750C025
:10163000872D662D0E94B80A882309F448C0C0E0AF
:10164000D0E0FE01EA57FF4F2491FE01E957FF4F1A
:101650000491FE01E857FF4F4491CE0187579F4FF9
:10166000FC01C49030E010E0E42EFF24E21AF30AFB
:10167000DD24C01AD10A84E491E0B501A4010E94DE
:10168000B720882329F0C657DF4FFE01849105C09B
:101690002596C233D105A9F682E00E94910A9C01E9
:1016A00044E0AA0CBB1C4A95E1F78091FC019091A3
:1016B000FD01A81AB90A8091FE019091FF01A201D3
:1016C000481B590B82E991E06A2D0E943D1D7394DD
:1016D000A72CBB248091FC019091FD01F7E08C3A8E
:1016E0009F071CF060E870E008C08C5A9F4F60E1D3
:1016F00070E00E9439376F5F7F4FA616B7060CF473
:1017000097CF6394862C99248091FE019091FF01DC
:1017100027E0803D92071CF060E870E007C0C096AB
:1017200060E170E00E9439376F5F7F4F8616970641
:101730000CF468CFDF91CF911F910F91FF90EF9044
:10174000DF90CF90BF90AF909F908F907F906F90E1
:101750005F904F9008950F931F9304E411E0C80128
:1017600066EA79E00E94AD28C8010E9405221F9117
:101770000F9108952F923F924F925F926F927F92B6
:101780008F929F92AF92BF92CF92DF92EF92FF9291
:101790000F931F93DF93CF93CDB7DEB7A0970FB60C
:1017A000F894DEBF0FBECDBF8B8B6C8BFA010D8B17
:1017B0001E8B2F8B388F24912D87319634913C8747
:1017C0003197822F27FD8F5F282F2595AF014E5F20
:1017D0005F4F5C834B835091B10159876D85862F94
:1017E000992787FD9095079668E070E00E94393749
:1017F000862F992787FD90959A8389838C8587FD0D
:101800008F5F8595992787FD9095AA27BB27A81BF1
:10181000B90BBE83AD831A8618861F82822F992743
:1018200087FD9095EE27FF27E81BF90BFE8FED8FC4
:10183000FEC0EB85E595E595E595FF27E7FDF0957D
:101840002F813885E20FF31F4B815C81E40FF51F78
:10185000E4912E2F30E08B85877060E870E002C045
:10186000759567958A95E2F726233723232B09F48C
:10187000C0C0AF8DB8A1BD01882777FD8095982F96
:101880000E9427351B012C016D897E898F89988DD7
:101890000E9489346F87788B898B9A8B698D7A8DBA
:1018A0008B8D9C8D0E9427353B014C016D897E8973
:1018B0008F89988D0E9473365B016C01C201B10162
:1018C0002F85388949895A890E9410367B018C01FD
:1018D000C401B301A60195010E9410369B01AC0121
:1018E000C801B7010E9420340E94F434BB89B60FAE
:1018F000BE87B43508F07DC0C201B101A6019501D3
:101900000E9410367B018C01C401B3012F853889F8
:1019100049895A890E9410369B01AC01C801B70160
:101920000E9421340E94F4344C89460F47FD61C067
:1019300040330CF05EC0E985E23011F09E2F25C0E7
:10194000842F859585958595992787FD9095FE85AA
:101950002F2F332727FD309564E570E0869FF00137
:10196000879FF00D969FF00D1124E20FF31FEF5AA1
:10197000FD4F808190E0242F277002C095958795B8
:101980002A95E2F791E098279170542F5595559537
:1019900055957E85272F332727FD3095842F877017
:1019A0009923A9F494E55902F0011124E20FF31FE1
:1019B000EF5AFD4FA1E0B0E002C0AA0FBB1F8A950D
:1019C000E2F7CD01809520812823208312C0B4E561
:1019D0005B02F0011124E20FF31FEF5AFD4F21E0EB
:1019E00030E002C0220F331F8A95E2F78081822BFC
:1019F0008083EB85EF5FEB872F8D38A12F5F3F4F03
:101A000038A32F8F3B854D8534170CF412CF5A85A0
:101A10005F5F5A876F81788589819A81680F791F06
:101A200078876F83AD81BE811196BE83AD83BA8501
:101A3000EC85BE1784F42D8D3E8D38A32F8F1B8629
:101A40004D815E81662757FD6095762F498F5A8FAD
:101A50006B8F7C8FD7CFA0960FB6F894DEBF0FBEEA
:101A6000CDBFCF91DF911F910F91FF90EF90DF904D
:101A7000CF90BF90AF909F908F907F906F905F902E
:101A80004F903F902F9008950F931F93CF93DF9324
:101A90006091CA017091CB018091CC019091CD01F0
:101AA0000E94F434EB018091FC019091FD01C81B70
:101AB000D90B2091CE013091CF014091D0015091AE
:101AC000D1010091FE011091FF01CE0140968536B3
:101AD0009105D0F4CA01B9010E94F434601B710B66
:101AE0008FEF603F780784F0613371056CF40091EB
:101AF000DE011091DF012091E0013091E1018C2F96
:101B000048EC5AE00E94BA0BDF91CF911F910F91E0
:101B100008952F923F924F925F926F927F928F9291
:101B20009F92AF92BF92CF92DF92EF92FF920F936C
:101B30001F93DF93CF930F92CDB7DEB78EE491E082
:101B400062E041E00E9466198823B1F06091DE01F5
:101B50007091DF018091E0019091E10125E438ED81
:101B600040E25EE30E9421346093DE017093DF0166
:101B70008093E0019093E1018EE491E060E041E028
:101B80000E9466198823B1F06091DE017091DF0137
:101B90008091E0019091E10125E438ED40E25EE3BF
:101BA0000E9420346093DE017093DF018093E00196
:101BB0009093E1018EE491E064E041E00E946619B7
:101BC0008823B1F06091D2017091D3018091D4014A
:101BD0009091D5012AE037ED43EA5CE30E9421347D
:101BE0006093D2017093D3018093D4019093D50177
:101BF0008EE491E065E041E00E946619882309F4D3
:101C000042C06091D2017091D3018091D401909132
:101C1000D5012DEC3CEC4CE45FE30E941036609360
:101C2000D2017093D3018093D4019093D501609138
:101C3000D6017091D7018091D8019091D9012DECF6
:101C40003CEC4CE45FE30E9410366093D601709345
:101C5000D7018093D8019093D9016091DA017091F6
:101C6000DB018091DC019091DD012DEC3CEC4CE43A
:101C70005FE30E9410366093DA017093DB0180937A
:101C8000DC019093DD012090CA013090CB0140909F
:101C9000CC015090CD016091CE017091CF01809127
:101CA000D0019091D10120E030E040E85DE30E9456
:101CB00010360E94F9347B018C016983C201B101A5
:101CC00020E030E040E85DE30E9410360E94F934E5
:101CD000DC01CB016E2D0E94B80A882309F042C0B6
:101CE0006091D2017091D3018091D4019091D5017E
:101CF00023E333E343E75FE30E9410366093D201AE
:101D00007093D3018093D4019093D5016091D60153
:101D10007091D7018091D8019091D90126E636E6DD
:101D200046E65FE30E9410366093D6017093D701B8
:101D30008093D8019093D9016091DA017091DB0111
:101D40008091DC019091DD0126E636E646E65FE310
:101D50000E9410366093DA017093DB018093DC01FE
:101D60009093DD01E090DE01F090DF010091E00151
:101D70001091E101C801B7010E948934A090D201FD
:101D8000B090D301C090D401D090D501A6019501A7
:101D90000E9410362091D6013091D7014091D80190
:101DA0005091D9010E9421343B014C016093D6012E
:101DB0007093D7018093D8019093D901C801B701DE
:101DC0000E947336A60195010E9410369B01AC015A
:101DD0006091DA017091DB018091DC019091DD016D
:101DE0000E9421346093DA017093DB018093DC015F
:101DF0009093DD01C201B101A40193010E9421343D
:101E00007B018C016093CA017093CB018093CC015C
:101E10009093CD0120E030E040E85DE30E94103671
:101E20000E94F934DC01CB0169810E94B80A81303B
:101E3000C1F5C801B701A40193010E942034609349
:101E4000CA017093CB018093CC019093CD01C40162
:101E5000B30120E030E040E05FEB0E941036609379
:101E6000D6017093D7018093D8019093D90189E668
:101E700091E00E94C92B6091D2017091D3018091B1
:101E8000D4019091D50120E030E040E05FE30E9472
:101E900010366093D2017093D3018093D401909354
:101EA000D501A090DA01B090DB01C090DC01D090A8
:101EB000DD01C601B5012091CE013091CF014091E5
:101EC000D0015091D1010E9421343B014C0160931B
:101ED000CE017093CF018093D0019093D101609196
:101EE000CA017091CB018091CC019091CD0120E08D
:101EF00030E040E85DE30E9410360E94F9347B0137
:101F00008C01C401B30120E030E040E85DE30E94B1
:101F100010360E94F9349B01AC018E2D622F0E9475
:101F2000B80A8130C1F5C401B301A60195010E9430
:101F300020346093CE017093CF018093D0019093B1
:101F4000D101C601B50120E030E040E05FEB0E9426
:101F500010366093DA017093DB018093DC0190937B
:101F6000DD0189E691E00E94C92B6091D201709158
:101F7000D3018091D4019091D50120E030E040E080
:101F80005FE30E9410366093D2017093D301809377
:101F9000D4019093D501E090EF01F090F001009111
:101FA000F1011091F2016090D2017090D301809004
:101FB000D4019090D501C401B30120E030E040E0AD
:101FC00050E00E94853488233CF4C401B30120E032
:101FD00030E040E051EC06C0C401B30120E030E045
:101FE00040E051E40E9410369B01AC01C801B701EA
:101FF0000E9421346093EF017093F0018093F1010E
:102000009093F201809133019091340197FD2FC09C
:10201000E090F701F090F8010091F9011091FA01B8
:10202000C401B30120E030E040E050E00E9485347C
:1020300088233CF4C401B30120E030E040E051ECDF
:1020400006C0C401B30120E030E040E051E40E944A
:1020500010369B01AC01C801B7010E942134609386
:10206000F7017093F8018093F9019093FA01E090E1
:10207000DE01F090DF010091E0011091E101C80163
:10208000B7010E9489345B016C01C801B7010E944D
:102090007336A40193010E94103620E030E040E83E
:1020A00052E40E9410362091CE013091CF01409130
:1020B000D0015091D1010E94213420E030E040EC69
:1020C00051E40E9420340E94F4347B018C01C6014B
:1020D000B501A40193010E94103620E030E040E8F1
:1020E00052E40E9410362091CA013091CB014091F8
:1020F000CC015091CD010E94213420E030E048E233
:1021000052E40E9420340E94F434DC01CB0140915F
:10211000FC015091FD019A01220F331F240F351F3E
:10212000820F931F64E070E00E9439377093FD01C5
:102130006093FC012091FE013091FF01C901880FDD
:10214000991F820F931F8E0D9F1D64E070E00E9407
:1021500039377093FF016093FE010F90CF91DF91AB
:102160001F910F91FF90EF90DF90CF90BF90AF90B5
:102170009F908F907F906F905F904F903F902F90A7
:102180000895CF92DF92EF92FF920F931F93CF9318
:10219000DF93ABE0CA2ED12CF5E1EF2EF12C84E4D5
:1021A00091E00E9450228823D1F360E070E080E04B
:1021B00090E022E030E040E050E00E949B32675F18
:1021C00060939B0160E070E080E090E022E030E00E
:1021D00040E050E00E949B3260939C0182E991E0D4
:1021E00061EF7AE00E94D4301092990110929B0125
:1021F0008091970180939C0100E112E0C0E0D0E063
:10220000F80180819181892B31F482E991E06DE2BE
:102210000E94AC300DC0CC9DB001CD9D700DDC9DF9
:10222000700D1124665E7D4F82E991E00E94E731D6
:10223000809196019701281B3109C901880F991FC8
:10224000880F991F80939B0121968091970190E0C0
:10225000FC01CE9FC001CF9F900DDE9F900D1124F9
:1022600080939C01F801619171918F0182E991E065
:102270004AE050E00E94C831C530D10509F68EE42D
:1022800091E064E00E945C19882379F48EE491E087
:1022900065E00E945C19882341F48EE491E066E0D9
:1022A0000E945C19882309F47ACF89E691E00E94A4
:1022B000BD2BDF91CF911F910F91FF90EF90DF9099
:1022C000CF9008954F925F926F927F928F929F92DC
:1022D000AF92BF92CF92DF92EF92FF920F931F9334
:1022E000DF93CF93CDB7DEB72A970FB6F894DEBF52
:1022F0000FBECDBF8C012091EB013091EC0180919C
:102300001802909119028217930708F0B0C084E474
:1023100091E066E472E00E94A52084E491E066E426
:1023200072E04BE00E9409231093190200931802F7
:1023300096E1C92E92E0D92E83E0A82EB12C0BE0B5
:10234000402E512C3E010894611C711C45010894DB
:10235000811C911CF6012081318182819381281793
:10236000390764F010E1812E12E0912EAA24BB24DB
:10237000CC24DD24BBE06B2E712C69C0A49C7001C1
:10238000A59CF00CB49CF00C11248AE192E0E80EBC
:10239000F91EC301B7010E94F937849C8001859C16
:1023A000100D949C100D1124065E1D4FC701B8013D
:1023B0000E94F937C801B3010E94F937F601208164
:1023C00031818281938191838083338322838EEF55
:1023D0009FEFC80ED91E0894A108B1089EE0C91647
:1023E00092E0D90609F0B2CFBDCFB8016C0D7D1DCA
:1023F0008FE494E0F70141917F010E941D2C0F5F53
:102400001F4F0A30110589F78AE090E0C80ED91EE7
:102410008FE494E0B601F40140810E941D2C0894E1
:10242000C11CD11CF40141818FE494E0B6010E94EB
:102430001D2C0894A11CB11C82E090E0880E991E0E
:102440000894C11CD11C95E0A916B10471F0A69C9A
:102450007001A79CF00CB69CF00C1124EAE1F2E0AC
:10246000EE0EFF1E00E010E0C0CF0E94C1102A96C1
:102470000FB6F894DEBF0FBECDBFCF91DF911F9195
:102480000F91FF90EF90DF90CF90BF90AF909F9013
:102490008F907F906F905F904F9008956F927F9292
:1024A0008F929F92AF92BF92CF92DF92EF92FF9264
:1024B0000F931F93CF93DF9330E1832E32E0932E5F
:1024C000AA24BB24CC24DD242BE0622E712C3BC03B
:1024D000BE016C0D7D1D8FE494E00E94162CF80166
:1024E00081938F012196CA30D10591F7B601665FBD
:1024F0007F4F8FE494E00E94162C082F10E0F40127
:1025000011830083B601655F7F4F8FE494E00E94E2
:10251000162CF82EEE24C701800F911FF7E28F30A2
:102520009F0711F480E090E0F401819391934F01B3
:102530000894A11CB11C8CE090E0C80ED91E95E057
:10254000A916B10461F0A69C8001A79C100DB69C51
:10255000100D1124065E1D4FC0E0D0E0B9CFDF9111
:10256000CF911F910F91FF90EF90DF90CF90BF9090
:10257000AF909F908F907F906F9008950F931F93CF
:10258000CF93DF9300E012E0C0E0D0E08091330110
:10259000909134018C179D0729F1F8012281338134
:1025A000608171818091FC019091FD01681B790B24
:1025B0004091FE015091FF01CB0140968536910577
:1025C00088F4C901841B950BAC019FEF403F59076C
:1025D0004CF04133510534F482E991E029E03BE0CD
:1025E0000E943D1D21960C5F1F4FC430D10571F62E
:1025F0000091E3011091E4018091FC019091FD01B3
:10260000081B190B2091E5013091E6014091FE0174
:102610005091FF01C801409685369105C0F4E9014B
:10262000C41BD50BEFEFC03FDE078CF0C133D105E3
:1026300074F482E991E0602F4C2F24E00E94DE1AAE
:1026400082E991E0602F4C2F21E00E94DE1ADF9199
:10265000CF911F910F9108952F923F924F925F92C9
:102660006F927F928F929F92AF92BF92CF92DF92A2
:10267000EF92FF920F931F93CF93DF9350E0C52EFD
:1026800052E0D52E6624772422242A94322C4CEE54
:10269000442E4FEF542EC0913301D0913401C61512
:1026A000D70509F4ADC16091CA017091CB01809149
:1026B000CC019091CD010E94F4344B016091CE0188
:1026C0007091CF018091D0019091D1010E94F4349A
:1026D0005B01F6016081718168197909882777FDAE
:1026E0008095982F0E9427359B01AC010E941036DF
:1026F0007B018C01F601628173816A197B0988274D
:1027000077FD8095982F0E9427359B01AC010E9490
:1027100010369B01AC01C801B7010E9421340E9410
:102720007D360E94F4346739710594F168E57FEFD6
:102730008FEF9FEF28EA30E040E050E00E949B32AC
:10274000C401860F971FF6019183808360EA7FEFB3
:102750008FEF9FEF20E630E040E050E00E949B3298
:102760009501260F371FF6013383228380819181E3
:1027700060E170E00E943937462FC90160E170E0E6
:102780000E943937842F0E94B80A882379F6ADC099
:10279000CF5FDF4F09F0A9C0603171050CF0A5C013
:1027A0002091D2013091D3014091D4015091D501B3
:1027B000CA01B9010E9410360E947D362DEC3CEC16
:1027C0004CEC5DE30E94853488230CF08EC070923F
:1027D0003401609233011092E8011092E70181E028
:1027E0008093FB0189E691E00E94BD2B64E670E0D6
:1027F00080E090E020ED37E040E050E00E949B3226
:102800007093E4016093E30164E670E080E090E09F
:1028100020ED37E040E050E00E949B328B019C01AC
:102820005B017093E6016093E501C091E301D091F3
:10283000E401CE0160E170E00E943937462FC80103
:1028400060E170E00E943937842F0E94B80A882323
:1028500069F6BE01882777FD8095982F0E9427355D
:102860002091CA013091CB014091CC015091CD0112
:102870000E9420340E94F434882777FD8095982F99
:102880000E9427359B01AC010E9410367B018C0110
:10289000B501882777FD8095982F0E9427352091D4
:1028A000CE013091CF014091D0015091D1010E94D1
:1028B00020340E94F434882777FD8095982F0E9459
:1028C00027359B01AC010E9410369B01AC01C80169
:1028D000B7010E9421340E947D366093F30170930A
:1028E000F4018093F5019093F6018091330190916A
:1028F000340197FD85C06091E3017091E401882760
:1029000077FD8095982F0E9427352091CA0130913C
:10291000CB014091CC015091CD010E9420340E9406
:10292000F434882777FD8095982F0E9427359B01E6
:10293000AC010E9410367B018C016091E501709121
:10294000E601882777FD8095982F0E9427352091F2
:10295000CE013091CF014091D0015091D1010E9420
:1029600020340E94F434882777FD8095982F0E94A8
:1029700027359B01AC010E9410369B01AC01C801B8
:10298000B7010E9421340E947D3620E030E040E80B
:1029900051E40E94853488239CF52091D201309126
:1029A000D3014091D4015091D501CA01B9010E94CF
:1029B00010360E947D362DEC3CEC4CEC5DE30E9421
:1029C00085348823ECF48091ED019091EE0101961D
:1029D0009093EE018093ED01309234012092330107
:1029E0001092FB015092E4014092E3015092E60103
:1029F0004092E50189E691E00E94BD2B0E948D097D
:102A00000894611C711CE4E0F0E0CE0EDF1EF4E0DF
:102A10006F16710409F03FCEDF91CF911F910F9196
:102A2000FF90EF90DF90CF90BF90AF909F908F90EE
:102A30007F906F905F904F903F902F9008959C01F2
:102A400060939B0140939C0182E991E0B9010E944F
:102A5000FD310895AF92BF92CF92DF92EF92FF9235
:102A60000F931F93DF93CF93CDB7DEB72E970FB69B
:102A7000F894DEBF0FBECDBF6B017C01B42E81E0A8
:102A800080939A018E010F5F1F4FC801B701A60105
:102A90002AE00E94CB33AB2CBB24C02EF12E8E013A
:102AA000085F1F4F12C0C80160E071E00E949833B8
:102AB000C8016C2D7F2D0E944733BC018C2D9F2DAA
:102AC0000E94FD33C8010E941A348D819E818A15AF
:102AD0009B0548F382E991E06C2D7F2D0E94FD312A
:102AE0008C2D9F2D0E9414342E960FB6F894DEBFC5
:102AF0000FBECDBFCF91DF911F910F91FF90EF904F
:102B0000DF90CF90BF90AF900895FF920F931F93E7
:102B1000CF93DF9364E1F62E00E010E001C08E0158
:102B200084E491E00E9450228823D1F382E991E06D
:102B300068E57EE00E94AB1D82E991E062E071E011
:102B40000E94EA3182E991E066ED7CE00E94AB1DD3
:102B500082E991E06CE071E00E94E7316091ED0163
:102B60007091EE0180E090E044E00E942A1582E935
:102B700091E065E171E00E94EA3182E991E066E16D
:102B800071E00E94E7316091EF017091F001809156
:102B9000F1019091F2010E94F43446E00E942A155E
:102BA00082E991E065E171E00E94EA3182E991E019
:102BB0006CE171E00E94E731B801882777FD8095CC
:102BC000982F48E00E942A15C091EB01D091EC01AA
:102BD000FF2049F0FA94CE0164E170E00E942537AD
:102BE000060F171F9DCF80911802909119028C1724
:102BF0009D0700F560E070E080E090E022E030E0CA
:102C000040E050E00E949B326C5E60939B0160E06C
:102C100070E080E090E022E030E040E050E00E9490
:102C20009B32625E60939C0182E991E06CEF7AE0F6
:102C30000E94D4308EE491E064E00E945C19882305
:102C400079F48EE491E065E00E945C19882341F4F8
:102C50008EE491E066E00E945C19882309F45FCF5E
:102C600089E691E00E94BD2B8091EB019091EC01EF
:102C70000E946211DF91CF911F910F91FF900895F3
:102C80008F929F92AF92BF92CF92DF92EF92FF927C
:102C90000F931F93DF93CF93CDB7DEB72E970FB669
:102CA000F894DEBF0FBECDBF5B016C01942E822E67
:102CB00081E080939A017E010894E11CF11CC70118
:102CC000B601A5012AE00E94CB33C02EDD24AF2C33
:102CD0008E01085F1F4F12C0C80160E071E00E94C2
:102CE0009833C8016E2D7A2D0E944733BC018E2D7A
:102CF0009A2D0E94FD33C8010E941A348D819E8155
:102D00008C159D0548F390929B0180929C0182E96D
:102D100091E06E2D7A2D0E94FD318E2D9A2D0E940C
:102D200014342E960FB6F894DEBF0FBECDBFCF91F0
:102D3000DF911F910F91FF90EF90DF90CF90BF90A8
:102D4000AF909F908F9008956F927F928F929F92F5
:102D5000AF92BF92CF92DF92EF92FF920F931F93A9
:102D6000DF93CF93CDB7DEB727970FB6F894DEBFCA
:102D70000FBECDBF82E991E060E00E940F1A82E9A8
:102D800091E064E04BE224E00E94881C82E991E03B
:102D900061E00E940F1A82E991E064E04BE224E0D6
:102DA0000E94DE1A82E991E061E040E00E94131A7D
:102DB00082E991E064E57BE00E94AB1D6091E9014E
:102DC0007091EA0180E090E040E020E005E00E94A0
:102DD00040166091E7017091E80180E090E041E4E5
:102DE00020E00E9440166091ED017091EE0180E0BC
:102DF00090E045E42DE204E00E944016809133010A
:102E00009091340197FD93C06091E3017091E401CA
:102E1000882777FD8095982F0E9427352091CA0139
:102E20003091CB014091CC015091CD010E942034D2
:102E30000E94F434882777FD8095982F0E942735CB
:102E40003B014C01A40193010E9410367B018C01CF
:102E50006091E5017091E601882777FD8095982FB4
:102E60000E9427352091CE013091CF014091D001B1
:102E70005091D1010E9420340E94F434882777FDBC
:102E80008095982F0E9427355B016C01A601950162
:102E90000E9410369B01AC01C801B7010E94213489
:102EA0000E947D369B01AC0160E070E080E890E418
:102EB0000E948C347B018C01A40193010E94103686
:102EC00020E030E040E850E40E9421340E94F434D5
:102ED0003B014C01C801B701A60195010E941036C3
:102EE00020E030E04CE252E40E9421340E94F434AD
:102EF0007B018C0182E991E064E04BE2262D0E2DEE
:102F00000E94171A82E991E061E00E940F1A82E99B
:102F100091E06BE140E025E107E0E3E0EE2E0E9466
:102F2000021D82E991E062E00E940F1A1BC082E953
:102F300091E060E00E940F1A82E991E06BE140E0CD
:102F400025E107E073E0E72E0E94021D82E991E08F
:102F500061E00E940F1A82E991E06BE140E025E117
:102F60000E94A41C8E010F5F1F4FC80163E271E035
:102F70000E947E33C8016EE142E00E941F15C80125
:102F80000E94143482E991E066ED7CE00E94AB1D62
:102F900082E991E061E00E940F1A27960FB6F8943B
:102FA000DEBF0FBECDBFCF91DF911F910F91FF907C
:102FB000EF90DF90CF90BF90AF909F908F907F90D9
:102FC0006F90089582E991E066ED7CE00E94AB1D70
:102FD00084E491E00E9450228823D1F38EE491E0B2
:102FE00066E00E945C19882339F082E991E068E587
:102FF0007EE00E94AB1D08958091E9019091EA0165
:10300000892B19F40E94851508950E94890D0E944C
:103010007A0A0E942C130E94E20A0E94440D0E9428
:10302000BE120E94A416D4CF84E491E065EE7AE04B
:1030300046E00E94E825823079F083302CF4882322
:1030400099F08130E9F405C0833049F08430C1F44F
:1030500014C083E090E005C085E090E002C08AE003
:1030600090E00E94380A06C08091E9019091EA013F
:10307000892B41F00E94E21708950E94C110089523
:103080000E94AB0B08950E941418089584E491E007
:103090000E94B32882E991E068E57EE00E94AB1DC2
:1030A0000E944E120E94AB0B84E690E09093E401E4
:1030B0008093E3019093E6018093E50108958823CE
:1030C00019F48CB5806202C08CB58F7D8CBD0895DB
:1030D0009CB5937F982B9CBD08952CB5382F3370E9
:1030E0002C7F322B3CBD2DB590E09595879595951D
:1030F000879581702E7F822B8DBD08958AE061E0D7
:103100000E94ED2F8AE061E00E94812F8CB58061E2
:103110008CBD8CB580648CBD8DE061E00E94812FF8
:103120008BE061E00E94812F0895FC0181E08083A3
:10313000089585E070E00E94212F08956F927F929C
:103140008F929F92AF92BF92CF92DF92EF92FF92B7
:103150000F931F93CF93DF93EC0189819A818C01A8
:1031600024E0000F111F2A95E1F7081B190B85E1D8
:103170000E94FF2EBC01600F711F84E07695679559
:103180008A95E1F77A8369838881882381F12E818A
:103190003F816217730710F4B90106C088859985CD
:1031A0008617970708F4BC0100D000D080E090E0BB
:1031B00040E050E0E884F98400E010E0AD80BB24FA
:1031C000CC24DD246C80772488249924EDB7FEB7C5
:1031D00061827282838294820E9430326B830F906C
:1031E0000F900F900F9085E070E00E94212FDF91EB
:1031F000CF911F910F91FF90EF90DF90CF90BF90F4
:10320000AF909F908F907F906F900895FC018CE31A
:103210009FE09383828384E0818381E084870895A3
:10322000CF93DF93EC018C8590E08F719070892BA8
:1032300069F584E10E94FF2EAA2797FDA095BA2F79
:10324000BC01CD010E94273526EE3FE34EEC50E451
:103250000E9410360E94F9349B01AC017B836A8383
:103260006115710589F084E08983B901FE0120E0D0
:10327000848195816817790710F429830AC02F5F2C
:1032800032962430A9F702C08FEF89838C858F5F37
:103290008C87DF91CF910895FC0188E0808389E0DD
:1032A000818387E0828386E0838384E0848382E075
:1032B000858381E18683089520E0FC01E60FF11DFE
:1032C0008781813009F421E0822F0895E62FF0E014
:1032D000423040F420E0E80FF91F878181508E3F93
:1032E00088F40FC0E80FF91F87818F3F11F420E0A9
:1032F00009C020E090E0642F70E00E94253701971C
:1033000009F421E0822F08950F931F93CF93DF9349
:10331000EC0110E00FEF888162E00E94812F88812C
:103320000E9420302F81892B19F42F5F2F8307C033
:10333000222349F02F3F11F41F8201C00F8388819F
:1033400060E00E94812F1F5F2196173021F7DF91E7
:10335000CF911F910F910895FC01742F643508F0EF
:103360005DC047FD5BC040330CF058C0878D823094
:1033700019F5842F859585958595992787FD9095D5
:10338000462F552747FD509524E530E0829FF001F8
:10339000839FF00D929FF00D1124E40FF51FEF5A5B
:1033A000FD4F808190E0272F277002C0959587956B
:1033B0002A95E2F780958170972F9595959595952B
:1033C000462F552747FD5095272F27708823A1F4B6
:1033D000E4E59E02F0011124E40FF51FEF5AFD4FC2
:1033E00081E090E002C0880F991F2A95E2F780954E
:1033F0002081282320830895E4E59E02F001112412
:10340000E40FF51FEF5AFD4F81E090E002C0880FF6
:10341000991F2A95E2F72081282B20830895FC012B
:10342000678F60A30895FC01678F40A30895AF9252
:10343000BF92CF92DF92EF92FF920F931F93CF93A1
:10344000DF93EC01162FF42EE22EAA24402F5527ED
:1034500047FD50958F2D992787FD9095481B590B57
:1034600057FF03C0509541955F4F2E2D332727FD01
:103470003095812F992787FD9095281B390B37FFB1
:1034800003C0309521953F4F2417350744F4AA24F3
:10349000A3948F2DF12E182F802F0E2DE82EE116DC
:1034A00034F48E2DE12E182F802F0F2DF82EDE2CC8
:1034B000D11A202F332727FD30958F2D992787FD8F
:1034C0009095281B390B37FF03C0309521953F4F4E
:1034D000B22EF0161CF0CC24CA9402C0CC24C394A3
:1034E0008D2DD7FC8F5F082F059511C0AA2021F0E4
:1034F000CE016F2D412F03C0CE01612F4F2D0E94B1
:10350000AC190B1907FF02C0FC0C0D0D1F5FE11673
:103510006CF7DF91CF911F910F91FF90EF90DF90AB
:10352000CF90BF90AF9008950F93042F322F262F86
:103530002150230F0E94171A0F9108950F93362FD1
:10354000042F0150020F232F0E94171A0F91089584
:103550009F92AF92BF92CF92DF92EF92FF920F9322
:103560001F93CF93DF936C01B62E942EA02EC0E054
:10357000D0E0E62EFF24E7FCF094022F112707FD90
:1035800010950E0D1F1D06C0C601492D2A2D0E9443
:103590009E1A21966B2D6C0FCE018E0D9F1D8017EC
:1035A000910794F3DF91CF911F910F91FF90EF90CE
:1035B000DF90CF90BF90AF909F9008958F929F9291
:1035C000AF92BF92CF92DF92EF92FF920F931F9331
:1035D000CF93DF93EC01B62EC42E122FAA24A3940E
:1035E000A21A8EEF289F802C1124422F4C0DCE0161
:1035F0000E94AC194C2D411BCE016B2D0E94AC19C1
:10360000612F6B0DCE014C2D0E94AC196B2D611BEF
:10361000CE014C2D0E94AC19D12EEE2483E0982EC1
:1036200042C0A7FC04C0DA9482E0880EA80CE394A0
:10363000A90CFE2CFB0C1D2D1C0DCE016F2D412F56
:103640000E94AC190B2D0E19CE01602F412F0E9444
:10365000AC191C2D1D19CE016F2D412F0E94AC19E4
:10366000CE01602F412F0E94AC19FD2CFB0C1E2DAA
:103670001C0DCE016F2D412F0E94AC190B2D0D1981
:10368000CE01602F412F0E94AC191C2D1E19CE01B6
:103690006F2D412F0E94AC19CE01602F412F0E9447
:1036A000AC1982E0980EED140CF4BBCFDF91CF91F2
:1036B0001F910F91FF90EF90DF90CF90BF90AF9050
:1036C0009F908F9008952F923F925F926F927F927A
:1036D0008F929F92AF92BF92CF92DF92EF92FF9222
:1036E0000F931F93DF93CF9300D000D000D0CDB7BE
:1036F000DEB79E838D83C62ED42EEE24E394E21A89
:103700008EEF289F502C1124842E8A94962E9A9402
:10371000A42EA394B62EB394F22E662423E0722E28
:1037200010E0C801847090709A838983F801E27078
:10373000F070FC83EB8398E0292E312C202231227B
:103740000170107054C0E7FC04C0FA94F2E05F0E00
:10375000E50C639489819A81892B71F04F2D4D0D71
:103760008D819E816B2D0E94AC196F2D6C0D8D810A
:103770009E814A2D0E94AC19EB81FC81EF2B71F0E8
:103780004D2D4F198D819E816B2D0E94AC196F2D8F
:103790006C0D8D819E81482D0E94AC19211431043D
:1037A00071F06C2D6F198D819E814A2D0E94AC198C
:1037B0004F2D4D0D8D819E81692D0E94AC190115F3
:1037C000110571F06C2D6F198D819E81482D0E941D
:1037D000AC194D2D4F198D819E81692D0E94AC1918
:1037E000E70CF2E07F0E8A949A94A394B3946F143A
:1037F0000CF4A9CF26960FB6F894DEBF0FBECDBF4E
:10380000CF91DF911F910F91FF90EF90DF90CF90BC
:10381000BF90AF909F908F907F906F905F903F9000
:103820002F9008954F925F926F927F928F929F9206
:10383000AF92BF92CF92DF92EF92FF920F931F93BE
:10384000CF93DF93EC01A62E742E9E2DFF24F394CC
:10385000F21A8EEF289F802C1124B42EBA9453E0D4
:10386000C52ECE0CE22EDD2443E0942E10E031E094
:10387000432E512C40225122692E63940270107005
:1038800034C0F7FC04C0EA9482E0880EF80CD394AC
:103890004114510489F06D2D6A0D472D4E192E2DBE
:1038A000220F260DCE010E949E1A6E2D6A0DCE01AA
:1038B0004B2D2C2D0E949E1A0115110589F06A2DA1
:1038C0006D19472D4E192E2D220F260DCE010E9467
:1038D0009E1A6A2D6E19CE014B2D2C2D0E949E1A18
:1038E000F90C82E0980EBA94C80EDE1454F2DF91FF
:1038F000CF911F910F91FF90EF90DF90CF90BF90ED
:10390000AF909F908F907F906F905F904F900895B1
:10391000DF92EF92FF920F931F937C01062FD42E1C
:10392000122F421B220F2F5F0E949E1AC701602F89
:103930004D2D212F03E0EE240E94121C1F910F91A8
:10394000FF90EF90DF9008957F928F929F92AF92B9
:10395000BF92CF92DF92EF92FF920F931F936C0171
:10396000962EA42EF22E7E2C760E1EEFE19E102DAA
:103970001124812E820E672D282D0E94941AB02EBC
:10398000BA0CBA94C601672D4B2D282D0E94941AAB
:10399000AE0C100FC601692D4A2D212F0E949E1AD0
:1039A000F90CFA94C6016F2D4A2D212F0E949E1A00
:1039B000C601672D4A2D2E2D01E00E94631BFE18C3
:1039C000C6016F2D4A2D2E2D02E00E94631BBE18EA
:1039D000C6016F2D4B2D2E2D04E00E94631BC601E6
:1039E000672D4B2D2E2D08E00E94631B1F910F9118
:1039F000FF90EF90DF90CF90BF90AF909F908F900F
:103A00007F9008958F929F92AF92BF92CF92DF9254
:103A1000EF92FF920F931F936C01162FA42E922EFC
:103A2000F02EBE2C8E2C860E2EEFE29EE02C112462
:103A30002E2D290D682D0E94A81AAB0CFA94FE0CAD
:103A40001150190D1B19C601612F4A2D2B2D01E0B4
:103A5000EF2C0E94121CC601682D4A2D2B2D02E06E
:103A60000E94121C1F910F91FF90EF90DF90CF905A
:103A7000BF90AF909F908F9008953F924F925F922A
:103A80006F927F928F929F92AF92BF92CF92DF926E
:103A9000EF92FF920F931F93CF93DF934C01362E3B
:103AA000442EF901A490319654906F010894C11CE2
:103AB000D11C8A2D992787FD9095079668E070E0C4
:103AC0000E943937E62EFF24E7FCF09400E0C0E0C6
:103AD000D0E060E8662E712C26C0E12FE595E595D3
:103AE000E595FF27E7FDF095EC0FFD1FEC0DFD1DA3
:103AF000E4912E2F30E0812F8770A30102C05595ED
:103B000047958A95E2F724233523232B31F0612F43
:103B1000630DC4014B2D0E94AC191F5F1A15ECF206
:103B20000F5FCE0DDF1D051524F410E0B02EB40C90
:103B3000F5CFDF91CF911F910F91FF90EF90DF9024
:103B4000CF90BF90AF909F908F907F906F905F903D
:103B50004F903F900895DC01FB0184918F5F149694
:103B60008C931497319684918F5F15968C9315974B
:103B700031965E96FC93EE935D9708953F924F9237
:103B80005F926F927F928F929F92AF92BF92CF92ED
:103B9000DF92EF92FF920F931F93CF93DF93EC018D
:103BA000862EA42E422F102F3F8C23E526170CF4CF
:103BB000ABC03FE23A150CF4A7C0C02EDD248C81C7
:103BC00090E001979C01C29EC001C39E900DD29EC1
:103BD000900D1124262F332727FD3095820F931F38
:103BE000181619060CF090C08D8190E09C01C29EC1
:103BF000C001C39E900DD29E900D11242A2D332713
:103C000027FD3095820F931F181619060CF07CC003
:103C10009924442E55246DC09C01215030404217F8
:103C2000530711F460E00EC0429EC001439E900D08
:103C3000529E900D1124840F951FED8DFE8DE80F7F
:103C4000F91F64914C9DC0014D9D900D5C9D900DA0
:103C50001124682C680EBB24792C780C3FC0E62E0A
:103C6000FF2460FF19C0113039F44B2D4A0DCE01ED
:103C7000672D0E94AC192EC02C9DC0012D9D900D6A
:103C80003C9D900D11244A2D480FCE01662D212F09
:103C9000012F0E94A81A1EC098A18F8D9817D1F0ED
:103CA0009F8F113039F44B2D4A0DCE01672D0E94A4
:103CB000AC190FC02C9DC0012D9D900D3C9D900D09
:103CC00011244A2D480FCE01662D212F012F0E946D
:103CD000A81A3F8EF594E7946E2DB3942B2D3327BD
:103CE00027FD30958D8190E0281739070CF4B7CF68
:103CF0009394492D552747FD50958C8190E04817A6
:103D000059070CF489CF3F8EDF91CF911F910F910E
:103D1000FF90EF90DF90CF90BF90AF909F908F90EB
:103D20007F906F905F904F903F9008950F93CF9347
:103D3000DF93EC01262F6A3049F48D819885899FA5
:103D4000802D11249A85980F9A8726C06D3029F10D
:103D500069854A8508850E94BE1D9C816885969F5D
:103D6000402D11248985480F49878F818823A9F028
:103D7000552747FD5095699F9001112484E590E0F7
:103D8000821B930B8417950744F49D81699F902DA6
:103D900011248A85890F8A87198681E090E0DF9156
:103DA000CF910F9108951F93CF93DF93EC01162FBE
:103DB000F8948E8560E00E94ED2F8F8518161CF414
:103DC00060E00E94ED2F1EBD0DB407FEFDCF8EB545
:103DD0008F8518161CF461E00E94ED2F7894DF9116
:103DE000CF911F910895FF920F931F93CF93DF936D
:103DF000EC01FF2400E010E06F2D6064CE010E9412
:103E0000D31ECE0160E80E94D31E8E8561E00E9421
:103E1000ED2F8F8518161CF460E00E94ED2FF8013D
:103E2000EF5AFD4F90E080818EBD0DB407FEFDCFAF
:103E30008EB59F5F31969435B1F78F8518161CF4B7
:103E400061E00E94ED2FF3940C5A1F4F86E0F816A4
:103E500099F6CE0160E40E94D31EDF91CF911F91AD
:103E60000F91FF900895CF93DF93DC0188EF91E0ED
:103E7000E1E5F2E0EF019C01199221503040E1F7B9
:103E800019961C9219971A961C92DF91CF9108955A
:103E9000EF920F93CF93DF93EC014D876C872E87C2
:103EA000E88A0F8781E088878F8F18A28F83CE01E1
:103EB00066ED7CE00E94AB1D0E947E1881E00E94AE
:103EC0005F1885E00E946D188CE00E9468188D854F
:103ED00061E00E94812F8C8561E00E94812F8E8598
:103EE00061E00E94812F888918161CF461E00E940D
:103EF000812F8F8518161CF461E00E94812F88891C
:103F000018166CF460E00E94ED2F6AE070E080E02B
:103F100090E00E949E2E888961E00E94ED2FEC8542
:103F20002E2F332727FD3095F901E957FD4EE491F7
:103F3000F0E0EE0FFF1FED58FD4E859194919C8BA4
:103F40008B8B25563D4EF90184918A8FED852E2F5E
:103F5000332727FD3095F901E957FD4EE491F0E054
:103F6000EE0FFF1FED58FD4E859194919A8B898B32
:103F700025563D4EF9018491898FEF852E2F3327E9
:103F800027FD3095F901E957FD4EE491F0E0EE0F81
:103F9000FF1FED58FD4E859194919E8B8D8B25567C
:103FA0003D4EF90184918B8FEE852E2F332727FD0F
:103FB0003095F901E957FD4EE491F0E0EE0FFF1F57
:103FC000ED58FD4E85919491988F8F8B25563D4EDF
:103FD000F90184918C8FCE0161E20E94D31ECE0143
:103FE00064E10E94D31E8B8587FF02C08FE78B8719
:103FF0006B856068CE010E94D31ECE0160E20E94F4
:10400000D31ECE016CE00E94D31ECE010E94F31E8F
:10401000DF91CF910F91EF900895CF93DF93DC0163
:10402000E0E8F7E785919491ED01C75ADF4FAD01C4
:1040300041595F4F8150904C09F04EC0E6E9F7E7D7
:10404000E491E883E7E9F7E7E4911496EC93149799
:10405000E8E9F7E7E4911596EC931597E9E9F7E7B6
:104060008591949117969C938E931697EBE9F7E7B9
:104070008591949119969C938E931897EDE9F7E7A3
:10408000E4919B96EC939B97EEE9F7E7E4919A967F
:10409000EC939A97EFE9F7E7E491EA01E883E0EA25
:1040A000F7E7859194915D969C938E935C97E2EAF5
:1040B000F7E7859194915F969C938E935E97E4EADF
:1040C000F7E78591949191969C938E939097E6EA69
:1040D000F7E78591949132C08CE3888314961C9203
:1040E00014972FEF15962C93159780E293E017966F
:1040F0009C938E93169784ED93E019969C938E93E0
:10410000189781E09B968C939B979A968C939A979D
:10411000FA0120838CEA9DE05D969C938E935C97D8
:104120008EED9DE05F969C938E935E9784E79EE074
:1041300091969C938E9390978CE39FE093969C939B
:104140008E939297DF91CF910895E0E8F7E78591FC
:1041500094918150904C51F4DB01EBE8F7E78491A6
:104160008D93319687E7E539F807C9F70895CF921F
:10417000DF92EF92FF920F931F936217730784F001
:10418000E20EF31E6E157F055CF44017510744F0F4
:1041900080E0C00ED11E4C155D051CF481E001C00D
:1041A00080E01F910F91FF90EF90DF90CF900895E6
:1041B000EF92FF920F931F93CF93DF937C018C01BB
:1041C000025B1F4FC8010E94331FC8016FEF70E1EF
:1041D0000E948930C8010E94F31E83E00E946D187E
:1041E00088E291E0EEEFFFE3099584E590E0E80EC8
:1041F000F91EF7011082C8016AED70E10E94D43007
:10420000C8010E94F31EE701CA54D040CE010E94AB
:104210008419CE0164E00E945C19882339F462E3BA
:1042200070E080E090E00E949E2EF0CFDF91CF9171
:104230001F910F91FF90EF9008950F931F93CF93CD
:10424000DF93EC018C01025B1F4FC80161E040E08D
:104250000E94131AFE01E95AFF4FCE5ADF4F85E53F
:104260009881891B808326961882C855D040698D15
:10427000613009F43EC0613028F0888D653008F067
:1042800051C04BC0CE0185960E94B829CE0160E096
:104290000E949918C8010E94331FCA5ADF4F81E05B
:1042A0008883C655D040C8016BE371E10E94893014
:1042B0006A8D7B8DC8014AE050E00E947731C801C9
:1042C00067E271E10E948930C8010E94F31E83B742
:1042D000817F846083BF83B7816083BF83B7816040
:1042E00083BF889583B78E7F83BF83B78E7F83BF5D
:1042F0001FC0C059DF4F88819981AA81BB818F700F
:104300009070A070B0700897A105B10518F4C801AD
:1043100067E00CC0C80168E709C0882349F06B5FFB
:10432000C80104C0882321F0C8016FE20E94AC30AC
:10433000DF91CF911F910F910895AF92BF92CF92CD
:10434000DF92EF92FF920F931F93CF93DF93EC01D5
:10435000CB57DF4F8881C558D040882309F44AC025
:104360008C3010F010E002C01CE0181BCA5ADF4F5E
:1043700081E08883C655D0406EE4C62ED12CCC0E89
:10438000DD1EC60160E00E940F1A53E5A52EB12C78
:10439000AC0EBD1EF50100814DE2F42E4F2D401BE9
:1043A000410F0D5FC60160E024E533E0E32E0E947B
:1043B000021DC60161E00E940F1AF5010081F01A8A
:1043C000F10E0D5FC60160E04F2D24E50E94A41C94
:1043D000C95ADF4F84E08993F5018081181B115D74
:1043E0001883AB9669917991C6010E9489308881C2
:1043F00081508883DF91CF911F910F91FF90EF90B3
:10440000DF90CF90BF90AF9008954F925F926F92E0
:104410007F928F929F92AF92BF92CF92DF92EF9254
:10442000FF920F931F932C01FC01628C738C60949C
:104430007094882499240E94782E5B016C010E945C
:10444000782E7B018C01F201418052800E94782EEF
:10445000460E571EA094B094C094D094E094F0946B
:1044600000951095C601B501A80197010E94063775
:10447000A40193010E940637460E571EC2010E94F6
:10448000B9321F910F91FF90EF90DF90CF90BF90C6
:10449000AF909F908F907F906F905F904F90089516
:1044A000AF92BF92CF92DF92EF92FF920F931F9342
:1044B000CF93DF93EC01EFE7AE2EB12CA80EB91E1F
:1044C000F501E080F180028113810E946A2EE61AD4
:1044D000F70A080B190B7EE7C72ED12CCC0EDD1E78
:1044E000F601808190E0A0E0B0E08E159F05A00766
:1044F000B10708F081C08E0106581F4FF801808176
:104500009181A281B3810097A105B10509F474C01E
:104510000E946A2EF6012081620F711D811D911D7E
:10452000F5016083718382839383FE01E059FF4F1D
:1045300080819181A281B3810196A11DB11D8083EB
:104540009183A283B383F8011082118212821382B5
:104550000E94782ECA58DF4F688379838A839B83B1
:10456000C657D040CE010E949E18CE010A960E94E6
:104570008419CE0148960E94101981E032C08E0144
:104580000B5D1F4FC8010E94062AC8010E947D2AA8
:10459000C8010E94602BCE010E949D21CE010E9485
:1045A0001D218E01025B1F4FC8010E94F31ECC5AD1
:1045B000DF4F8881C455D040882319F4C8010E9478
:1045C000331F0E94782EC658DF4F688379838A8311
:1045D0009B83249728813981621B730B7A936A939A
:1045E00080E0DF91CF911F910F91FF90EF90DF90CE
:1045F000CF90BF90AF900895C658DF4F88819981C2
:10460000AA81BB81CA57D0400097A105B10541F7E7
:10461000B6CF2F923F924F925F926F927F928F927E
:104620009F92AF92BF92CF92DF92EF92FF920F9341
:104630001F93DF93CF93CDB7DEB768970FB6F8948B
:10464000DEBF0FBECDBF5C017B876A874C8724E548
:1046500030E0A20EB31ED5011C92ECEAFFEFAE0EC5
:10466000BF1E842F90E0FB01E80FF91F31971082E5
:104670005AE0452E512C4A0C5B1C45E2642E712CED
:104680006A0C7B1C3EE4C32ED12CCA0CDB1CF4E567
:10469000FA8320E329831D821C8232E03B8323E5D9
:1046A000822E912C8A0C9B1C02E5202E312C2A0C88
:1046B0003B1CA501495A5F4F5E874D87B501685A7B
:1046C0007F4F788B6F87D501A059BF4FBA8BA98BCD
:1046D0009C8B8B8B01979E8B8D8BC5010E945022EA
:1046E0008823D9F3C20163E044E00E94661988235D
:1046F00031F0BB81BF5FBB83C3010E94C92BC201E4
:1047000061E044E00E946619882331F0EB81E150BA
:10471000EB83C3010E94C92BC20162E044E00E9406
:104720006619882331F0FC81FF5FFC83C3010E947E
:10473000C92BC20160E044E00E946619882331F071
:104740002C8121502C83C3010E94C92B3C81303124
:1047500011F41C8205C04C814F3F11F45FE05C8373
:104760006B81683011F41B8205C07B8177FF02C02A
:1047700087E08B83AC81BB27A7FDB095B987A8875D
:10478000D401EC912B81332727FD30953F832E8375
:10479000D1018C9190E08095909528853985AC0168
:1047A000249FC001259F900D349F900D1124895D99
:1047B000992787FD90955A81252F332727FD30951E
:1047C000820F931F62E070E00E9439376A8384E1B0
:1047D0008E1BF0E0E095F0956E817F816E9F9001D9
:1047E0006F9F300D7E9F300D1124820F992787FD1A
:1047F00090957981272F332727FD3095820F931FBE
:1048000062E070E00E9439376983C20164E00E946F
:104810005C19882399F18D81282F332727FD309546
:10482000AD89BE892A173B07BCF48E819F8114E0B5
:10483000880F991F1A95E1F7BC818B0F09F44DCFB2
:104840008A3009F44ACF8D3009F447CFEA85FB85D9
:10485000E20FF31F80831182ED81EF5FED83C301CF
:104860000E94BD2BFD818F2F992787FD90952B8965
:104870003C892817390714F43C853D83C20165E063
:104880000E945C198823A9F04D8141504D83C301DA
:104890000E94C32B5D8157FF02C01D820AC06D813B
:1048A000E62FFF27E7FDF0958A859B85E80FF91F26
:1048B0001082C20166E00E945C19882309F442C09C
:1048C000C3010E94BD2BC5010E9450228823D9F349
:1048D000C6016BE671E10E94D430C6016A857B8512
:1048E0000E94E731C6016AE571E10E94D430C2013D
:1048F00064E00E945C198823E1F0C3010E94BD2B93
:1049000068960FB6F894DEBF0FBECDBFCF91DF9192
:104910001F910F91FF90EF90DF90CF90BF90AF90DD
:104920009F908F907F906F905F904F903F902F90CF
:104930000895C20165E00E945C19882321F2C30139
:104940000E94C32BEE24FF2410E033C0D1018C91D0
:1049500090E00196EF89F88D9C01E29FC001E39FF2
:10496000900DF29F900D11246A81680FD4018C91F3
:1049700090E00196FC01EE9EC001EF9E900DFE9E20
:10498000900D11244981480F2F89210FC60101E0A4
:104990000E94BE1D2F89388D2F5F3F4F388F2F8B80
:1049A0002031310599F60894E11CF11C105F103894
:1049B00019F0188E1F8ACACFD1018C91BAEF8B9F44
:1049C000802D11248250EA818E0FAD85BE858C9397
:1049D000F40180818F5FF9818F0FAF85B8898C9347
:1049E000C60164E571E10E948930F1018081FAEF2E
:1049F0008F9F802D112482502A81820FAD85BE8524
:104A00008C93F401808190E00196880F991FF981C1
:104A10008F0FAF85B8898C93C6016EE471E10E9457
:104A20008930F1018081FAEF8F9F802D112482500F
:104A30002A81820FAD85BE858C93F401208130E000
:104A40002F5F3F4FC901880F991F820F931FF98174
:104A50008F0FAF85B8898C93C60168E471E10E941D
:104A60008930C60160E00E940F1AF101808190E058
:104A7000019628853985289FB001299F700D389FA0
:104A8000700D112461503A81630FD4018C9190E034
:104A90000196EE81FF81E89FA001E99F500DF89FEC
:104AA000500D11244250F9814F0FC60127E00E949A
:104AB000941AC60161E00E940F1AD1012C91822F35
:104AC00090E0F4010081019648855985489F700166
:104AD000499FF00C589FF00C11245EEFE50E6A819F
:104AE000E60E402F50E04F5F5F4FAE81BF81A49F25
:104AF000F001A59FF00DB49FF00D1124E350B98192
:104B0000EB0F2E5F029762E070E00E943937280FAA
:104B10000B5FC6016E2D4E2FF3E0EF2E0E94A41CFA
:104B2000F40180814EE2481BC60160E024E50E944A
:104B3000941AC60160E00E940F1AD4010C914FE252
:104B4000401B0F5FC60160E024E50E94A81AED85B6
:104B5000FE851082D4018C91B0E3B81BEF85F889F3
:104B6000B083C60161E00E940F1AC6016A857B8589
:104B70000E94E731E989FA8980819181A281B3811C
:104B800087709070A070B0700497A105B10508F00F
:104B9000A4CDFD812F2F332727FD30954D895E89C8
:104BA000241735070CF099CDD1018C9190E0289F06
:104BB000B001299F700D389F700D1124F401808180
:104BC00040E3481BC6012FE501E00E94BE1D85CDD4
:104BD0002F923F924F925F926F927F928F929F920D
:104BE000AF92BF92CF92DF92EF92FF920F931F93FB
:104BF000DF93CF93CDB7DEB762970FB6F894DEBFE1
:104C00000FBECDBF6C016C837D834B8324E530E008
:104C1000C20ED31EF60110822CEA3FEFC20ED31E45
:104C20001AE0A12EB12CAC0CBD1CB5E22B2E312C00
:104C30002C0C3D1CAEE44A2E512C4C0C5D1C1A82EF
:104C40003FEF398310E0F0E37F2E6624A601495A36
:104C50005F4F5F834E83C601885A9F4F998788872D
:104C6000F601EA5AFF4FFB87EA8796012B5A3F4F1E
:104C70003D872C87E3E58E2E912C8C0C9D1C5B814F
:104C8000452F50E05F874E878B818150888BC6010E
:104C90000E9450228823D9F3C50164E00E945C1968
:104CA000882369F4C50165E00E945C19882339F402
:104CB000C50166E00E945C19882309F4D3C0F401A1
:104CC0000081C50164E00E945C19882329F0C101BC
:104CD0000E94BD2B1983CBC0C1010E94C32BC7C04A
:104CE000C50163E044E00E946619882321F01F5F3C
:104CF000C1010E94C92BC50161E044E00E94661910
:104D0000882321F01150C1010E94C92B812F9927BE
:104D100087FD90952E853F858217930711F410E04B
:104D200002C017FD1889F4018081819F902D112404
:104D30008C5F682E691A28C0872D992787FD90956A
:104D4000262D332727FD3095821B930B0297D4F431
:104D5000898162960FB6F894DEBF0FBECDBFCF91AA
:104D6000DF911F910F91FF90EF90DF90CF90BF9058
:104D7000AF909F908F907F906F905F904F903F90FB
:104D80002F900895F1E0FA83862D992787FD90955D
:104D9000272D332727FD3095820F931F62E070E0A7
:104DA0000E943937762EEE81FF811082E885F985E1
:104DB000608321E0EA85FB852083EC85FD851082F8
:104DC0002C813D81C9019A8B898B00E0E12EFF2463
:104DD000E7FCF09420C0802F90E08E159F0569F4C9
:104DE00023E0EE81FF812083F40180818E9D802D60
:104DF0001124870DE885F9858083E989FA89659111
:104E00007491C2010E94D4300F5F29893A892E5FC4
:104E10003F4F3A8B298B3B810317E8F2C20160E0D8
:104E20000E940F1AF40140814E9D402D11244150E3
:104E3000470DC20160E024E50E94941AC20161E0BE
:104E40000E940F1AF40100810E9D402D1124425042
:104E5000470D0D5FC20160E024E573E0E72E0E947C
:104E6000A41C15CFFA81FF2309F066CF39CF802F1C
:104E700090E0909581959F4F2E853F85AC01249FB2
:104E8000C001259F900D349F900D11246EEF662E6A
:104E9000680E52CF2F923F924F925F926F927F9205
:104EA0008F929F92AF92BF92CF92DF92EF92FF923A
:104EB0000F931F93DF93CF93CDB7DEB72B970FB62A
:104EC000F894DEBF0FBECDBF9B878A877A83698344
:104ED0005C834B838C0101591F4FF801808188232B
:104EE00009F422C18A859B858A5A9F4F9B878A87AE
:104EF00081E0EA85FB85808312921292E455F040AE
:104F0000FB87EA87108E9EE4E92EF12CEE0EFF1E41
:104F1000C70161E00E940F1A8AE0282E312C8A8591
:104F20009B85280E391EB5E26B2E712C680E791EFA
:104F3000E981FA81F491FD83A7E58A2E912C880EF0
:104F4000991EF8E5CF2ED12CC80ED91EE2E54E2EC3
:104F5000512C480E591E8D5A9F4F9F838E8370E7A8
:104F6000A72EB12C8A859B85A80EB91E19870887A4
:104F70008A859B850E9450228823D1F39D819923A5
:104F800011F410E003C0EE81FF811081C70160E0E1
:104F900040E028E731E10E943D1D8B819C81892BF7
:104FA00041F0145FC70160E0412F2B813C810E94DA
:104FB0003D1DF40110828CE0F6018083C7016981F8
:104FC0007A810E948930F201208130E0C901880F86
:104FD000991F820F931F909581959F4F8D5AF401D1
:104FE0008083EE81FF81208130E0C901880F991F05
:104FF000820F931F909581959F4F835DF60180836B
:10500000F501808184FF04C0C70168EF71E103C02E
:10501000C70164EF71E10E94D430F201208130E0D9
:10502000C901880F991F820F931F909581959F4FFB
:105030008D5AF4018083F60180818F5F8083EA8539
:10504000FB8582A5882321F0C70160EF71E103C0D1
:10505000C7016CEE71E10E94D430F201808190E0D2
:105060009C01220F331F280F391F309521953F4F88
:105070002D5AF4012083F60180818F5F8083C70160
:1050800068EE71E10E94D430C10165E00E945C19B4
:10509000882351F0EA85FB8562A56F5FC3010E94FA
:1050A000CF2BC3010E94C92BC10164E00E945C198F
:1050B000882399F4E885F9856081262F30E040E067
:1050C00050E0F50180819181A281B381821793071D
:1050D000A407B50708F16F3FF9F08A859B858159D0
:1050E0009F4F9B878A878FEFEA85FB858083EF56EA
:1050F000F040FB87EA87C30160E00E94AD29C3014D
:105100000E94BD2B81E0EA85FB85808F0DC08A85DA
:105110009B850E94D8202CCFC10166E00E945C19BB
:10512000882309F425CFF3CF2B960FB6F894DEBF72
:105130000FBECDBFCF91DF911F910F91FF90EF90E8
:10514000DF90CF90BF90AF909F908F907F906F90A7
:105150005F904F903F902F900895AB016DEF71E1FC
:105160000E944A270895AF92BF92CF92DF92EF92AA
:105170000F93CF93DF936C018EE790E0C80ED91E9A
:1051800082E3F601808381E090E0A0E0B0E0B2939A
:10519000A293929382936F0185EF9FEFC80ED91E61
:1051A0008FEFF601808381E99FEFC80ED91EC601FB
:1051B0000E940D20C6010E949518C6016FEF0E9443
:1051C00099184AE0A42EB12CAC0CBD1CC5010E945C
:1051D0004C19C5010E948419C60148960E940619FF
:1051E000C601825B9F4F6DE04BE020E10FE03EE0A7
:1051F000E32E0E94481FE601A596CE010E94DC2BFB
:10520000C50165E00E945C19882329F0CE0160E0A9
:105210000E94CF2B06C0CE016EEF71E140E00E94EC
:10522000BC29DF91CF910F91EF90DF90CF90BF908D
:10523000AF9008950F93DC01002309F069C062303C
:1052400009F443C0633030F4662359F0613009F04B
:105250005FC00DC0633009F444C0643009F058C029
:105260004CC04B3008F04AE056964C9351C0842F06
:1052700090E0880F991F1F962D913C915097280F11
:10528000391FF9018591949190969C938E935F9725
:10529000FC014591549114968C911497849F602D34
:1052A000112491966C939197252F3327862F90E0A8
:1052B0002817390708F4652F14968C911497689F66
:1052C000802D112492968C9323C014968C91149760
:1052D000489F802D112459968C9359975A962C9358
:1052E00017C014968C911497489F802D11245B96BB
:1052F0008C935B975C962C930BC014968C911497AF
:10530000489F802D11245D968C935D975E962C931B
:105310000F910895FC01222371F4648B8481489FCE
:10532000802D1124858B15A214A213A281E0878BF6
:1053300080934A04108E0895FC01662369F4178A4D
:10534000158A14A213A2108E10924D0410924C04D0
:1053500010924A041092B4000895CF93DF93EC01A9
:10536000662319F40E949C291982DF91CF91089538
:1053700060E00E94AD2908950F931F93CF93DF93B0
:10538000EC018B01442371F460E00E94AD291E877B
:105390000D871B8A1A8A81E0898389E08E8B198E9A
:1053A0001B8E1D8EDF91CF911F910F910895CF938A
:1053B000DF93EC01662339F58881882321F1898107
:1053C000882309F5898590E0880F991FEF81F8857A
:1053D000E80FF91F859194912FEF8F3F920711F4F9
:1053E000188211C09C8790E0880F991FEA85FB8581
:1053F000E80FF91F65917491CE0140E00E94BC292D
:1054000089858F5F8987DF91CF91089560E00E9441
:10541000D72908950F93CF93DF93EC01662309F00A
:1054200068C08981882309F464C08D89882309F0C4
:1054300060C0EA89FB89EE0FFF1F4D855E85E40F92
:10544000F51F259134912115310509F040C0898956
:10545000813031F41B8A1A8AFA012591349137C0C0
:1054600019828881882379F0CE0160E00E94D729D3
:105470008A899B89880F991FED85FE85E80FF91FA2
:105480002591349124C0CE0160E00E949C2931C056
:10549000E6E036952795EA95E1F76F70422F4F7158
:1054A00075E0369527957A95E1F72051CE0100E019
:1054B0000E941A298A899B8901969B8B8A8B880F67
:1054C000991FED85FE85E80FF91F25913491B901EB
:1054D000769567957695679520FDDACF6F73432FA4
:1054E000CE0120E00E948A298A899B8901969B8BA4
:1054F0008A8BDF91CF910F91089560E00E940A2A74
:105500000895CF93DF93EC01662309F0D6C08F890D
:10551000882309F4D2C08D89882321F4CE010E940A
:105520009C29CBC081508D8B8DA1882309F03BC075
:105530008BA19CA10196880F991FEF8DF8A1E80F10
:10554000F91F85919491282F27702EA3AC0163E059
:10555000569547956A95E1F79A0136952795892FD3
:105560009927869586958FA32F738C81289F202D50
:1055700011242DA3417040934E048BA19CA1019650
:105580009CA38BA329A130E08217930760F08AA126
:10559000882329F0281B31093CA32BA304C0CE018A
:1055A00060E00E949C298DA181508DA3988D9F5F02
:1055B000988F2FA18C89280F8C85280F2A836B8DBB
:1055C000662369F0892F992787FD909570E00E94E6
:1055D00039378C8D869F802D1124820F8A838A8192
:1055E00090E0CB966BE370E00E9439378A832E8976
:1055F0002B83698D662379F0888D772767FD7095F9
:10560000992787FD90950E9439378A8D869F802D36
:105610001124820F8B836D8D662399F0888D9927D5
:1056200087FD909570E00E943937CB0162E070E011
:105630000E9439379E8D899F802D11249B81890F6F
:105640008B838B818A300CF089E087FD80E08B832F
:105650008C898F3309F41B82F894EA81F0E0EE5DC7
:10566000FD4EE491E0934B042D8130E08B8199272E
:1056700087FD9095A901489F9001499F300D589F43
:10568000300D112488A590E0A901489F9001499F01
:10569000300D589F300D11248EA1992787FD9095CC
:1056A000AC01249FC001259F900D349F900D1124C3
:1056B00080934C0480934D047894DF91CF910895AA
:1056C00060E00E94812A089560914C04662381F174
:1056D000809149048F5F8093490490914B0489170E
:1056E00038F130E080914A04882309F431E03093A6
:1056F0004A041092490480914E048823A9F08091B5
:10570000350123E4829FC0011124895B8093350118
:1057100090E070E00E94253780934D0405C0809191
:105720004D048093B40008953323C9F780E0F9CF86
:1057300008951F920F920FB60F9211242F933F934B
:105740004F935F936F937F938F939F93AF93BF9389
:10575000EF93FF930E94642BFF91EF91BF91AF9164
:105760009F918F917F916F915F914F913F912F9179
:105770000F900FBE0F901F9018956AE172E140E004
:105780000E94BC29089562E172E140E00E94BC29B8
:1057900008956CE072E140E00E94BC290895FC018C
:1057A000862F668170E06F5F7F4F992787FD909508
:1057B0000E943937858308950F93FC0181E084832B
:1057C00084E080A78DE592E1908B8787CF0161E02F
:1057D00040E020E000E00E941A2983E061E070E0F0
:1057E0000E94212FE1EBF0E08081887F816080833F
:1057F000F89410928000E1E8F0E0108210928500A9
:105800001092840088E191E0909389008093880051
:10581000808188608083808181608083EFE6F0E012
:1058200080818260808378940F910895F999FECFEA
:1058300072BD61BDF89A80B50895F999FECF1FBA7F
:1058400072BD61BD40BD0FB6F894FA9AF99A0FBEC9
:1058500008950F931F93CF93DF93BC01823091057E
:1058600010F462E070E0E0915904F0915A04A0E075
:10587000B0E040E050E024C0808191818617970716
:10588000D0F08617970771F482819381109729F0E1
:1058900013969C938E9312972CC090935A048093E6
:1058A000590427C04115510519F08417950718F4BC
:1058B000EF018D01AC01DF01828193819C01F9012F
:1058C0003097D1F641155105F9F0CA01861B970BA7
:1058D0008430910580F48A819B810115110521F0A6
:1058E000F8019383828304C090935A0480935904EF
:1058F000FE0132962FC0FE01E80FF91F61937193EC
:1059000002979983888326C08DB79EB788579040A9
:10591000209136013091370128173907C8F4AC01BE
:10592000421B530B4617570798F0CB0102964817B6
:10593000590770F0820F931F9093370180933601BF
:105940009093390180933801F9016193719302C0FA
:10595000E0E0F0E0CF01DF91CF911F910F9108952A
:10596000CF93DF939C01009709F48FC0EC0122973D
:105970001B821A826091590470915A046115710555
:1059800081F488819981820F931F20913601309193
:1059900037012817390739F5D0933701C0933601FD
:1059A00074C0DB0140E050E0AC17BD0708F1BB83D9
:1059B000AA83FE0121913191E20FF31FAE17BF07B9
:1059C00079F48D919C911197280F391F2E5F3F4FCD
:1059D0003983288312968D919C9113979B838A8398
:1059E0004115510571F4D0935A04C09359044DC028
:1059F00012968D919C911397AD01009711F0DC01E7
:105A0000D3CFDA011396DC93CE931297FA0121914A
:105A10003191E20FF31FCE17DF0769F48881998176
:105A2000280F391F2E5F3F4FFA01318320838A816F
:105A30009B8193838283E0E0F0E0DB0112968D91FD
:105A40009C911397009719F0BC01FD01F6CFAB01B3
:105A50004E5F5F4FDB018D919C91840F951F2091CC
:105A60003601309137012817390779F4309729F436
:105A700010925A041092590402C0138212824250AA
:105A800050405093370140933601DF91CF910895F4
:105A90006F927F928F929F92AF92BF92CF92DF923E
:105AA000EF92FF920F931F93CF93DF938C01009798
:105AB00029F4CB010E94292C8C01B4C08EEFE82E72
:105AC0008FEFF82EE00EF11E5801A60EB71EAE1491
:105AD000BF0408F4A5C0D7014D915C9111974617FA
