:100000000C9466090C948E090C948E090C948E093C
:100010000C948E090C948E090C948E090C948E0904
:100020000C948E090C948E090C948E090C94B12CAE
:100030000C948E090C948E090C948E090C948E09E4
:100040000C943A2F0C948E090C948E090C948E0902
:100050000C948E090C948E090C948E090C948E09C4
:100060000C948E090C948E0905A84CCDB2D44EB9CF
:100070003836A9020C50B9918688083CA6AAAA2A4B
:10008000BE000000803F1300761F033844404A0042
:100090000020203E002F5E5674002A235D39050E95
:1000A0003E715D0662236E2C036F31773C032F5E39
:1000B0007F7F040E741E7B03FFFFFFFFFFFFFFFF28
:1000C000FFFFFFFFFFFFFFFF80001FFF80007FFF9C
:1000D000E0000007E0FFFFFF8000000000000000DC
:1000E00000000007EE0000FF8CFFC0001FFE0000B4
:1000F000077BDDE60F007EFF98FF8FE7803E7FF3F2
:10010000E77BDDE66F7F7EFF91FF1FE780307FF3A7
:10011000E70001E6E07F7EFFB3FE3FE7FF307FF3BD
:10012000E77BDDE67FFF7EFFB3FC7FE7FF337FF3F6
:10013000E77BDDE03FFF7CFF93F8E007FF337FF3D1
:10014000E77BDDE780C101FF83F1C7E7C0337FF3C1
:10015000E70001E7BEDD7FFFF3E38FE7DF336023D6
:10016000E7FFFFE7BED97FFFF3E71FE7DF336F83CA
:10017000E70000603ED97F0FF3E63FE7DF336F878C
:10018000E7000067FEDF7E07F3E40003DF336FBFA5
:10019000E73F9E67FECE7C07E0E0DBD81F336FBFF2
:1001A000E73F1E603EECF807E0E1DBDBC00000004B
:1001B000003E3E678001F047E4E7D99BFF03F8006B
:1001C000007C7E67BFFFE0C7E0E7D99BFFCFF9FF68
:1001D000FFF8FE603FFFC1C7E0E7DDBBFFCE01FFD8
:1001E000C001FE67FFFF83C7F3E7DDBBFC00F9FF3B
:1001F000C003FE67FFFF07C7F3E7C003F80FF9FF6F
:10020000CFFFFE07FFFE0FC7F3E7FCFFF0FFF8008C
:100210000FFFFE0300001FC7F3E7FCFFF3FFF8002A
:100220000FFFFFD000003FC7F3E7FCFFF3FFF9FF2C
:10023000E7FFFFD038007FC7F007FCFFF3FFF9FFAF
:10024000F3FFFFDCF8FFFFC7F3E7FCFFF20000005D
:1002500000000004F9FFFFC783E3FCFFF200000089
:1002600000000004F1FFFFC783F3FCFFF27FFFFEF5
:10027000FCFCFFE4E3FFFFC79FF1FCFFF27FF0000F
:10028000FCFCFFE4C7FFFFC79FF8FCFFF27FF7FF0E
:100290008CFCE0640FFFFFC79FFC7CFFF27FF7FF41
:1002A000AC0000641FFFFFC79FFE000002000701B3
:1002B000A4000664FFFFFFC78000000000000001EB
:1002C000B7EFFE64F801FFC7800007FF307F703989
:1002D000B0000264F0007FC7DFF7C7FF36417F3907
:1002E0009FBFFA04E3FC7FC7C0078FFF365D00386D
:1002F0001C3F8A04C7FE7FC7DF9F1FFF365D0038A3
:1003000001002260CFFE7FC7D0BE3FFF365D3F3F7A
:10031000FBEFBE60CFFE7FC7D6BC7FFF32513E00F1
:10032000FA2FBE640C067FC7D638FFFF30113E7E21
:10033000F8AFBE640D507FC7D7F1FFFF3A513E7E44
:10034000FDAF8064CD567F87C7E3FFFF3A5F3E7005
:10035000018F8064C5563F07D7E3FFFF3A5F3E70C9
:10036000000033E4E5571E07D7E3FFFF0A403E7362
:10037000FFFFF3E4E003840FC7E3FFFF02403E0307
:10038000FFE00004E0FBC03FEFE3FFFF3E7FBE0362
:10039000FFE00004F0FBE03FC1E3FFFF3E7FBFF062
:1003A00007E7EEFCFC387C1FDDE3FFFF3E7FBFFF6D
:1003B000F7E7EE00FE0F3E1FC1E3FFFF3E603FFF89
:1003C000F7E70EFCFF879F1FFFE3FFFF3E6FFFFF76
:1003D000F3E77E0CFFE1DF1FC3C3FFFF206FE000E8
:1003E000FBE700AC01F1DF0FDB87FFFF046FEFFEDF
:1003F000FBE77FA001F98307C38FFFFF8E6FEFE05C
:1004000003E77FBDF8F9BB83FB8FFFFF9E60000F02
:10041000CFE4001DFC7983C3FB87FFFF9E7FEFFFC6
:100420008FE5F7D9FC783BE3C3C3FFFF9E7FEFFF67
:100430009FE5F7DBFE7983E3DFE3FFFF1E7FEFFF3E
:100440003FE5F7DBFE79BBE3DFE3FFFF027FEFFF72
:100450003FE4F01BFE7983C3DFE3FFFF3A000000B7
:100460000006F7FBFE79BB83C1E3FFFF3A00000003
:100470000006F7F9FE798307D8E3FFFF3BF3FFFFA0
:10048000EFFE03FDFE79DE0FDC63FFFF3801FE00A7
:10049000EFC6F0040079DE1FDE63000000000000FC
:1004A0000000FFE00079DE3F8F6200001FFC00FFCC
:1004B0000010FFFFFE781E3F87627FE78FFFFFFF80
:1004C0003F79FFFFFE79FE3FA362FFE7C7FFC0FF52
:1004D0003C79FFFFFE79FE3FBB62FFE7E3FF9EFF33
:1004E00030F9FFFFFE79FE3FBB62FFE1F0003EFF07
:1004F00037F9FFFFFE79FE3FA362FFE0FFFF9E009A
:100500000000007FFE79FE3FA762FFE43FFFC000CE
:100510000000007FFE79FE3F8F62FFC70FFFFCFFE8
:1005200037F9DE7FFE79FE3F8F62FFCF83FFFCFF4E
:100530003079DE7FFE700E3FDE627FCFE07FFCFF12
:100540003F79DE7FFC000E3FDC6203CFF83FFCFF0B
:10055000000000000007CE3FD8E3F3CFFF1FFCFFF1
:1005600000000000009FCE1FD1E3F000000000005B
:100570003F79FE7FFF9FCE1FC3E3C0000000000055
:100580003F79027FFF9FCF0FC7E383D79EBCFCFF5D
:100590003C78007FFF9FCF8FCFC207D79EBCFCFF68
:1005A00038F87807FF9FCF8FCF0027D79EBCFCFF7E
:1005B0003BF9FE03FF9F878FCE00E7D79EBCFC0070
:1005C0003BF9FE71FF9F0387CC43E7D79EBC000039
:1005D00000000078FF1E31C7C8E3E7D79EBCFF5F6D
:1005E0000000007C7F007807C1E3E7D79EBCFF5F77
:1005F0009F7BB73E3F007807C3E3E7D79EBCFF5F12
:100600009F7BB79F1F3E31C7C7E3E7D79EBCFF5F05
:100610009F7BB78F9F3F03C7CFE3E7D79EBCFF5FAA
:100620009E7BB7C39E3F87C7CFE3E7D79EBCFF5FE4
:100630009EFBB7F39C1FCFC7CFE3E0000000000094
:100640001EFBB7F801DFCFC7CFE3E00000000000DA
:1006500000000001FFDFCFC7C063E6DB1B6DB6DB28
:100660001FFFFF9FFF000007CC63E7FF00000003B0
:1006700081FFFF9FFE00000FCC63E7FF3FFFFFFFFE
:10068000C07FFF87FC00001FCFE3C3FE3FFFFFFFDB
:10069000F83FFFC3F83FFFFFCFE381FC7FFFFFFF81
:1006A000FE3FFFF1F07FFFFFCFE318F8FFFFFFFFF2
:1006B000FF1FFFF8F0F80001CFE03C00FFFFFFFF55
:1006C000FF9FFFFC01E1FF9DC0603C01FFFFFFFEBB
:1006D0001F9FFFFE01EFFFDDCC6318E3FFFFFFFE6E
:1006E0000F9F03FFF1EF801DCC6381E7FFFFFFFE4B
:1006F000CF9E03FFE1EF9FFDCFE3C3C3FFFFFFFEEC
:100700008F9E33FFC1E03FF9CFE3E70000000FFE0B
:10071000800033FF83EF8001CFE3E600000007FE97
:100720009F8003FF07EFBCFBC7E3E400000007FE68
:100730001F9F07FE07EFBCFBE3E3E03CFFFF83FFE7
:10074000FF9FFFFC07E03C1BF1E3E07C7FFFC1FF64
:10075000FF9FFFF807FDFC0BF9E1E0FE3FE1E0FF42
:10076000FF9FFFF061FDF8CBF9E001FF1FEDF07F87
:10077000FF9FFFE0F0FDE0C3F9F003FF83EDF81FFA
:10078000FF9FFFC1F83D87C7F9F807FFC0EDFC03E5
:10079000FF9FFE03CE0D0FCFF9FC0FFFF8001E00E8
:1007A0007F9FFC07C7843F8FF9FFFF80FE6FDF004C
:1007B0000000000FD3E0BF1FF9FFFF3EFE6FDFE038
:1007C0000000003F83E3BE3FF9FFFC7EFE6000FCBB
:1007D000000001FE07E7BC7FF9FFF9FEFE7FFEFF88
:1007E000FF9FFFF863E73CFFF9FC03C0000002FF36
:1007F000FF9FFFE1F3E73CFFF9FDFF80000F7AFF69
:10080000FF9FF807FBE77CFFF87DFF9EFFCF780195
:10081000FF9FFBFFF1E7787FF31DFF9EFFCF03FDF6
:10082000FF9FF1FFE0C6787FF7C07F9EFFCFDFFC20
:100830000000040004067B7FE7FF001EFFC00000ED
:1008400068000004040EFB7FEFFF001E7F00000025
:10085000002FB1F1E0BEFB7FEFFE7BFF7F7E1FFC30
:100860003F2F9FFBF1BEFB7FE7FEF9FF007F87FC78
:10087000002FD003FBBE037FF07CFCFFFBFFC1FF1A
:100880007FE0D001FBBEFF7FFF01FE0003FFF00011
:10089000000003F80000FF7FFFFFFFFFFFFFFC00E9
:1008A000000E07F80000007FFFFFFFFFFFFFFFFFC4
:1008B000FFFFFFFFFFFFFFFF1010FFFFFFFFFFFD28
:1008C000F7FAEBFFFFDFFFAFFFFFFFFFFBFFF5FFD7
:1008D000FFDFFFAFDFFFAFFFFFFF10100000500092
:1008E0002028501000280000000001400080014036
:1008F0000000001428081014280000001010000048
:1009000010006D005408AA1454086C201000001048
:10091000006C045410AA2854106C00100000101031
:1009200000007FFE6B5657AA7FFE6B5657AA7FFECC
:100930006B5657AA7FFE4002400240027FFE000035
:10094000101000007FFE60065FFA500A520A504AFB
:10095000500A500A562A560A500A5FFA60067FFE6D
:100960000000101000200050382047FE550244823D
:1009700038F2210A12660A9606967666750A04F21D
:1009800007FE00001010000038007DFE7D027D0291
:1009900039FE7F024002400240027FFE0200253CF9
:1009A000523C200000004024000000000000000035
:1009B00000000000C000000000000000C0000000B7
:1009C00000000000000000007FC3060CFF0781024A
:1009D00006070308C018610206058118C01031021D
:1009E000060481B0C0301102060C80E0C020110264
:1009F0000608C0E0C0201102061840E0FE201102E7
:100A0000061FE1B0C020110206106110C0301102B3
:100A100006302318C01031020620360CC01861863B
:100A200006601C04C0078078000000000000000081
:100A3000070000000000000001FC000000000000B2
:100A400007763C000000000000DE350000000000DA
:100A500001D01D8000000000003F906000000000F9
:100A6000002C9C3000000000006E9E9800000000EA
:100A700000FFD3FFC000000003807E0030000000B4
:100A800006208100100000000C00E1007000000052
:100A90000820817FC00000001BFF81BD8000000096
:100AA00033FF81FE800000003CCCFF6600000000A8
:100AB00000CC00660000000000FC007E000000008A
:100AC0000078003C000000001809FFFFA0C0006093
:100AD000CDB5E0960C60964C40960C60CDB5E0C06C
:100AE0000060FFFFA0150B1E0B290B340B400B44BD
:100AF0000B500B424553542053434F5245004E6513
:100B000077207265636F7264732100080838B992A8
:100B10007C10102844436F6E74696E756500332035
:100B20006D696E20706C61790035206D696E207082
:100B30006C6179003130206D696E20706C617900D4
:100B40004D617000486967682073636F7265730058
:100B50004D61696E204D656E75000303070507053D
:100B6000040505040503060302070202010202034D
:100B7000020E090E0E0D0E0E0F0E070507050307D8
:100B8000050F050705070607010205020007020217
:100B90000700020702000207020007060306070714
:100BA000020205050201020204020005020205001C
:100BB0000607050507050203020206020000000001
:100BC0000B000300030705070407010502050707DB
:100BD00004000300000705050700050005020702E1
:100BE000000C0002020200040004020107050705D0
:100BF00007040107040507020302070407010706AB
:100C000006010107070707030307000500000D00A1
:100C10000205000505050005020107030F0903068B
:100C20000306070702020505070702070705070372
:100C30000107050607020705070504040307020567
:100C4000070404070307070106070507070303074F
:100C5000050307030604070101070107040703044E
:100C60000307060705020501060101070400070541
:100C7000010204050700020102080808000300063B
:100C80000306070702020505070502070705070314
:100C90000107050607020705070504040307020507
:100CA00007040407030707010607050707030307EF
:100CB00005030703060407010107010704070304EE
:100CC00003070607050205010601010704020705DF
:100CD00000070005070206020307050703053F2179
:100CE0003F1208120A100A0E1C0E0C1E0C141A14C5
:100CF000161F161E131E1E1B1E1E1F1E3F213F3ACF
:100D00002F3A173D173F213F181F02040A041F0EF8
:100D100004040E1F0A1F0A0E0E1F04110E2E252E8C
:100D20002F2A2E262929021F02081F08150E040447
:100D30000E150E15151B151B040604040C040000EB
:100D4000000017000300031F0A1F16371A190413A7
:100D50000A153A000300000E11110E000A040A04DD
:100D60000E040030000404040010001804031F11D6
:100D70001F121F101D151711151F07041F17151D12
:100D80001F151D01011F1F151F17151F000A000049
:100D90003200040A110A0A0A110A040115020E118E
:100DA000171E051E1F150A0E110A1F110E1F151101
:100DB0001F05010E111D1F041F111F1108100F1F09
:100DC000041B1F10101F061F1E040F0E110E1F09FB
:100DD000060E112E1F051A121509011F011F101FE3
:100DE0000F180F1F0C1F1B041B031C0319151300E6
:100DF0001F11030418111F0002010220202000010E
:100E0000020C121E1F120C0C12120C121F0C1A14C0
:100E1000041E05242A1E1F021C141D1020201D1F45
:100E20000814111F101E041E1E021C0C120C3E0A78
:100E3000040C123E1E040214160A020F120E101E9B
:100E40000E100E1E081E120C1226281E322A260410
:100E50001E21001F00211E040102013F213F050742
:100E60007F4141417F3E5B4F5B3E3E6B4F6B3E1887
:100E70003C783C18183C7E3C181C577D571C1C5E67
:100E80007F5E1C007E43437E007E73737E007E7F08
:100E90007F7E7F4141417F30483A060E06297929FD
:100EA000067F4141417F60703F02042A1C361C2AA4
:100EB0007F3E1C080000081C3E7F14227F22143C49
:100EC0003C3C7EFF18423C817E3E6375633E3E6142
:100ED0006B633E3E636B6B3E04027F020410207F17
:100EE000201008082A1C08081C2A0808143E55412E
:100EF00022637569756310181C1810040C1C0C040F
:100F0000000000000000005F000000070007001460
:100F10007F147F14042A7F2A102313086462364941
:100F20005620500008070300001C22410000412207
:100F30001C002A1C3E1C2A08083E080800E060002D
:100F4000000808080808006060000060100804033A
:100F50003E5149453E00427F400062514949462189
:100F600041494D331814127F1027454545393C4AF5
:100F7000494930412111090736494949360649494D
:100F8000291E000024000000806400000814224193
:100F90000014141414140041221408020159090603
:100FA0003E415D594E7C1211127C7F494949363EC3
:100FB000414141227F4141221C7F494949417F09EA
:100FC0000909013E414151327F0808087F00417FF5
:100FD00041002041413F017F081422417F404040B1
:100FE000407F020C027F7F0204087F3E4141413E68
:100FF0007F090909063E416141BE7F09192946263C
:101000004949493201017F01013F4040403F1F20D3
:1010100040201F3F4038403F6314081463030478A6
:1010200004036151494543007F4141000304081016
:10103000600041417F0004020102048080808080C2
:10104000000307080020545478407F28444438386F
:1010500044444428384444287F3854545418087E63
:1010600009090218A4A49C787F0804047800447D30
:101070004000006080847D7F1010284400417F4044
:10108000007C047804787C080404783844444438AC
:10109000FC1824241818242418FC7C0804040808CC
:1010A00054545420043F4444203C4040207C1C20A5
:1010B00040201C3C4020403C44281028444C909048
:1010C000907C4464544C44000836410000007F008A
:1010D000000041360800180408100C7F4141417F90
:1010E0000A4E6F2053442063617264206F720A6E4F
:1010F0006F204C4F414445522E4845580A0A153A34
:1011000045786974001D20466C617368696E670AD2
:1011100020206C6F616465722E2E2E0A0A444F4E99
:101120002754205455524E204F464621006D560AF2
:101130000A504C454153450A5455524E204F46469D
:10114000004C4F5720424154544552590A001773DE
:1011500061766500166261636B00157479706500D5
:101160000A0A0A153A6F6B617920163A6564697448
:1011700000596F7520656E74657265640A00540AC3
:1011800003E181867F3E186D830F0F0E0183866019
:1011900033186DC3198F1803C38E6033186DE33095
:1011A000CF1803C39E603630CDE360CF3006C79EB4
:1011B0007E3E30CDB360CF300CC6F6603330D9B64A
:1011C00060CF33CFCCF66061B0DB1E60CF30D86C1F
:1011D000E6C061B0DB1E618F19986CC6C063B19B1D
:1011E0000E330F0FB078C6FF7E1F1B061E0F17535E
:1011F0004400161378001613140015102000152053
:10120000100000000500893008023802497868148F
:101210000000450068010000050068013801000079
:101220000500380168010000F6E8DBCFC3B8AEA4C2
:101230009B928A827B746E68625C57524E4945412C
:101240003E3A3734312E2C29272523211F1D1C1A05
:101250001917161514131211100F0E0D0C0B0A0985
:1012600008070667126B120101F7030101FF030073
:10127000000000240027002A0000000000250028AC
:10128000002B0000000000230026002900040404B5
:10129000040404040402020202020203030303031F
:1012A00003010204081020408001020408102001FC
:1012B00002040810200000000700020100000304DF
:1012C00006000000000000000000440B11241FBEB7
:1012D000CFEFD8E0DEBFCDBF11E0A0E0B1E0EAE49F
:1012E000F3E702C005900D92A434B107D9F714E0DA
:1012F000A4E4B1E001C01D92AB35B107E1F712E102
:10130000CCECD2E104C02297FE010E94B338CA3C63
:10131000D107C9F70E9468310C94A3390C940000DE
:10132000FC01742F643508F05DC047FD5BC040339D
:101330000CF058C0878D823019F5842F85958595DE
:101340008595992787FD9095462F552747FD509500
:1013500024E530E0829FF001839FF00D929FF00D15
:101360001124E40FF51FEF5AFD4F808190E0272FE5
:10137000277002C0959587952A95E2F78095817030
:10138000972F959595959595462F552747FD5095FF
:10139000272F27708823A1F4E4E59E02F001112491
:1013A000E40FF51FEF5AFD4F81E090E002C0880F77
:1013B000991F2A95E2F7809520812823208308959C
:1013C000E4E59E02F0011124E40FF51FEF5AFD4FF2
:1013D00081E090E002C0880F991F2A95E2F72081F2
:1013E000282B20830895AF92BF92CF92DF92EF9285
:1013F000FF920F931F93E090F301F090F40100919E
:10140000F5011091F6016091EB017091EC0180E023
:1014100090E00E943D365B016C016091F701709194
:10142000F8018091F9019091FA0120E030E048EC58
:1014300052E40E942C37A80197010E94A43520E0B5
:1014400030E048EC52E40E9438350E940C369B0193
:101450006230710514F422E030E0B901882777FD8D
:101460008095982F0E943F369B01AC01C801B701BF
:101470000E94A4359B01AC01C601B5010E9439351B
:101480000E9411367093EC016093EB0180E090E0D4
:10149000A0E0B0E08093F3019093F401A093F501F4
:1014A000B093F6018093F7019093F801A093F901AE
:1014B000B093FA011F910F91FF90EF90DF90CF90C2
:1014C000BF90AF90089584E08093E20180E090E0C7
:1014D000A0EAB1E48093CA019093CB01A093CC0120
:1014E000B093CD018093CE019093CF01A093D00112
:1014F000B093D10180E090E0A0E0B0E08093D20111
:101500009093D301A093D401B093D5018093D601D9
:101510009093D701A093D801B093D9018093DA01B9
:101520009093DB01A093DC01B093DD018093DE0199
:101530009093DF01A093E001B093E1018FEF9FEF63
:10154000909334018093330108950F931F938C017E
:1015500010925C010E94630A80E090E0A0E0B0E09D
:101560008093EF019093F001A093F101B093F20109
:101570008093F3019093F401A093F501B093F601E9
:101580008093F7019093F801A093F901B093FA01C9
:101590001092EE011092ED011092EC011092EB010D
:1015A0001092E8011092E7011092FB0180EB94E0A9
:1015B0009C01029FC001039F900D129F900D11246A
:1015C0009093EA018093E9011F910F910895809112
:1015D000FB01882349F08091E7019091E801019691
:1015E0009093E8018093E7018091E9019091EA01ED
:1015F00001979093EA018093E90108958330A1F067
:10160000843028F4813051F0823058F41AC085308B
:1016100089F0853060F0863099F40FC02AED38E00B
:1016200012C02CEF38E00FC02EE139E00CC020E4EE
:1016300039E009C022E639E006C024E839E003C0F9
:10164000089528EB38E0C9010895E62FF0E094E012
:10165000EE0FFF1F9A95E1F7282F269526952695E0
:10166000E20FF11DE854FF4FE4912E2F30E090E09F
:10167000809590958770907002C0359527958A95D2
:10168000E2F7822F817008951092950110929401D3
:101690008FE391E0909393018093920108954F928C
:1016A0005F926F927F929F92AF92BF92CF92DF92A2
:1016B000EF92FF920F931F93CF93DF934090FC0123
:1016C0005090FD016090FE017090FF016091CE018D
:1016D0007091CF018091D0019091D10120E030E054
:1016E00040E85DE30E942C370E940C367093FF01A6
:1016F0006093FE016091CA017091CB018091CC0191
:101700009091CD0120E030E040E85DE30E942C376D
:101710000E940C367093FD016093FC01992484E4CF
:1017200091E00E9468238823D1F3A090FE0127C096
:10173000E090FC0111C08E2D6A2D0E94250B88239C
:1017400051F06E2D6C1B8091FE014A2D481B82E9E1
:1017500091E00E949009E394C091FC01D091FD01B9
:10176000CD32D1051CF020E830E003C09E012C5A98
:101770003F4F8E2D90E082179307ECF2A394C09117
:10178000FE01D091FF01C135D1051CF020E830E009
:1017900003C09E01205D3F4F8A2D90E08217930782
:1017A0003CF2892D64E10E9441389A3008F468C007
:1017B0006091CA017091CB018091CC019091CD01D3
:1017C00020E030E040E85DE30E942C377B018C0193
:1017D0006091FC017091FD01882777FD8095982F1D
:1017E0000E943F369B01AC01C801B7010E94383509
:1017F0000E940C365B016C016091CE017091CF01AB
:101800008091D0019091D10120E030E040E85DE38B
:101810000E942C377B018C01BE01882777FD8095C3
:10182000982F0E943F369B01AC01C801B7010E946E
:1018300038350E940C369B01AC0182E991E06A2D9B
:10184000422F0E9490098091E3019091E40160E1B0
:1018500070E00E946138262F8091FC01281B809146
:10186000E5019091E60160E170E00E946138462F49
:101870008091FE01481B82E991E0622F0E9490094D
:101880008EE491E060E041E00E94E11A882361F07B
:101890008091FC019091FD01181619062CF4019716
:1018A0009093FD018093FC018EE491E062E041E0C1
:1018B0000E94E11A882361F08091FC019091FD0162
:1018C0008C3291052CF401969093FD018093FC01DC
:1018D0008EE491E061E041E00E94E11A882361F02A
:1018E0008091FE019091FF01181619062CF40197C2
:1018F0009093FF018093FE018EE491E063E041E06C
:101900000E94E11A882361F08091FE019091FF010D
:10191000803591052CF401969093FF018093FE0190
:101920008EE491E064E00E94D71A882371F48EE47B
:1019300091E066E00E94D71A882339F48EE491E0A2
:1019400065E00E94D71A8823C1F07092FF0160926F
:10195000FE015092FD014092FC01DF91CF911F9159
:101960000F91FF90EF90DF90CF90BF90AF909F903E
:101970007F906F905F904F9008959394D0CE4F9248
:101980005F926F927F928F929F92AF92BF92CF920F
:10199000DF92EF92FF920F931F93CF93DF9380918B
:1019A000FE019091FF012FEF813F920714F466240E
:1019B00086C060E170E00E946138662E80C0809130
:1019C000FC019091FD01EFEF813F9E0714F4772415
:1019D00005C060E170E00E946138762E240154E079
:1019E000440C551C5A95E1F750C0872D662D0E9476
:1019F000250B882309F448C0C0E0D0E0FE01EA5777
:101A0000FF4F2491FE01E957FF4F0491FE01E85773
:101A1000FF4F4491CE0187579F4FFC01C49030E0A7
:101A200010E0E42EFF24E21AF30ADD24C01AD10AE2
:101A300084E491E0B501A4010E94CF21882329F01C
:101A4000C657DF4FFE01849105C02596C233D105EC
:101A5000A9F682E00E94FE0A9C0144E0AA0CBB1C8D
:101A60004A95E1F78091FC019091FD01A81AB90A0D
:101A70008091FE019091FF01A201481B590B82E960
:101A800091E06A2D0E94551E7394A72CBB2480916F
:101A9000FC019091FD01F7E08C3A9F071CF060E893
:101AA00070E008C08C5A9F4F60E170E00E9461387E
:101AB0006F5F7F4FA616B7060CF497CF6394862C02
:101AC00099248091FE019091FF0127E0803D9207CB
:101AD0001CF060E870E007C0C09660E170E00E9412
:101AE00061386F5F7F4F861697060CF468CFDF91E1
:101AF000CF911F910F91FF90EF90DF90CF90BF900B
:101B0000AF909F908F907F906F905F904F900895CF
:101B10000F931F9304E411E0C80166EA79E00E9484
:101B2000C529C8010E941D231F910F9108952F926E
:101B30003F924F925F926F927F928F929F92AF925D
:101B4000BF92CF92DF92EF92FF920F931F93DF939A
:101B5000CF93CDB7DEB76B970FB6F894DEBF0FBE4D
:101B6000CDBF898B6A8BFA01780189015490319637
:101B70002491288B3197852D57FC8F5FA82EA59433
:101B8000AF014E5F5F4F5C834B83C801B7010E947A
:101B90008F376B877C878D879E87C801B7010E942E
:101BA000A1356F83788789879A87852D992787FD47
:101BB0009095079668E070E00E946138862F99271B
:101BC00087FD90959A838983888987FD8F5F8595A6
:101BD000992787FD9095AA27BB27A81BB90BBE8321
:101BE000AD831F86222433248A2D992787FD909563
:101BF000EE27FF27E81BF90BF98FE88F85C0E42D4E
:101C0000E595E595E595FF27E7FDF095E20DF31DD8
:101C10002B813C81E20FF31FE4912E2F30E0842DC5
:101C2000877040E850E002C0559547958A95E2F7E5
:101C300024233523232B09F451C0AA8DBB8DBD016C
:101C4000882777FD8095982F0E943F365B016C01B5
:101C50006C897D898E899F890E943F363B014C01AA
:101C6000C601B5012F81388549855A850E942C37D8
:101C70007B018C01C401B3012B853C854D855E85BC
:101C80000E942C379B01AC01C801B7010E94383576
:101C90000E940C36B989B60FBB8BC601B5012B85E6
:101CA0003C854D855E850E942C377B018C01C401EB
:101CB000B3012F81388549855A850E942C379B01B5
:101CC000AC01C801B7010E9439350E940C364A891F
:101CD000460F82E991E06B890E9490094394EA8D56
:101CE000FB8D3196FB8FEA8F45140CF488CFFF856E
:101CF000FF5FFF8729813A81220E331E4D815E816D
:101D00004F5F5F4F5E834D835F858889581784F4EA
:101D1000A88DB98DBB8FAA8F44242D813E81442785
:101D200037FD4095542F2C8B3D8B4E8B5F8BDCCF3A
:101D30006B960FB6F894DEBF0FBECDBFCF91DF918B
:101D40001F910F91FF90EF90DF90CF90BF90AF90D9
:101D50009F908F907F906F905F904F903F902F90CB
:101D600008950F931F93CF93DF936091CA017091F1
:101D7000CB018091CC019091CD010E940C36EB01FA
:101D80008091FC019091FD01C81BD90B2091CE01DF
:101D90003091CF014091D0015091D1010091FE01CD
:101DA0001091FF01CE01409685369105D0F4CA010D
:101DB000B9010E940C36601B710B8FEF603F7807F2
:101DC00084F0613371056CF40091DE011091DF0144
:101DD0002091E0013091E1018C2F48EC5AE00E9403
:101DE000970DDF91CF911F910F9108952F923F9200
:101DF0004F925F926F927F928F929F92AF92BF921B
:101E0000CF92DF92EF92FF920F931F93DF93CF93C6
:101E10000F92CDB7DEB78EE491E062E041E00E9420
:101E2000E11A8823B1F06091DE017091DF018091A9
:101E3000E0019091E1012CE934EC40E25EE30E9484
:101E400039356093DE017093DF018093E001909358
:101E5000E1018EE491E060E041E00E94E11A882314
:101E6000B1F06091DE017091DF018091E00190910D
:101E7000E1012CE934EC40E25EE30E9438356093E6
:101E8000DE017093DF018093E0019093E1018EE425
:101E900091E064E041E00E94E11A8823B1F0609192
:101EA000D2017091D3018091D4019091D5012AE0A3
:101EB00037ED43EA5CE30E9439356093D2017093B9
:101EC000D3018093D4019093D5018EE491E065E035
:101ED00041E00E94E11A882309F442C06091D201D6
:101EE0007091D3018091D4019091D5012DEC3CECFF
:101EF0004CE45FE30E942C376093D2017093D301CE
:101F00008093D4019093D5016091D6017091D7014F
:101F10008091D8019091D9012DEC3CEC4CE45FE329
:101F20000E942C376093D6017093D7018093D8011B
:101F30009093D9016091DA017091DB018091DC010D
:101F40009091DD012DEC3CEC4CE45FE30E942C37DA
:101F50006093DA017093DB018093DC019093DD01E3
:101F60002090CA013090CB014090CC015090CD011F
:101F70006091CE017091CF018091D0019091D101FB
:101F800020E030E040E85DE30E942C370E941136EB
:101F90007B018C016983C201B10120E030E040E89F
:101FA0005DE30E942C370E941136DC01CB016E2DBF
:101FB0000E94250B882309F042C06091D2017091E4
:101FC000D3018091D4019091D50123E333E343E71A
:101FD0005FE30E942C376093D2017093D30180930A
:101FE000D4019093D5016091D6017091D701809171
:101FF000D8019091D90126E636E646E65FE30E94D5
:102000002C376093D6017093D7018093D8019093B9
:10201000D9016091DA017091DB018091DC0190912E
:10202000DD0126E636E646E65FE30E942C37609344
:10203000DA017093DB018093DC019093DD01E09085
:10204000DE01F090DF010091E0011091E101C80193
:10205000B7010E94A135A090D201B090D301C090E9
:10206000D401D090D501A60195010E942C37209172
:10207000D6013091D7014091D8015091D9010E94E9
:1020800039353B014C016093D6017093D7018093A1
:10209000D8019093D901C801B7010E948F37A601DA
:1020A00095010E942C379B01AC016091DA0170917F
:1020B000DB018091DC019091DD010E943935609354
:1020C000DA017093DB018093DC019093DD01C201A2
:1020D000B101A40193010E9439357B018C01609309
:1020E000CA017093CB018093CC019093CD0120E085
:1020F00030E040E85DE30E942C370E941136DC019D
:10210000CB0169810E94250B8130C1F5C801B7015F
:10211000A40193010E9438356093CA017093CB01EA
:102120008093CC019093CD01C401B30120E030E055
:1021300040E05FEB0E942C376093D6017093D7018B
:102140008093D8019093D90189E691E00E94E12C17
:102150006091D2017091D3018091D4019091D50109
:1021600020E030E040E05FE30E942C376093D20132
:102170007093D3018093D4019093D5016090DA01DC
:102180007090DB018090DC019090DD01C401B3010F
:102190002091CE013091CF014091D0015091D101D9
:1021A0000E9439355B016C016093CE017093CF01C1
:1021B0008093D0019093D1016091CA017091CB01BD
:1021C0008091CC019091CD0120E030E040E85DE3CA
:1021D0000E942C370E9411367B018C01C601B5018B
:1021E00020E030E040E85DE30E942C370E94113689
:1021F0009B01AC018E2D622F0E94250B8130C1F511
:10220000C601B501A40193010E9438356093CE0147
:102210007093CF018093D0019093D101C401B30199
:1022200020E030E040E05FEB0E942C376093DA0161
:102230007093DB018093DC019093DD0189E691E0EE
:102240000E94E12C6091D2017091D3018091D40160
:102250009091D50120E030E040E05FE30E942C3710
:102260006093D2017093D3018093D4019093D501F0
:10227000E090EF01F090F0010091F1011091F20176
:102280006090D2017090D3018090D4019090D501DC
:10229000C401B30120E030E040E050E00E949D35F1
:1022A00088230CF0C3C020E030E040E051E4C801D6
:1022B000B7010E9439356093EF017093F00180936C
:1022C000F1019093F201809133019091340197FDD7
:1022D00023C0E090F701F090F8010091F90110910E
:1022E000FA01C401B30120E030E040E050E00E9478
:1022F0009D3588230CF09FC020E030E040E051E4A1
:10230000C801B7010E9439356093F7017093F80155
:102310008093F9019093FA01E090DE01F090DF01E3
:102320000091E0011091E101C801B7010E94A135BF
:102330005B016C01C801B7010E948F37A4019301B2
:102340000E942C3720E030E040E852E40E942C3715
:102350002091CE013091CF014091D0015091D10117
:102360000E94393520E030E040EC51E40E943835DD
:102370000E940C367B018C01C601B501A4019301BA
:102380000E942C3720E030E040E852E40E942C37D5
:102390002091CA013091CB014091CC015091CD01E7
:1023A0000E94393520E030E048E252E40E9438359E
:1023B0000E940C36DC01CB014091FC015091FD01E3
:1023C0009A01220F331F240F351F820F931F64E0E1
:1023D00070E00E9461387093FD016093FC012091D0
:1023E000FE013091FF01C901880F991F820F931FD1
:1023F0008E0D9F1D64E070E00E9461387093FF01B4
:102400006093FE010F90CF91DF911F910F91FF908C
:10241000EF90DF90CF90BF90AF909F908F907F9084
:102420006F905F904F903F902F90089520E030E0A4
:1024300040E050E03CCF20E030E040E050E060CFB2
:10244000CF92DF92EF92FF920F931F93CF93DF9380
:10245000ABE0CA2ED12CF5E1EF2EF12C84E491E013
:102460000E9468238823D1F360E070E080E090E070
:1024700022E030E040E050E00E94B333675F6093B9
:102480009B0160E070E080E090E022E030E040E01E
:1024900050E00E94B33360939C0182E991E063EFC6
:1024A0007AE00E94EC311092990110929B01809188
:1024B000970180939C0100E112E0C0E0D0E0F801B8
:1024C00080819181892B31F482E991E06DE20E9453
:1024D000C4310DC0CC9DB001CD9D700DDC9D700D43
:1024E0001124665E7D4F82E991E00E94FF32809167
:1024F00096019701281B3109C901880F991F880F80
:10250000991F80939B0121968091970190E0FC0197
:10251000CE9FC001CF9F900DDE9F900D1124809320
:102520009C01F801619171918F0182E991E04AE08B
:1025300050E00E94E032C530D10509F68EE491E00A
:1025400064E00E94D71A882379F48EE491E065E074
:102550000E94D71A882341F48EE491E066E00E943D
:10256000D71A882309F47ACF89E691E00E94D52C06
:10257000DF91CF911F910F91FF90EF90DF90CF905F
:1025800008954F925F926F927F928F929F92AF9237
:10259000BF92CF92DF92EF92FF920F931F93DF9340
:1025A000CF93CDB7DEB72A970FB6F894DEBF0FBE34
:1025B000CDBF8C012091EB013091EC01809118028C
:1025C000909119028217930708F0B0C084E491E05B
:1025D00066E472E00E94BD2184E491E066E472E06A
:1025E0004BE00E942124109319020093180296E1F7
:1025F000C92E92E0D92E83E0A82EB12C0BE0402EFC
:10260000512C3E010894611C711C45010894811CE9
:10261000911CF6012081318182819381281739072D
:1026200064F010E1812E12E0912EAA24BB24CC2468
:10263000DD24BBE06B2E712C69C0A49C7001A59CAD
:10264000F00CB49CF00C11248AE192E0E80EF91E23
:10265000C301B7010E942139849C8001859C100D23
:10266000949C100D1124065E1D4FC701B8010E94F5
:102670002139C801B3010E942139F601208131813D
:102680008281938191838083338322838EEF9FEFB6
:10269000C80ED91E0894A108B1089EE0C91692E0A0
:1026A000D90609F0B2CFBDCFB8016C0D7D1D8FE406
:1026B00094E0F70141917F010E94352D0F5F1F4F7C
:1026C0000A30110589F78AE090E0C80ED91E8FE420
:1026D00094E0B601F40140810E94352D0894C11C9C
:1026E000D11CF40141818FE494E0B6010E94352DA4
:1026F0000894A11CB11C82E090E0880E991E0894F9
:10270000C11CD11C95E0A916B10471F0A69C700102
:10271000A79CF00CB69CF00C1124EAE1F2E0EE0E5E
:10272000FF1E00E010E0C0CF0E9420122A960FB6D4
:10273000F894DEBF0FBECDBFCF91DF911F910F91F7
:10274000FF90EF90DF90CF90BF90AF909F908F90D1
:102750007F906F905F904F9008956F927F928F92CD
:102760009F92AF92BF92CF92DF92EF92FF920F9320
:102770001F93CF93DF9330E1832E32E0932EAA2470
:10278000BB24EE24FF242BE0622E712C36C0BE0148
:102790006E0D7F1D8FE494E00E942E2DF801819331
:1027A0008F012196CA30D10591F78AE090E0E80EBA
:1027B000F91E8FE494E0B7010E942E2D082F10E03F
:1027C000F401118300830894E11CF11C8FE494E070
:1027D000B7010E942E2DD82ECC240C0D1D1DF40106
:1027E000019311934F010894A11CB11C0894E11CA2
:1027F000F11CF5E0AF16B10461F0A69C8001A79C26
:10280000100DB69C100D1124065E1D4FC0E0D0E0E7
:10281000BECFDF91CF911F910F91FF90EF90DF908E
:10282000CF90BF90AF909F908F907F906F900895C2
:102830000F931F93CF93DF9300E012E0C0E0D0E04E
:1028400080913301909134018C179D0729F1F80193
:1028500022813381608171818091FC019091FD0121
:10286000681B790B4091FE015091FF01CB0140960E
:102870008536910588F4C901841B950BAC019FEF47
:10288000403F59074CF04133510534F482E991E05F
:102890002BE03BE00E94551E21960C5F1F4FC43079
:1028A000D10571F60091E3011091E4018091FC01E2
:1028B0009091FD01081B190B2091E5013091E60173
:1028C0004091FE015091FF01C80140968536910567
:1028D000C0F4E901C41BD50BEFEFC03FDE078CF05D
:1028E000C133D10574F482E991E0602F4C2F24E0CC
:1028F0000E94F61B82E991E0602F4C2F21E00E949C
:10290000F61BDF91CF911F910F9108955F926F9207
:102910007F928F929F92AF92BF92CF92DF92EF926F
:10292000FF920F931F93CF93DF93C0E0D2E0CC24AC
:10293000DD2455245394A0903301B0903401AC149D
:10294000BD0409F431C16091CA017091CB0180913D
:10295000CC019091CD010E940C363B016091CE01DB
:102960007091CF018091D0019091D1010E940C36DD
:102970004B016881798166197709882777FD8095F1
:10298000982F0E943F369B01AC010E942C377B019F
:102990008C016A817B8168197909882777FD809588
:1029A000982F0E943F369B01AC010E942C379B015F
:1029B000AC01C801B7010E9439350E9499370E94C5
:1029C0000C366739710584F168E57FEF8FEF9FEF73
:1029D00028EA30E040E050E00E94B333C301860FA4
:1029E000971F9983888360EA7FEF8FEF9FEF20E640
:1029F00030E040E050E00E94B3339401260F371FCF
:102A00003B832A838881998160E170E00E9461386C
:102A1000462FC90160E170E00E946138842F0E9456
:102A2000250B882389F6C0C08FEFA8168FEFB80654
:102A300009F0BAC0603171050CF0B6C0E090D20167
:102A4000F090D3010091D4011091D501C801B701D4
:102A500020E030E040E050E00E942837181664F48F
:102A6000C801B7012DEC3CEC4CEC5DE30E949D35B8
:102A700088230CF099C00BC0C801B7012DEC3CECC9
:102A80004CEC5DEB0E94283718160CF08DC0D092EC
:102A90003401C09233011092E8011092E701509284
:102AA000FB0189E691E00E94D52C64E670E080E0AD
:102AB00090E020ED37E040E050E00E94B3337093A7
:102AC000E4016093E30164E670E080E090E020EDD3
:102AD00037E040E050E00E94B3338B019C015B0182
:102AE0007093E6016093E501E090E301F090E4016A
:102AF000C70160E170E00E946138462FC80160E1C3
:102B000070E00E946138842F0E94250B882369F6AB
:102B1000B701882777FD8095982F0E943F36209136
:102B2000CA013091CB014091CC015091CD010E945E
:102B300038350E940C36882777FD8095982F0E94A3
:102B40003F369B01AC010E942C377B018C01B50103
:102B5000882777FD8095982F0E943F362091CE01DF
:102B60003091CF014091D0015091D1010E94383570
:102B70000E940C36882777FD8095982F0E943F365B
:102B80009B01AC010E942C379B01AC01C801B7012D
:102B90000E9439350E9499376093F3017093F401D4
:102BA0008093F5019093F6010894C11CD11C2496E2
:102BB00084E0C816D10409F0BECE80913301909113
:102BC000340197FD89C06091E3017091E401882789
:102BD00077FD8095982F0E943F362091CA01309151
:102BE000CB014091CC015091CD010E9438350E941B
:102BF0000C36882777FD8095982F0E943F369B01E1
:102C0000AC010E942C377B018C016091E501709131
:102C1000E601882777FD8095982F0E943F36209106
:102C2000CE013091CF014091D0015091D1010E944D
:102C300038350E940C36882777FD8095982F0E94A2
:102C40003F369B01AC010E942C379B01AC01C801AF
:102C5000B7010E9439350E94993720E030E040E802
:102C600051E40E949D358823BCF52091D20130911A
:102C7000D3014091D4015091D501CA01B9010E94FC
:102C80002C370E9499372DEC3CEC4CEC5DE30E9414
:102C90009D3588230CF58091ED019091EE01019610
:102CA0009093EE018093ED018FEF9FEF90933401AD
:102CB000809333011092FB018CEE9FEF9093E4011F
:102CC0008093E3019093E6018093E50189E691E02A
:102CD0000E94D52C0E94F309DF91CF911F910F9193
:102CE000FF90EF90DF90CF90BF90AF909F908F902C
:102CF0007F906F905F9008959C0160939B0140933B
:102D00009C0182E991E0B9010E9415330895AF92C8
:102D1000BF92CF92DF92EF92FF920F931F93DF93B8
:102D2000CF93CDB7DEB72E970FB6F894DEBF0FBEA8
:102D3000CDBF6B017C01B42E81E080939A018E019E
:102D40000F5F1F4FC801B701A6012AE00E94E334BC
:102D5000AB2CBB24C02EF12E8E01085F1F4F12C07A
:102D6000C80160E071E00E94B034C8016C2D7F2D75
:102D70000E945F34BC018C2D9F2D0E941535C80127
:102D80000E9432358D819E818A159B0548F382E928
:102D900091E06C2D7F2D0E9415338C2D9F2D0E946C
:102DA0002C352E960FB6F894DEBF0FBECDBFCF9157
:102DB000DF911F910F91FF90EF90DF90CF90BF9028
:102DC000AF900895DF92EF92FF920F931F93CF93EE
:102DD000DF9348E2D42E0F2EF0E0EF2EF0E0FF2E2E
:102DE000F0E00F2FF0E01F2FF02D07C0BE0180E0B4
:102DF00090E00E943D367B018C0184E491E00E94CA
:102E000068238823D1F382E991E06EE57EE00E9499
:102E1000C31E82E991E062E071E00E94023382E920
:102E200091E06CED7CE00E94C31E82E991E06CE0D1
:102E300071E00E94FF326091ED017091EE0180E03F
:102E400090E044E00E94871682E991E065E171E03C
:102E50000E94023382E991E066E171E00E94FF3254
:102E60006091EF017091F0018091F1019091F20178
:102E70000E940C3646E00E94871682E991E065E1E7
:102E800071E00E94023382E991E06CE171E00E94FE
:102E9000FF32C801B7010E940C3648E00E94871635
:102EA000C091EB01D091EC01DD2089F0DA94CE01E4
:102EB00068E270E00E944D3880E090E00E943D366C
:102EC0009B01AC01C801B7010E94393594CF8091B4
:102ED0001802909119028C179D0700F560E070E0D0
:102EE00080E090E022E030E040E050E00E94B33328
:102EF0006C5E60939B0160E070E080E090E022E017
:102F000030E040E050E00E94B333625E60939C0189
:102F100082E991E06EEF7AE00E94EC318EE491E07C
:102F200064E00E94D71A882379F48EE491E065E08A
:102F30000E94D71A882341F48EE491E066E00E9453
:102F4000D71A882309F452CF89E691E00E94D52C44
:102F50008091EB019091EC010E94C112DF91CF9121
:102F60001F910F91FF90EF90DF9008958F929F92A5
:102F7000AF92BF92CF92DF92EF92FF920F931F9387
:102F8000DF93CF93CDB7DEB72E970FB6F894DEBFA1
:102F90000FBECDBF5B016C01942E822E81E0809329
:102FA0009A017E010894E11CF11CC701B601A5013C
:102FB0002AE00E94E334C02EDD24AF2C8E01085F8E
:102FC0001F4F12C0C80160E071E00E94B034C80118
:102FD0006E2D7A2D0E945F34BC018E2D9A2D0E9499
:102FE0001535C8010E9432358D819E818C159D0555
:102FF00048F390929B0180929C0182E991E06E2DB2
:103000007A2D0E9415338E2D9A2D0E942C352E96E6
:103010000FB6F894DEBF0FBECDBFCF91DF911F91E9
:103020000F91FF90EF90DF90CF90BF90AF909F9067
:103030008F9008956F927F928F929F92AF92BF92DE
:10304000CF92DF92EF92FF920F931F93DF93CF9374
:10305000CDB7DEB727970FB6F894DEBF0FBECDBF52
:1030600082E991E060E00E94271B82E991E064E040
:103070004BE224E00E94A01D82E991E061E00E9401
:10308000271B82E991E064E04BE224E00E94F61BFA
:1030900082E991E061E040E00E942B1B82E991E02F
:1030A0006AE57BE00E94C31E6091E9017091EA012C
:1030B00080E090E040E020E005E00E94B6176091DB
:1030C000E7017091E80180E090E041E420E00E9497
:1030D000B6176091ED017091EE0180E090E045E45B
:1030E0002DE204E00E94B6178091330190913401E3
:1030F00097FD93C06091E3017091E401882777FD0B
:103100008095982F0E943F362091CA013091CB01C3
:103110004091CC015091CD010E9438350E940C366F
:10312000882777FD8095982F0E943F363B014C0100
:10313000A40193010E942C377B018C016091E50171
:103140007091E601882777FD8095982F0E943F3681
:103150002091CE013091CF014091D0015091D10109
:103160000E9438350E940C36882777FD8095982F6D
:103170000E943F365B016C01A60195010E942C372D
:103180009B01AC01C801B7010E9439350E949937F3
:103190009B01AC0160E070E080E890E40E94A435FF
:1031A0007B018C01A40193010E942C3720E030E0C8
:1031B00040E850E40E9439350E940C363B014C0136
:1031C000C801B701A60195010E942C3720E030E02C
:1031D0004CE252E40E9439350E940C367B018C018E
:1031E00082E991E064E04BE2262D0E2D0E942F1B18
:1031F00082E991E061E00E94271B82E991E06BE1A6
:1032000040E025E107E073E0E72E0E941A1E82E904
:1032100091E062E00E94271B1BC082E991E060E020
:103220000E94271B82E991E06BE140E025E107E085
:1032300053E0E52E0E941A1E82E991E061E00E94AF
:10324000271B82E991E06BE140E025E10E94BC1D73
:103250008E010F5F1F4FC80163E271E00E94963438
:10326000C8016EE142E00E947C16C8010E942C3524
:1032700082E991E06CED7CE00E94C31E82E991E05E
:1032800061E00E94271B27960FB6F894DEBF0FBEA1
:10329000CDBFCF91DF911F910F91FF90EF90DF9005
:1032A000CF90BF90AF909F908F907F906F90089538
:1032B00082E991E06CED7CE00E94C31E84E491E021
:1032C0000E9468238823D1F38EE491E066E00E9497
:1032D000D71A882339F082E991E06EE57EE00E94FA
:1032E000C31E08958091E9019091EA01892B19F498
:1032F0000E94E21608950E94F60E0E94E70A0E94BC
:1033000086140E94BF0C0E94B10E0E9418140E94E5
:103310001A18D4CF84E491E065EE7AE047E00E9489
:103320000027823089F083302CF48823A9F0813083
:1033300011F507C08430C9F084304CF08530D9F4E1
:1033400017C083E090E005C085E090E002C08AE00D
:1033500090E00E94A50A06C08091E9019091EA01DF
:10336000892B59F00E94581908950E944F0B089517
:103370000E94201208950E94880D08950E948A19C3
:10338000089584E491E00E94CB2982E991E06EE502
:103390007EE00E94C31E0E94AD130E94880D84E649
:1033A00090E09093E4018093E3019093E601809391
:1033B000E5010895882319F48CB5806202C08CB5AC
:1033C0008F7D8CBD08959CB5937F982B9CBD0895EF
:1033D0002CB5382F33702C7F322B3CBD2DB590E0AF
:1033E000959587959595879581702E7F822B8DBDBC
:1033F00008958AE061E00E9405318AE061E00E9460
:1034000099308CB580618CBD8CB580648CBD8DE0AD
:1034100061E00E9499308BE061E00E94993008954C
:10342000FC0181E08083089585E070E00E943930DE
:1034300008956F927F928F929F92AF92BF92CF9298
:10344000DF92EF92FF920F931F93CF93DF93EC01E4
:1034500089819A818C0124E0000F111F2A95E1F7E0
:10346000081B190B85E10E941730BC01600F711F0A
:1034700084E0769567958A95E1F77A8369838881F8
:10348000882381F12E813F816217730710F4B901FF
:1034900006C0888599858617970708F4BC0100D077
:1034A00000D080E090E040E050E0E884F98400E063
:1034B00010E0AD80BB24CC24DD246C8077248824EC
:1034C0009924EDB7FEB761827282838294820E9452
:1034D00048336B830F900F900F900F9085E070E052
:1034E0000E943930DF91CF911F910F91FF90EF90A3
:1034F000DF90CF90BF90AF909F908F907F906F9014
:103500000895FC018CE39FE09383828384E08183B0
:1035100081E084870895CF93DF93EC018C8590E060
:103520008F719070892B69F584E10E941730AA276A
:1035300097FDA095BA2FBC01CD010E943F3626EE23
:103540003FE34EEC50E40E942C370E9411369B0161
:10355000AC017B836A836115710589F084E08983FE
:10356000B901FE0120E0848195816817790710F484
:1035700029830AC02F5F32962430A9F702C08FEF4B
:1035800089838C858F5F8C87DF91CF910895FC01B3
:1035900088E0808389E0818387E0828386E083837B
:1035A00084E0848382E0858381E18683089520E03E
:1035B000FC01E60FF11D8781813009F421E0822FA3
:1035C0000895E62FF0E0423040F420E0E80FF91FC4
:1035D000878181508E3F88F40FC0E80FF91F8781E3
:1035E0008F3F11F420E009C020E090E0642F70E0EC
:1035F0000E944D38019709F421E0822F08950F931E
:103600001F93CF93DF93EC0110E00FEF888162E00E
:103610000E94993088810E9438312F81892B19F4BA
:103620002F5F2F8307C0222349F02F3F11F41F8201
:1036300001C00F83888160E00E9499301F5F21964E
:10364000173021F7DF91CF911F910F910895FC0161
:10365000678F60A30895FC01678F40A30895AF9220
:10366000BF92CF92DF92EF92FF920F931F93CF936F
:10367000DF93EC01162FF42EE22EAA24402F5527BB
:1036800047FD50958F2D992787FD9095481B590B25
:1036900057FF03C0509541955F4F2E2D332727FDCF
:1036A0003095812F992787FD9095281B390B37FF7F
:1036B00003C0309521953F4F2417350744F4AA24C1
:1036C000A3948F2DF12E182F802F0E2DE82EE116AA
:1036D00034F48E2DE12E182F802F0F2DF82EDE2C96
:1036E000D11A202F332727FD30958F2D992787FD5D
:1036F0009095281B390B37FF03C0309521953F4F1C
:10370000B22EF0161CF0CC24CA9402C0CC24C39470
:103710008D2DD7FC8F5F082F059511C0AA2021F0B1
:10372000CE016F2D412F03C0CE01612F4F2D0E947E
:1037300090090B1907FF02C0FC0C0D0D1F5FE1166D
:103740006CF7DF91CF911F910F91FF90EF90DF9079
:10375000CF90BF90AF9008950F93042F322F262F54
:103760002150230F0E942F1B0F9108950F93362F86
:10377000042F0150020F232F0E942F1B0F91089539
:103780009F92AF92BF92CF92DF92EF92FF920F93F0
:103790001F93CF93DF936C01B62E942EA02EC0E022
:1037A000D0E0E62EFF24E7FCF094022F112707FD5E
:1037B00010950E0D1F1D06C0C601492D2A2D0E9411
:1037C000B61B21966B2D6C0FCE018E0D9F1D8017A1
:1037D000910794F3DF91CF911F910F91FF90EF909C
:1037E000DF90CF90BF90AF909F9008958F929F925F
:1037F000AF92BF92CF92DF92EF92FF920F931F93FF
:10380000CF93DF93EC01B62EC42E122FAA24A394DB
:10381000A21A8EEF289F802C1124422F4C0DCE012E
:103820000E9490094C2D411BCE016B2D0E949009E6
:10383000612F6B0DCE014C2D0E9490096B2D611BE9
:10384000CE014C2D0E949009D12EEE2483E0982EBB
:1038500042C0A7FC04C0DA9482E0880EA80CE3946E
:10386000A90CFE2CFB0C1D2D1C0DCE016F2D412F24
:103870000E9490090B2D0E19CE01602F412F0E943E
:1038800090091C2D1D19CE016F2D412F0E9490090A
:10389000CE01602F412F0E949009FD2CFB0C1E2DA4
:1038A0001C0DCE016F2D412F0E9490090B2D0D197B
:1038B000CE01602F412F0E9490091C2D1E19CE01B0
:1038C0006F2D412F0E949009CE01602F412F0E9441
:1038D000900982E0980EED140CF4BBCFDF91CF91EC
:1038E0001F910F91FF90EF90DF90CF90BF90AF901E
:1038F0009F908F9008952F923F925F926F927F9248
:103900008F929F92AF92BF92CF92DF92EF92FF92EF
:103910000F931F93DF93CF9300D000D000D0CDB78B
:10392000DEB79E838D83C62ED42EEE24E394E21A56
:103930008EEF289F502C1124842E8A94962E9A94D0
:10394000A42EA394B62EB394F22E662423E0722EF6
:1039500010E0C801847090709A838983F801E27046
:10396000F070FC83EB8398E0292E312C2022312249
:103970000170107054C0E7FC04C0FA94F2E05F0ECE
:10398000E50C639489819A81892B71F04F2D4D0D3F
:103990008D819E816B2D0E9490096F2D6C0D8D8104
:1039A0009E814A2D0E949009EB81FC81EF2B71F0E2
:1039B0004D2D4F198D819E816B2D0E9490096F2D89
:1039C0006C0D8D819E81482D0E9490092114310437
:1039D00071F06C2D6F198D819E814A2D0E94900986
:1039E0004F2D4D0D8D819E81692D0E9490090115ED
:1039F000110571F06C2D6F198D819E81482D0E94EB
:103A000090094D2D4F198D819E81692D0E9490093D
:103A1000E70CF2E07F0E8A949A94A394B3946F1407
:103A20000CF4A9CF26960FB6F894DEBF0FBECDBF1B
:103A3000CF91DF911F910F91FF90EF90DF90CF908A
:103A4000BF90AF909F908F907F906F905F903F90CE
:103A50002F9008954F925F926F927F928F929F92D4
:103A6000AF92BF92CF92DF92EF92FF920F931F938C
:103A7000CF93DF93EC01A62E742E9E2DFF24F3949A
:103A8000F21A8EEF289F802C1124B42EBA9453E0A2
:103A9000C52ECE0CE22EDD2443E0942E10E031E062
:103AA000432E512C40225122692E639402701070D3
:103AB00034C0F7FC04C0EA9482E0880EF80CD3947A
:103AC0004114510489F06D2D6A0D472D4E192E2D8C
:103AD000220F260DCE010E94B61B6E2D6A0DCE015F
:103AE0004B2D2C2D0E94B61B0115110589F06A2D56
:103AF0006D19472D4E192E2D220F260DCE010E9435
:103B0000B61B6A2D6E19CE014B2D2C2D0E94B61BB3
:103B1000F90C82E0980EBA94C80EDE1454F2DF91CC
:103B2000CF911F910F91FF90EF90DF90CF90BF90BA
:103B3000AF909F908F907F906F905F904F9008957F
:103B4000DF92EF92FF920F931F937C01062FD42EEA
:103B5000122F421B220F2F5F0E94B61BC701602F3E
:103B60004D2D212F03E0EE240E942A1D1F910F915D
:103B7000FF90EF90DF9008957F928F929F92AF9287
:103B8000BF92CF92DF92EF92FF920F931F936C013F
:103B9000962EA42EF22E7E2C760E1EEFE19E102D78
:103BA0001124812E820E672D282D0E94AC1BB02E71
:103BB000BA0CBA94C601672D4B2D282D0E94AC1B60
:103BC000AE0C100FC601692D4A2D212F0E94B61B85
:103BD000F90CFA94C6016F2D4A2D212F0E94B61BB5
:103BE000C601672D4A2D2E2D01E00E947B1CFE1878
:103BF000C6016F2D4A2D2E2D02E00E947B1CBE189F
:103C0000C6016F2D4B2D2E2D04E00E947B1CC6019A
:103C1000672D4B2D2E2D08E00E947B1C1F910F91CC
:103C2000FF90EF90DF90CF90BF90AF909F908F90DC
:103C30007F9008958F929F92AF92BF92CF92DF9222
:103C4000EF92FF920F931F936C01162FA42E922ECA
:103C5000F02EBE2C8E2C860E2EEFE29EE02C112430
:103C60002E2D290D682D0E94C01BAB0CFA94FE0C62
:103C70001150190D1B19C601612F4A2D2B2D01E082
:103C8000EF2C0E942A1DC601682D4A2D2B2D02E023
:103C90000E942A1D1F910F91FF90EF90DF90CF900F
:103CA000BF90AF909F908F9008953F924F925F92F8
:103CB0006F927F928F929F92AF92BF92CF92DF923C
:103CC000EF92FF920F931F93CF93DF934C01362E09
:103CD000442EF901A490319654906F010894C11CB0
:103CE000D11C8A2D992787FD9095079668E070E092
:103CF0000E946138E62EFF24E7FCF09400E0C0E06B
:103D0000D0E060E8662E712C26C0E12FE595E595A0
:103D1000E595FF27E7FDF095EC0FFD1FEC0DFD1D70
:103D2000E4912E2F30E0812F8770A30102C05595BA
:103D300047958A95E2F724233523232B31F0612F11
:103D4000630DC4014B2D0E9490091F5F1A15ECF200
:103D50000F5FCE0DDF1D051524F410E0B02EB40C5E
:103D6000F5CFDF91CF911F910F91FF90EF90DF90F2
:103D7000CF90BF90AF909F908F907F906F905F900B
:103D80004F903F900895DC01FB0184918F5F149662
:103D90008C931497319684918F5F15968C93159719
:103DA00031965E96FC93EE935D9708953F924F9205
:103DB0005F926F927F928F929F92AF92BF92CF92BB
:103DC000DF92EF92FF920F931F93CF93DF93EC015B
:103DD000862EA42E422F102F3F8C23E526170CF49D
:103DE000ABC03FE23A150CF4A7C0C02EDD248C8195
:103DF00090E001979C01C29EC001C39E900DD29E8F
:103E0000900D1124262F332727FD3095820F931F05
:103E1000181619060CF090C08D8190E09C01C29E8E
:103E2000C001C39E900DD29E900D11242A2D3327E0
:103E300027FD3095820F931F181619060CF07CC0D1
:103E40009924442E55246DC09C01215030404217C6
:103E5000530711F460E00EC0429EC001439E900DD6
:103E6000529E900D1124840F951FED8DFE8DE80F4D
:103E7000F91F64914C9DC0014D9D900D5C9D900D6E
:103E80001124682C680EBB24792C780C3FC0E62ED8
:103E9000FF2460FF19C0113039F44B2D4A0DCE01BB
:103EA000672D0E9490092EC02C9DC0012D9D900D64
:103EB0003C9D900D11244A2D480FCE01662D212FD7
:103EC000012F0E94C01B1EC098A18F8D9817D1F0A2
:103ED0009F8F113039F44B2D4A0DCE01672D0E9472
:103EE00090090FC02C9DC0012D9D900D3C9D900D03
:103EF00011244A2D480FCE01662D212F012F0E943B
:103F0000C01B3F8EF594E7946E2DB3942B2D332771
:103F100027FD30958D8190E0281739070CF4B7CF35
:103F20009394492D552747FD50958C8190E0481773
:103F300059070CF489CF3F8EDF91CF911F910F91DC
:103F4000FF90EF90DF90CF90BF90AF909F908F90B9
:103F50007F906F905F904F903F9008950F93CF9315
:103F6000DF93EC01262F6A3049F48D819885899F73
:103F7000802D11249A85980F9A8726C06D3029F1DB
:103F800069854A8508850E94D61E9C816885969F12
:103F9000402D11248985480F49878F818823A9F0F6
:103FA000552747FD5095699F9001112484E590E0C5
:103FB000821B930B8417950744F49D81699F902D74
:103FC00011248A85890F8A87198681E090E0DF9124
:103FD000CF910F9108951F93CF93DF93EC01162F8C
:103FE000F8948E8560E00E9405318F8518161CF4C8
:103FF00060E00E9405311EBD0DB407FEFDCF8EB5F9
:104000008F8518161CF461E00E9405317894DF91C9
:10401000CF911F910895FF920F931F93CF93DF933A
:10402000EC01FF2400E010E06F2D6064CE010E94DF
:10403000EB1FCE0160E80E94EB1F8E8561E00E94BD
:1040400005318F8518161CF460E00E940531F801D7
:10405000EF5AFD4F90E080818EBD0DB407FEFDCF7D
:104060008EB59F5F31969435B1F78F8518161CF485
:1040700061E00E940531F3940C5A1F4F86E0F81658
:1040800099F6CE0160E40E94EB1FDF91CF911F9162
:104090000F91FF900895CF93DF93DC0188EF91E0BB
:1040A000E1E5F2E0EF019C01199221503040E1F787
:1040B00019961C9219971A961C92DF91CF91089528
:1040C000EF920F93CF93DF93EC014D876C872E8790
:1040D000E88A0F8781E088878F8F18A28F83CE01AF
:1040E0006CED7CE00E94C31E0E94F91981E00E94E1
:1040F000DA1985E00E94E8198CE00E94E3198D85A9
:1041000061E00E9499308C8561E00E9499308E8533
:1041100061E00E949930888918161CF461E00E94C1
:1041200099308F8518161CF461E00E9499308889B7
:1041300018166CF460E00E9405316AE070E080E0DF
:1041400090E00E94B62F888961E00E940531EC85DD
:104150002E2F332727FD3095F901E357FD4EE491CB
:10416000F0E0EE0FFF1FE758FD4E859194919C8B78
:104170008B8B2F553D4EF90184918A8FED852E2F23
:10418000332727FD3095F901E357FD4EE491F0E028
:10419000EE0FFF1FE758FD4E859194919A8B898B06
:1041A0002F553D4EF9018491898FEF852E2F3327AE
:1041B00027FD3095F901E357FD4EE491F0E0EE0F55
:1041C000FF1FE758FD4E859194919E8B8D8B2F5547
:1041D0003D4EF90184918B8FEE852E2F332727FDDD
:1041E0003095F901E357FD4EE491F0E0EE0FFF1F2B
:1041F000E758FD4E85919491988F8F8B2F553D4EAA
:10420000F90184918C8FCE0161E20E94EB1FCE01F7
:1042100064E10E94EB1F8B8587FF02C08FE78B87CD
:104220006B856068CE010E94EB1FCE0160E20E94A8
:10423000EB1FCE016CE00E94EB1FCE010E940B2011
:10424000DF91CF910F91EF900895CF93DF93DC0131
:10425000E0E8F7E785919491ED01C75ADF4FAD0192
:1042600041595F4F8150904C09F04EC0E6E9F7E7A5
:10427000E491E883E7E9F7E7E4911496EC93149767
:10428000E8E9F7E7E4911596EC931597E9E9F7E784
:104290008591949117969C938E931697EBE9F7E787
:1042A0008591949119969C938E931897EDE9F7E771
:1042B000E4919B96EC939B97EEE9F7E7E4919A964D
:1042C000EC939A97EFE9F7E7E491EA01E883E0EAF3
:1042D000F7E7859194915D969C938E935C97E2EAC3
:1042E000F7E7859194915F969C938E935E97E4EAAD
:1042F000F7E78591949191969C938E939097E6EA37
:10430000F7E78591949132C08CE3888314961C92D0
:1043100014972FEF15962C93159780E293E017963C
:104320009C938E93169784ED93E019969C938E93AD
:10433000189781E09B968C939B979A968C939A976B
:10434000FA0120838CEA9DE05D969C938E935C97A6
:104350008EED9DE05F969C938E935E9784E79EE042
:1043600091969C938E9390978CE39FE093969C9369
:104370008E939297DF91CF910895E0E8F7E78591CA
:1043800094918150904C51F4DB01EBE8F7E7849174
:104390008D93319687E7E539F807C9F70895CF92ED
:1043A000DF92EF92FF920F931F936217730784F0CF
:1043B000E20EF31E6E157F055CF44017510744F0C2
:1043C00080E0C00ED11E4C155D051CF481E001C0DB
:1043D00080E01F910F91FF90EF90DF90CF900895B4
:1043E000EF92FF920F931F93CF93DF937C018C0189
:1043F000025B1F4FC8010E944B20C80165E071E1BC
:104400000E94A131C8010E940B2083E00E94E8199C
:1044100088E291E0EEEFFFE3099584E590E0E80E95
:10442000F91EF7011082C80160EE70E10E94EC31C4
:10443000C8010E940B20E701CA54D040CE010E945F
:10444000FF1ACE0164E00E94D71A882339F462E390
:1044500070E080E090E00E94B62FF0CFDF91CF9126
:104460001F910F91FF90EF9008950F931F93CF939B
:10447000DF93EC018C01025B1F4FC80161E040E05B
:104480000E942B1BFE01E95AFF4FCE5ADF4F85E5F4
:104490009881891B808326961882C855D040698DE3
:1044A000613009F43EC0613028F0888D653008F035
:1044B00051C04BC0CE0185960E94D02ACE0160E04B
:1044C0000E94141AC8010E944B20CA5ADF4F81E093
:1044D0008883C655D040C80161E471E10E94A131D2
:1044E0006A8D7B8DC8014AE050E00E948F32C8017E
:1044F0006DE271E10E94A131C8010E940B2083B7D7
:10450000817F846083BF83B7816083BF83B781600D
:1045100083BF889583B78E7F83BF83B78E7F83BF2A
:104520001FC0C059DF4F88819981AA81BB818F70DC
:104530009070A070B0700897A105B10518F4C8017B
:1045400067E00CC0C80168E709C0882349F06B5FC9
:10455000C80104C0882321F0C8016FE20E94C43161
:10456000DF91CF911F910F910895AF92BF92CF929B
:10457000DF92EF92FF920F931F93CF93DF93EC01A3
:10458000CB57DF4F8881C558D040882309F44AC0F3
:104590008C3010F010E002C01CE0181BCA5ADF4F2C
:1045A00081E08883C655D0406EE4C62ED12CCC0E57
:1045B000DD1EC60160E00E94271B53E5A52EB12C2D
:1045C000AC0EBD1EF50100814DE2F42E4F2D401BB7
:1045D000410F0D5FC60160E024E533E0E32E0E9449
:1045E0001A1EC60161E00E94271BF5010081F01A26
:1045F000F10E0D5FC60160E04F2D24E50E94BC1D49
:10460000C95ADF4F84E08993F5018081181B115D41
:104610001883AB9669917991C6010E94A131888176
:1046200081508883DF91CF911F910F91FF90EF9080
:10463000DF90CF90BF90AF9008954F925F926F92AE
:104640007F928F929F92AF92BF92CF92DF92EF9222
:10465000FF920F931F932C01FC01628C738C60946A
:104660007094882499240E94902F5B016C010E9411
:10467000902F7B018C01F201418052800E94902F8B
:10468000460E571EA094B094C094D094E094F09439
:1046900000951095C601B501A80197010E94223826
:1046A000A40193010E942238460E571EC2010E94A7
:1046B000D1331F910F91FF90EF90DF90CF90BF907B
:1046C000AF909F908F907F906F905F904F900895E4
:1046D000AF92BF92CF92DF92EF92FF920F931F9310
:1046E000CF93DF93EC01EFE7AE2EB12CA80EB91EED
:1046F000F501E080F180028113810E94822FE61A89
:10470000F70A080B190B7EE7C72ED12CCC0EDD1E45
:10471000F601808190E0A0E0B0E08E159F05A00733
:10472000B10708F081C08E0106581F4FF801808143
:104730009181A281B3810097A105B10509F474C0EC
:104740000E94822FF6012081620F711D811D911D33
:10475000F5016083718382839383FE01E059FF4FEB
:1047600080819181A281B3810196A11DB11D8083B9
:104770009183A283B383F801108211821282138283
:104780000E94902FCA58DF4F688379838A839B8366
:10479000C657D040CE010E94191ACE010A960E9437
:1047A000FF1ACE0148960E948B1A81E032C08E011A
:1047B0000B5D1F4FC8010E941E2BC8010E94952B44
:1047C000C8010E94782CCE010E94B522CE010E9421
:1047D00035228E01025B1F4FC8010E940B20CC5A6C
:1047E000DF4F8881C455D040882319F4C8010E9446
:1047F0004B200E94902FC658DF4F688379838A83AD
:104800009B83249728813981621B730B7A936A9367
:1048100080E0DF91CF911F910F91FF90EF90DF909B
:10482000CF90BF90AF900895C658DF4F888199818F
:10483000AA81BB81CA57D0400097A105B10541F7B5
:10484000B6CF2F923F924F925F926F927F928F924C
:104850009F92AF92BF92CF92DF92EF92FF920F930F
:104860001F93DF93CF93CDB7DEB768970FB6F89459
:10487000DEBF0FBECDBF5C017B876A874C8724E516
:1048800030E0A20EB31ED5011C92ECEAFFEFAE0E93
:10489000BF1E842F90E0FB01E80FF91F31971082B3
:1048A0005AE0452E512C4A0C5B1C45E2642E712CBB
:1048B0006A0C7B1C3EE4C32ED12CCA0CDB1CF4E535
:1048C000FA8320E329831D821C8232E03B8323E5A7
:1048D000822E912C8A0C9B1C02E5202E312C2A0C56
:1048E0003B1CA501495A5F4F5E874D87B501685A49
:1048F0007F4F788B6F87D501A059BF4FBA8BA98B9B
:104900009C8B8B8B01979E8B8D8BC5010E9468239E
:104910008823D9F3C20163E044E00E94E11A8823AE
:1049200031F0BB81BF5FBB83C3010E94E12CC20198
:1049300061E044E00E94E11A882331F0EB81E1500C
:10494000EB83C3010E94E12CC20162E044E00E94BB
:10495000E11A882331F0FC81FF5FFC83C3010E94D0
:10496000E12CC20160E044E00E94E11A882331F0AA
:104970002C8121502C83C3010E94E12C3C813031D9
:1049800011F41C8205C04C814F3F11F45FE05C8341
:104990006B81683011F41B8205C07B8177FF02C0F8
:1049A00087E08B83AC81BB27A7FDB095B987A8872B
:1049B000D401EC912B81332727FD30953F832E8343
:1049C000D1018C9190E08095909528853985AC0136
:1049D000249FC001259F900D349F900D1124895D67
:1049E000992787FD90955A81252F332727FD3095EC
:1049F000820F931F62E070E00E9461386A8384E155
:104A00008E1BF0E0E095F0956E817F816E9F9001A6
:104A10006F9F300D7E9F300D1124820F992787FDE7
:104A200090957981272F332727FD3095820F931F8B
:104A300062E070E00E9461386983C20164E00E9414
:104A4000D71A882399F18D81282F332727FD309598
:104A5000AD89BE892A173B07BCF48E819F8114E083
:104A6000880F991F1A95E1F7BC818B0F09F44DCF80
:104A70008A3009F44ACF8D3009F447CFEA85FB85A7
:104A8000E20FF31F80831182ED81EF5FED83C3019D
:104A90000E94D52CFD818F2F992787FD90952B891A
:104AA0003C892817390714F43C853D83C20165E031
:104AB0000E94D71A8823A9F04D8141504D83C3012C
:104AC0000E94DB2C5D8157FF02C01D820AC06D81F0
:104AD000E62FFF27E7FDF0958A859B85E80FF91FF4
:104AE0001082C20166E00E94D71A882309F442C0EE
:104AF000C3010E94D52CC5010E9468238823D9F3E5
:104B0000C60161E771E10E94EC31C6016A857B85CF
:104B10000E94FF32C60160E671E10E94EC31C201E1
:104B200064E00E94D71A8823E1F0C3010E94D52CCB
:104B300068960FB6F894DEBF0FBECDBFCF91DF9160
:104B40001F910F91FF90EF90DF90CF90BF90AF90AB
:104B50009F908F907F906F905F904F903F902F909D
:104B60000895C20165E00E94D71A882321F2C3018B
:104B70000E94DB2CEE24FF2410E033C0D1018C9185
:104B800090E00196EF89F88D9C01E29FC001E39FC0
:104B9000900DF29F900D11246A81680FD4018C91C1
:104BA00090E00196FC01EE9EC001EF9E900DFE9EEE
:104BB000900D11244981480F2F89210FC60101E072
:104BC0000E94D61E2F89388D2F5F3F4F388F2F8B35
:104BD0002031310599F60894E11CF11C105F103862
:104BE00019F0188E1F8ACACFD1018C91BAEF8B9F12
:104BF000802D11248250EA818E0FAD85BE858C9365
:104C0000F40180818F5FF9818F0FAF85B8898C9314
:104C1000C6016AE571E10E94A131F1018081FAEFDC
:104C20008F9F802D112482502A81820FAD85BE85F1
:104C30008C93F401808190E00196880F991FF9818F
:104C40008F0FAF85B8898C93C60164E571E10E942E
:104C5000A131F1018081FAEF8F9F802D11248250C4
:104C60002A81820FAD85BE858C93F401208130E0CE
:104C70002F5F3F4FC901880F991F820F931FF98142
:104C80008F0FAF85B8898C93C6016EE471E10E94E5
:104C9000A131C60160E00E94271BF101808190E0F4
:104CA000019628853985289FB001299F700D389F6E
:104CB000700D112461503A81630FD4018C9190E002
:104CC0000196EE81FF81E89FA001E99F500DF89FBA
:104CD000500D11244250F9814F0FC60127E00E9468
:104CE000AC1BC60161E00E94271BD1012C91822FD1
:104CF00090E0F4010081019648855985489F700134
:104D0000499FF00C589FF00C11245EEFE50E6A816C
:104D1000E60E402F50E04F5F5F4FAE81BF81A49FF2
:104D2000F001A59FF00DB49FF00D1124E350B9815F
:104D3000EB0F2E5F029762E070E00E946138280F4F
:104D40000B5FC6016E2D4E2FF3E0EF2E0E94BC1DAF
:104D5000F40180814EE2481BC60160E024E50E9418
:104D6000AC1BC60160E00E94271BD4010C914FE2EE
:104D7000401B0F5FC60160E024E50E94C01BED856B
:104D8000FE851082D4018C91B0E3B81BEF85F889C1
:104D9000B083C60161E00E94271BC6016A857B853E
:104DA0000E94FF32E989FA8980819181A281B381D1
:104DB00087709070A070B0700497A105B10508F0DD
:104DC000A4CDFD812F2F332727FD30954D895E8996
:104DD000241735070CF099CDD1018C9190E0289FD4
:104DE000B001299F700D389F700D1124F40180814E
:104DF00040E3481BC6012FE501E00E94D61E85CD89
:104E00002F923F924F925F926F927F928F929F92DA
:104E1000AF92BF92CF92DF92EF92FF920F931F93C8
:104E2000DF93CF93CDB7DEB762970FB6F894DEBFAE
:104E30000FBECDBF6C016C837D834B8324E530E0D6
:104E4000C20ED31EF60110822CEA3FEFC20ED31E13
:104E50001AE0A12EB12CAC0CBD1CB5E22B2E312CCE
:104E60002C0C3D1CAEE44A2E512C4C0C5D1C1A82BD
:104E70003FEF398310E0F0E37F2E6624A601495A04
:104E80005F4F5F834E83C601885A9F4F99878887FB
:104E9000F601EA5AFF4FFB87EA8796012B5A3F4FEC
:104EA0003D872C87E3E58E2E912C8C0C9D1C5B811D
:104EB000452F50E05F874E878B818150888BC601DC
:104EC0000E9468238823D9F3C50164E00E94D71AA1
:104ED000882369F4C50165E00E94D71A882339F454
:104EE000C50166E00E94D71A882309F4D3C0F401F3
:104EF0000081C50164E00E94D71A882329F0C1010E
:104F00000E94D52C1983CBC0C1010E94DB2CC7C0E5
:104F1000C50163E044E00E94E11A882321F01F5F8D
:104F2000C1010E94E12CC50161E044E00E94E11A48
:104F3000882321F01150C1010E94E12C812F992773
:104F400087FD90952E853F858217930711F410E019
:104F500002C017FD1889F4018081819F902D1124D2
:104F60008C5F682E691A28C0872D992787FD909538
:104F7000262D332727FD3095821B930B0297D4F4FF
:104F8000898162960FB6F894DEBF0FBECDBFCF9178
:104F9000DF911F910F91FF90EF90DF90CF90BF9026
:104FA000AF909F908F907F906F905F904F903F90C9
:104FB0002F900895F1E0FA83862D992787FD90952B
:104FC000272D332727FD3095820F931F62E070E075
:104FD0000E946138762EEE81FF811082E885F98586
:104FE000608321E0EA85FB852083EC85FD851082C6
:104FF0002C813D81C9019A8B898B00E0E12EFF2431
:10500000E7FCF09420C0802F90E08E159F0569F496
:1050100023E0EE81FF812083F40180818E9D802D2D
:105020001124870DE885F9858083E989FA896591DE
:105030007491C2010E94EC310F5F29893A892E5F79
:105040003F4F3A8B298B3B810317E8F2C20160E0A6
:105050000E94271BF40140814E9D402D1124415098
:10506000470DC20160E024E50E94AC1BC20161E073
:105070000E94271BF40100810E9D402D11244250F7
:10508000470D0D5FC20160E024E573E0E72E0E944A
:10509000BC1D15CFFA81FF2309F066CF39CF802FD1
:1050A00090E0909581959F4F2E853F85AC01249F80
:1050B000C001259F900D349F900D11246EEF662E38
:1050C000680E52CF2F923F924F925F926F927F92D3
:1050D0008F929F92AF92BF92CF92DF92EF92FF9208
:1050E0000F931F93DF93CF93CDB7DEB72B970FB6F8
:1050F000F894DEBF0FBECDBF9B878A877A83698312
:105100005C834B838C0101591F4FF80180818823F8
:1051100009F422C18A859B858A5A9F4F9B878A877B
:1051200081E0EA85FB85808312921292E455F0407B
:10513000FB87EA87108E9EE4E92EF12CEE0EFF1E0F
:10514000C70161E00E94271B8AE0282E312C8A8546
:105150009B85280E391EB5E26B2E712C680E791EC8
:10516000E981FA81F491FD83A7E58A2E912C880EBE
:10517000991EF8E5CF2ED12CC80ED91EE2E54E2E91
:10518000512C480E591E8D5A9F4F9F838E8370E776
:10519000A72EB12C8A859B85A80EB91E1987088772
:1051A0008A859B850E9468238823D1F39D8199235A
:1051B00011F410E003C0EE81FF811081C70160E0AF
:1051C00040E02EE731E10E94551E8B819C81892BA6
:1051D00041F0145FC70160E0412F2B813C810E94A8
:1051E000551EF40110828CE0F6018083C7016981AD
:1051F0007A810E94A131F201208130E0C901880F3B
:10520000991F820F931F909581959F4F8D5AF4019E
:105210008083EE81FF81208130E0C901880F991FD2
:10522000820F931F909581959F4F835DF601808338
:10523000F501808184FF04C0C7016EEF71E103C0F6
:10524000C7016AEF71E10E94EC31F201208130E088
:10525000C901880F991F820F931F909581959F4FC9
:105260008D5AF4018083F60180818F5F8083EA8507
:10527000FB8582A5882321F0C70166EF71E103C099
:10528000C70162EF71E10E94EC31F201808190E090
:105290009C01220F331F280F391F309521953F4F56
:1052A0002D5AF4012083F60180818F5F8083C7012E
:1052B0006EEE71E10E94EC31C10165E00E94D71AE7
:1052C000882351F0EA85FB8562A56F5FC3010E94C8
:1052D000E72CC3010E94E12CC10164E00E94D71AAF
:1052E000882399F4E885F9856081262F30E040E035
:1052F00050E0F50180819181A281B38182179307EB
:10530000A407B50708F16F3FF9F08A859B8581599D
:105310009F4F9B878A878FEFEA85FB858083EF56B7
:10532000F040FB87EA87C30160E00E94C52AC30101
:105330000E94D52C81E0EA85FB85808F0DC08A858F
:105340009B850E94F0212CCFC10166E00E94D71AF4
:10535000882309F425CFF3CF2B960FB6F894DEBF40
:105360000FBECDBFCF91DF911F910F91FF90EF90B6
:10537000DF90CF90BF90AF909F908F907F906F9075
:105380005F904F903F902F900895AB0163E072E1E2
:105390000E9462280895AF92BF92CF92DF92EF925F
:1053A0000F93CF93DF936C018EE790E0C80ED91E68
:1053B00082E3F601808381E090E0A0E0B0E0B29368
:1053C000A293929382936F0185EF9FEFC80ED91E2F
:1053D0008FEFF601808381E99FEFC80ED91EC601C9
:1053E0000E942521C6010E94101AC6016FEF0E947B
:1053F000141A4AE0A42EB12CAC0CBD1CC5010E94AD
:10540000C71AC5010E94FF1AC60148960E94811A58
:10541000C601825B9F4F6DE04BE020E10FE03EE074
:10542000E32E0E946020E601A596CE010E94F42C96
:10543000C50165E00E94D71A882329F0CE0160E0FB
:105440000E94E72C06C0CE0164E072E140E00E94B9
:10545000D42ADF91CF910F91EF90DF90CF90BF9042
:10546000AF9008950F93DC01002309F069C062300A
:1054700009F443C0633030F4662359F0613009F019
:105480005FC00DC0633009F444C0643009F058C0F7
:105490004CC04B3008F04AE056964C9351C0842FD4
:1054A00090E0880F991F1F962D913C915097280FDF
:1054B000391FF9018591949190969C938E935F97F3
:1054C000FC014591549114968C911497849F602D02
:1054D000112491966C939197252F3327862F90E076
:1054E0002817390708F4652F14968C911497689F34
:1054F000802D112492968C9323C014968C9114972E
:10550000489F802D112459968C9359975A962C9325
:1055100017C014968C911497489F802D11245B9688
:105520008C935B975C962C930BC014968C9114977C
:10553000489F802D11245D968C935D975E962C93E9
:105540000F910895FC01222371F4648B8481489F9C
:10555000802D1124858B15A214A213A281E0878BC4
:1055600080934A04108E0895FC01662369F4178A1B
:10557000158A14A213A2108E10924D0410924C049E
:1055800010924A041092B4000895CF93DF93EC0177
:10559000662319F40E94B42A1982DF91CF910895ED
:1055A00060E00E94C52A08950F931F93CF93DF9365
:1055B000EC018B01442371F460E00E94C52A1E8730
:1055C0000D871B8A1A8A81E0898389E08E8B198E68
:1055D0001B8E1D8EDF91CF911F910F910895CF9358
:1055E000DF93EC01662339F58881882321F18981D5
:1055F000882309F5898590E0880F991FEF81F88548
:10560000E80FF91F859194912FEF8F3F920711F4C6
:10561000188211C09C8790E0880F991FEA85FB854E
:10562000E80FF91F65917491CE0140E00E94D42AE1
:1056300089858F5F8987DF91CF91089560E00E940F
:10564000EF2A08950F93CF93DF93EC01662309F0BF
:1056500068C08981882309F464C08D89882309F092
:1056600060C0EA89FB89EE0FFF1F4D855E85E40F60
:10567000F51F259134912115310509F040C0898924
:10568000813031F41B8A1A8AFA012591349137C08E
:1056900019828881882379F0CE0160E00E94EF2A88
:1056A0008A899B89880F991FED85FE85E80FF91F70
:1056B0002591349124C0CE0160E00E94B42A31C00B
:1056C000E6E036952795EA95E1F76F70422F4F7126
:1056D00075E0369527957A95E1F72051CE0100E0E7
:1056E0000E94322A8A899B8901969B8B8A8B880F1C
:1056F000991FED85FE85E80FF91F25913491B901B9
:10570000769567957695679520FDDACF6F73432F71
:10571000CE0120E00E94A22A8A899B8901969B8B58
:105720008A8BDF91CF910F91089560E00E94222B28
:105730000895CF93DF93EC01662309F0D6C08F89DB
:10574000882309F4D2C08D89882321F4CE010E94D8
:10575000B42ACBC081508D8B8DA1882309F03BC02A
:105760008BA19CA10196880F991FEF8DF8A1E80FDE
:10577000F91F85919491282F27702EA3AC0163E027
:10578000569547956A95E1F79A0136952795892FA1
:105790009927869586958FA32F738C81289F202D1E
:1057A00011242DA3417040934E048BA19CA101961E
:1057B0009CA38BA329A130E08217930760F08AA1F4
:1057C000882329F0281B31093CA32BA304C0CE0158
:1057D00060E00E94B42A8DA181508DA3988D9F5FB7
:1057E000988F2FA18C89280F8C85280F2A836B8D89
:1057F000662369F0892F992787FD909570E00E94B4
:1058000061388C8D869F802D1124820F8A838A8136
:1058100090E0CB966BE370E00E9461388A832E891A
:105820002B83698D662379F0888D772767FD7095C6
:10583000992787FD90950E9461388A8D869F802DDB
:105840001124820F8B836D8D662399F0888D9927A3
:1058500087FD909570E00E946138CB0162E070E0B6
:105860000E9461389E8D899F802D11249B81890F14
:105870008B838B818A300CF089E087FD80E08B83FD
:105880008C898F3309F41B82F894EA81F0E0E85D9B
:10589000FD4EE491E0934B042D8130E08B819927FC
:1058A00087FD9095A901489F9001499F300D589F11
:1058B000300D112488A590E0A901489F9001499FCF
:1058C000300D589F300D11248EA1992787FD90959A
:1058D000AC01249FC001259F900D349F900D112491
:1058E00080934C0480934D047894DF91CF91089578
:1058F00060E00E94992B089560914C04662381F129
:10590000809149048F5F8093490490914B048917DB
:1059100038F130E080914A04882309F431E0309373
:105920004A041092490480914E048823A9F0809182
:10593000350123E4829FC0011124895B80933501E6
:1059400090E070E00E944D3880934D0405C0809136
:105950004D048093B40008953323C9F780E0F9CF54
:1059600008951F920F920FB60F9211242F933F9319
:105970004F935F936F937F938F939F93AF93BF9357
:10598000EF93FF930E947C2CFF91EF91BF91AF9119
:105990009F918F917F916F915F914F913F912F9147
:1059A0000F900FBE0F901F90189560E272E140E0DB
:1059B0000E94D42A089568E172E140E00E94D42A4E
:1059C000089562E172E140E00E94D42A0895FC014A
:1059D000862F668170E06F5F7F4F992787FD9095D6
:1059E0000E946138858308950F93FC0181E08483D0
:1059F00084E080A783E692E1908B8787CF0161E006
:105A000040E020E000E00E94322A83E061E070E0A4
:105A10000E943930E1EBF0E08081887F81608083F3
:105A2000F89410928000E1E8F0E010821092850076
:105A30001092840088E191E090938900809388001F
:105A4000808188608083808181608083EFE6F0E0E0
:105A500080818260808378940F910895F999FECFB8
:105A600072BD61BDF89A80B50895F999FECF1FBA4D
:105A700072BD61BD40BD0FB6F894FA9AF99A0FBE97
:105A800008950F931F93CF93DF93BC01823091054C
:105A900010F462E070E0E0915904F0915A04A0E043
:105AA000B0E040E050E024C08081918186179707E4
:105AB000D0F08617970771F482819381109729F0AF
:105AC00013969C938E9312972CC090935A048093B4
:105AD000590427C04115510519F08417950718F48A
